{
  "contractName": "Adder",
  "abi": [
    {
      "constant": true,
      "inputs": [
        {
          "name": "a",
          "type": "uint256"
        },
        {
          "name": "b",
          "type": "uint256"
        }
      ],
      "name": "add",
      "outputs": [
        {
          "name": "",
          "type": "uint256"
        }
      ],
      "payable": false,
      "stateMutability": "pure",
      "type": "function"
    }
  ],
  "bytecode": "0x608060405234801561001057600080fd5b5060c58061001f6000396000f300608060405260043610603f576000357c0100000000000000000000000000000000000000000000000000000000900463ffffffff168063771602f7146044575b600080fd5b348015604f57600080fd5b5060766004803603810190808035906020019092919080359060200190929190505050608c565b6040518082815260200191505060405180910390f35b60008183019050929150505600a165627a7a7230582009fe92727d75be178666a5f0081c077e9c08e77b75d118024321fb85b61252f10029",
  "source": "pragma solidity ^0.4.17;\n\ncontract Adder {\n    function add(uint256 a, uint256 b) public pure returns (uint256) {\n        return a + b;\n    }\n}",
  "sourcePath": "/mnt/c/Users/Raketa/Documents/Repos/beakeros/contracts/test/valid/Adder.sol",
  "compiler": {
    "name": "solc",
    "version": "0.4.24+commit.e67f0147.Emscripten.clang"
  },
  "schemaVersion": "2.0.1",
  "updatedAt": "2018-10-12T18:05:18.063Z"
}