{
  "contractName": "BasicEntryProcedure",
  "abi": [
    {
      "payable": false,
      "stateMutability": "nonpayable",
      "type": "fallback"
    },
    {
      "constant": true,
      "inputs": [],
      "name": "A",
      "outputs": [
        {
          "name": "",
          "type": "uint256"
        }
      ],
      "payable": false,
      "stateMutability": "pure",
      "type": "function"
    }
  ],
  "bytecode": "0x608060405234801561001057600080fd5b5061023c806100206000396000f300608060405260043610610041576000357c0100000000000000000000000000000000000000000000000000000000900463ffffffff168063f446c1d0146101dc575b34801561004d57600080fd5b506000606060007f4261736963456e74727950726f63656475726546616c6c6261636b000000000060405180826000191660001916815260200191505060405180910390a060008036905014156100a3576101d7565b60186000369050101561011e576040517f08c379a00000000000000000000000000000000000000000000000000000000081526004018080602001828103825260108152602001807f6e6f2070726f636564757265206b65790000000000000000000000000000000081525060200191505060405180910390fd5b60003592506000368080601f016020809104026020016040519081016040528093929190818152602001838380828437820191505050505050915061017a565b6000602082066020038201604051915080820160405250919050565b610184608061015e565b600360008201526002602082015283604082015260206101a38161015e565b81606084015260046018608085013781816065601f8601335af415156101cf5780516108980181528181f35b805193508181f35b505050005b3480156101e857600080fd5b506101f1610207565b6040518082815260200191505060405180910390f35b600060259050905600a165627a7a723058206ad3149936005799e7892b3b8d407a889d5c56a7df4f227adf8b5025602061d30029",
  "source": "pragma solidity ^0.4.17;\n\n// This contract is a basic example of an entry procedure. It is used in\n// testing. It simply executes any requested procedure.\ncontract BasicEntryProcedure {\n\n    // This is fallback function for testing that simply logs something\n    function () public {\n        log0(bytes32(\"BasicEntryProcedureFallback\"));\n        // If there is not payload just exit\n        if (msg.data.length == 0) {\n            return;\n        }\n        // If there is a payload, assume the first 24 bytes are a procedure\n        // key, and the rest is the payload. If there are not enough bytes,\n        // throw an error\n        if (msg.data.length < 24) {\n            revert(\"no procedure key\");\n        }\n        bytes24 procedureKey;\n        assembly {\n            procedureKey := calldataload(0)\n        }\n        // log1(bytes32(procedureKey), bytes32(\"KeyName\"));\n        // log1(bytes32(msg.data.length-24), bytes32(\"Payload Length\"));\n        // for (uint256 i = 24; i < msg.data.length; i++) {\n        //     log1(bytes32(msg.data[i]), bytes32(\"Payload\"));\n        // }\n        bytes memory payload = msg.data;\n        // Call the requested procedure\n        // Begin our call\n        bytes32 res;\n        assembly {\n            function malloc(size) -> result {\n                // align to 32-byte words\n                let rsize := add(size,sub(32,mod(size,32)))\n                // get the current free mem location\n                result :=  mload(0x40)\n                // Bump the value of 0x40 so that it holds the next\n                // available memory location.\n                mstore(0x40,add(result,rsize))\n            }\n            let ins := malloc(128)\n            // First set up the input data (at memory location 0x0)\n            // The call call is 0x-03\n            mstore(add(ins,0x0),0x03)\n            // The capability index is 0x-02\n            mstore(add(ins,0x20),0x02)\n            // The key of the procedure\n            mstore(add(ins,0x40),procedureKey)\n            // The size of the return value we expect (0x20)\n            let retSize := 0x20\n            let retLoc := malloc(retSize)\n            mstore(add(ins,0x60),retSize)\n\n            // Copy the payload data into the input buffer\n            // let payloadLength := sub(calldataload(0),24)\n            calldatacopy(add(ins,0x80),24,4)\n            // log0(add(ins,0x80),4)\n            // \"in_offset\" is at 31, because we only want the last byte of type\n            // \"in_size\" is 65 because it is 1+32+32+32+4\n            // we will store the result at 0x80 and it will be 32 bytes\n            if iszero(delegatecall(gas, caller, add(ins,31), 101, retLoc, retSize)) {\n                mstore(retLoc,add(2200,mload(retLoc)))\n                return(retLoc,retSize)\n            }\n            res := mload(retLoc)\n            return(retLoc,retSize)\n        }\n        // log0(res);\n        // log0(bytes32(\"call complete\"));\n        // End procedure call\n    }\n\n    // This is simple function for testing that simply returns the number 37\n    function A() public pure returns (uint256) {\n        return 37;\n    }\n\n}\n",
  "sourcePath": "/mnt/c/Users/Raketa/Documents/Repos/beakeros/contracts/BasicEntryProcedure.sol",
  "compiler": {
    "name": "solc",
    "version": "0.4.24+commit.e67f0147.Emscripten.clang"
  },
  "schemaVersion": "2.0.1",
  "updatedAt": "2018-10-11T16:50:35.271Z"
}