{
  "contractName": "Callcode",
  "abi": [
    {
      "constant": false,
      "inputs": [
        {
          "name": "a",
          "type": "address"
        },
        {
          "name": "gasAmount",
          "type": "uint256"
        }
      ],
      "name": "foo",
      "outputs": [
        {
          "name": "v",
          "type": "bool"
        }
      ],
      "payable": false,
      "stateMutability": "nonpayable",
      "type": "function"
    }
  ],
  "bytecode": "0x608060405234801561001057600080fd5b5060e68061001f6000396000f300608060405260043610603f576000357c0100000000000000000000000000000000000000000000000000000000900463ffffffff168063bd0d639f146044575b600080fd5b348015604f57600080fd5b50608c600480360381019080803573ffffffffffffffffffffffffffffffffffffffff1690602001909291908035906020019092919050505060a6565b604051808215151515815260200191505060405180910390f35b6000806000806000808787f29050929150505600a165627a7a72305820882fbc9343f6635d318aee6ad631bce52fad33619566b756acf18a6ac70df4a50029",
  "source": "pragma solidity ^0.4.17;\n\ncontract Callcode {\n    function foo(address a, uint gasAmount) public returns (bool v) {\n        assembly {\n            v := callcode(gasAmount, a, 0, 0, 0, 0, 0)\n        }\n    }\n}",
  "sourcePath": "/mnt/c/Users/Raketa/Documents/Repos/beakeros/contracts/test/invalid/Callcode.sol",
  "compiler": {
    "name": "solc",
    "version": "0.4.24+commit.e67f0147.Emscripten.clang"
  },
  "schemaVersion": "2.0.1",
  "updatedAt": "2018-10-11T16:50:35.279Z"
}