{
  "contractName": "Create",
  "abi": [
    {
      "constant": false,
      "inputs": [
        {
          "name": "value",
          "type": "bytes1"
        },
        {
          "name": "offset",
          "type": "bytes1"
        },
        {
          "name": "size",
          "type": "bytes1"
        }
      ],
      "name": "foo",
      "outputs": [],
      "payable": false,
      "stateMutability": "nonpayable",
      "type": "function"
    }
  ],
  "bytecode": "0x608060405234801561001057600080fd5b5061011e806100206000396000f300608060405260043610603f576000357c0100000000000000000000000000000000000000000000000000000000900463ffffffff1680630e456e26146044575b600080fd5b348015604f57600080fd5b5060e660048036038101908080357effffffffffffffffffffffffffffffffffffffffffffffffffffffffffffff1916906020019092919080357effffffffffffffffffffffffffffffffffffffffffffffffffffffffffffff1916906020019092919080357effffffffffffffffffffffffffffffffffffffffffffffffffffffffffffff1916906020019092919050505060e8565b005b808284f0505050505600a165627a7a72305820b654fe8b95444e2fb7f04840f5cfd6a859f9617861c392e974770379cc5873b90029",
  "source": "pragma solidity ^0.4.17;\n\ncontract Create {\n    function foo(byte value, byte offset, byte size) public {\n        assembly {\n            let x := create(value, offset, size)\n        }\n    }\n}\n",
  "sourcePath": "/mnt/c/Users/Raketa/Documents/Repos/beakeros/contracts/test/invalid/Create.sol",
  "compiler": {
    "name": "solc",
    "version": "0.4.24+commit.e67f0147.Emscripten.clang"
  },
  "schemaVersion": "2.0.1",
  "updatedAt": "2018-09-17T13:43:44.383Z"
}