{
  "contractName": "Delegatecall",
  "abi": [
    {
      "constant": false,
      "inputs": [
        {
          "name": "a",
          "type": "address"
        },
        {
          "name": "gasAmount",
          "type": "uint256"
        }
      ],
      "name": "foo",
      "outputs": [
        {
          "name": "v",
          "type": "bool"
        }
      ],
      "payable": false,
      "stateMutability": "nonpayable",
      "type": "function"
    }
  ],
  "bytecode": "0x608060405234801561001057600080fd5b5060e58061001f6000396000f300608060405260043610603f576000357c0100000000000000000000000000000000000000000000000000000000900463ffffffff168063bd0d639f146044575b600080fd5b348015604f57600080fd5b50608c600480360381019080803573ffffffffffffffffffffffffffffffffffffffff1690602001909291908035906020019092919050505060a6565b604051808215151515815260200191505060405180910390f35b60008060008060008686f49050929150505600a165627a7a723058207dde401c1fee745403519574762d04a49ee17f6bd8a0f64ceb53130d7fa3e4e00029",
  "source": "pragma solidity ^0.4.17;\n\ncontract Delegatecall {\n    function foo(address a, uint gasAmount) public returns (bool v) {\n        assembly {\n            v := delegatecall(gasAmount, a, 0, 0, 0, 0)\n        }\n    }\n}",
  "sourcePath": "/mnt/c/Users/Raketa/Documents/Repos/beakeros/contracts/test/invalid/Delegatecall.sol",
  "compiler": {
    "name": "solc",
    "version": "0.4.24+commit.e67f0147.Emscripten.clang"
  },
  "schemaVersion": "2.0.1",
  "updatedAt": "2018-09-17T13:43:44.384Z"
}