{
  "contractName": "Factory",
  "abi": [
    {
      "constant": true,
      "inputs": [
        {
          "name": "",
          "type": "bytes1"
        }
      ],
      "name": "opCodes",
      "outputs": [
        {
          "name": "",
          "type": "uint8"
        }
      ],
      "payable": false,
      "stateMutability": "view",
      "type": "function"
    },
    {
      "constant": true,
      "inputs": [
        {
          "name": "procedureAddress",
          "type": "address"
        }
      ],
      "name": "validateContract",
      "outputs": [
        {
          "name": "",
          "type": "uint8"
        }
      ],
      "payable": false,
      "stateMutability": "view",
      "type": "function"
    },
    {
      "constant": true,
      "inputs": [
        {
          "name": "oCode",
          "type": "bytes"
        }
      ],
      "name": "validate",
      "outputs": [
        {
          "name": "err",
          "type": "uint8"
        }
      ],
      "payable": false,
      "stateMutability": "pure",
      "type": "function"
    },
    {
      "constant": true,
      "inputs": [
        {
          "name": "oCode",
          "type": "bytes"
        }
      ],
      "name": "codeLength",
      "outputs": [
        {
          "name": "len",
          "type": "uint256"
        }
      ],
      "payable": false,
      "stateMutability": "pure",
      "type": "function"
    },
    {
      "constant": true,
      "inputs": [
        {
          "name": "oCode",
          "type": "bytes"
        }
      ],
      "name": "codePosition",
      "outputs": [
        {
          "name": "code",
          "type": "uint256"
        }
      ],
      "payable": false,
      "stateMutability": "pure",
      "type": "function"
    }
  ],
  "bytecode": "0x608060405234801561001057600080fd5b50610833806100206000396000f30060806040526004361061006d576000357c0100000000000000000000000000000000000000000000000000000000900463ffffffff1680630866a87d14610072578063087536ec146100db5780635acf061a14610158578063c16e50ef146101b5578063dfe4399214610238575b600080fd5b34801561007e57600080fd5b506100bf60048036038101908080357effffffffffffffffffffffffffffffffffffffffffffffffffffffffffffff191690602001909291905050506102b5565b604051808260ff1660ff16815260200191505060405180910390f35b3480156100e757600080fd5b50610142600480360381019080803590602001908201803590602001908080601f01602080910402602001604051908101604052809392919081815260200183838082843782019150505050505091929192905050506102d5565b6040518082815260200191505060405180910390f35b34801561016457600080fd5b50610199600480360381019080803573ffffffffffffffffffffffffffffffffffffffff1690602001909291905050506102e0565b604051808260ff1660ff16815260200191505060405180910390f35b3480156101c157600080fd5b5061021c600480360381019080803590602001908201803590602001908080601f0160208091040260200160405190810160405280939291908181526020018383808284378201915050505050509192919290505050610342565b604051808260ff1660ff16815260200191505060405180910390f35b34801561024457600080fd5b5061029f600480360381019080803590602001908201803590602001908080601f01602080910402602001604051908101604052809392919081815260200183838082843782019150505050505091929192905050506107f7565b6040518082815260200191505060405180910390f35b60006020528060005260406000206000915054906101000a900460ff1681565b600081519050919050565b600080606060009150833b9150816040519080825280601f01601f1916602001820160405280156103205781602001602082028038833980820191505090505b509050818152833b600060208301863c61033981610342565b92505050919050565b600080600080600092505b84518310156107ea57848381518110151561036457fe5b9060200101517f010000000000000000000000000000000000000000000000000000000000000090047f0100000000000000000000000000000000000000000000000000000000000000027f01000000000000000000000000000000000000000000000000000000000000009004915060008260ff16101580156103ec5750600b8260ff1611155b156103f6576107dd565b60108260ff161015801561040e5750601a8260ff1611155b15610418576107dd565b60208260ff161415610429576107dd565b60308260ff16101580156104415750603e8260ff1611155b1561044b576107dd565b60408260ff1610158015610463575060458260ff1611155b1561046d576107dd565b60508260ff1610158015610485575060538260ff1611155b1561048f576107dd565b60568260ff16101580156104a75750605b8260ff1611155b156104b1576107dd565b60808260ff16101580156104c95750608f8260ff1611155b156104d3576107dd565b60908260ff16101580156104eb5750609f8260ff1611155b156104f5576107dd565b60f38260ff161415610506576107dd565b60fa8260ff161015801561051e575060fe8260ff1611155b15610528576107dd565b60608260ff16101580156105405750607f8260ff1611155b1561055557605f820360ff16830192506107dd565b60548260ff161415610566576107dd565b60558260ff16141561057b57600293506107ef565b60a08260ff16141561059057600393506107ef565b60a18260ff1614156105a557600493506107ef565b60a28260ff1614156105ba57600593506107ef565b60a38260ff1614156105cf57600693506107ef565b60a48260ff1614156105e457600793506107ef565b60f08260ff1614156105f957600893506107ef565b60f18260ff16141561060e57600993506107ef565b60f28260ff16141561062357600a93506107ef565b60f48260ff1614156107aa576000905060028310156106455760009050610796565b605a7f010000000000000000000000000000000000000000000000000000000000000002856001850381518110151561067a57fe5b9060200101517f010000000000000000000000000000000000000000000000000000000000000090047f0100000000000000000000000000000000000000000000000000000000000000027effffffffffffffffffffffffffffffffffffffffffffffffffffffffffffff1916148015610793575060337f010000000000000000000000000000000000000000000000000000000000000002856002850381518110151561072457fe5b9060200101517f010000000000000000000000000000000000000000000000000000000000000090047f0100000000000000000000000000000000000000000000000000000000000000027effffffffffffffffffffffffffffffffffffffffffffffffffffffffffffff1916145b90505b80156107a1576107dd565b600b93506107ef565b60f58260ff1614156107bf57600c93506107ef565b60ff8260ff1614156107d457600d93506107ef565b606493506107ef565b828060010193505061034d565b600093505b505050919050565b60008151600083019150509190505600a165627a7a7230582040f70da19346b55f77bbf03f2db99e0e5146be046acd292938ce5718a3bc338d0029",
  "source": "pragma solidity ^0.4.17;\n\ncontract Factory {\n\n    /*opCode -> jump size*/\n    mapping(byte => uint8) public opCodes;\n\n    function validateContract(address procedureAddress) public view returns (uint8) {\n        uint256 codeSize = 0;\n        assembly {\n            codeSize := extcodesize(procedureAddress)\n        }\n        bytes memory code = new bytes(codeSize);\n        assembly {\n            mstore(code, codeSize)\n            extcodecopy(procedureAddress, add(code,0x20), 0, extcodesize(procedureAddress))\n        }\n        return validate(code);\n    }\n\n    function validate(bytes oCode) public pure returns (uint8 err) {\n        for (uint256 i = 0; i < oCode.length; i ++) {\n            uint8 ins = uint8(oCode[i]);\n            // TODO: this also checks the swarm metadata, which is not actually\n            // meant to be executed. We can't just skip it, as it is possible\n            // to include code hidden in this metadata. We can either force\n            // developers to remove it before being entered as a procedure, or\n            // somehow try and prove that it is unreachable, which is possible\n            // but an extra cost we probably don't want.\n            //\n            // It is always possible for legitimate swarm metadata to have a\n            // jump destination which could be used to embed executable code.\n            // It is not generally possible to determine what is a legitmate\n            // swarm hash which just happens to contain a jump destination and\n            // what is malicious code.\n\n            // This presented as a whitelist in case any new state-changing\n            // opcodes are added (CREATE2 being a good example)\n\n            if((ins >= 0x00 && ins <= 0x0b)){continue;}  // Stop and Arithmetic\n            if((ins >= 0x10 && ins <= 0x1a)){continue;} // Comparison & Bitwise Logic Operations\n            if((ins == 0x20)){continue;} // SHA3\n            if((ins >= 0x30 && ins <= 0x3e)){continue;} // Environmental Informatio\n            if((ins >= 0x40 && ins <= 0x45)){continue;} // Block Information\n            if((ins >= 0x50 && ins <= 0x53)){continue;} // Stack, Memory, Storage and Flow Operation \n            if((ins >= 0x56 && ins <= 0x5b)){continue;} // Stack, Memory, Storage and Flow Operation\n            if((ins >= 0x80 && ins <= 0x8f)){continue;} // Duplication Operations\n            if((ins >= 0x90 && ins <= 0x9f)){continue;} // Exchange Operations\n            if((ins == 0xf3)){continue;} // RETURN\n            if((ins >= 0xfa && ins <= 0xfe)){continue;}\n\n            if (ins >= 0x60 && ins <= 0x7f) {\n                i += ins - 95;\n                continue;\n            } // PUSH\n            // if (ins == 0x54) {return 1;} // SLOAD\n            // TODO: we temporarily allow SLOAD for testing purposes\n            if (ins == 0x54) {continue;} // SLOAD\n            if (ins == 0x55) {return 2;} // SSTORE\n\n            if (ins == 0xa0) {return 3;} // LOG0\n            if (ins == 0xa1) {return 4;} // LOG1\n            if (ins == 0xa2) {return 5;} // LOG2\n            if (ins == 0xa3) {return 6;} // LOG3\n            if (ins == 0xa4) {return 7;} // LOG4\n\n            if (ins == 0xf0) {return 8;} // CREATE\n            if (ins == 0xf1) {return 9;} // CALL\n            if (ins == 0xf2) {return 10;} // CALLCODE\n            if (ins == 0xf4) {\n                // continue if it is a compliant syscall\n                bool isSysCall = false;\n                // check there are enough bytes\n                if (i < 2) {\n                    isSysCall = false;\n                } else {\n                    isSysCall = (oCode[i-1] == 0x5a /* GAS */) && (oCode[i-2] == 0x33 /* CALLER */);\n                }\n                if (isSysCall) {\n                    continue;\n                } else {\n                    return 11;\n                }\n            } // DELEGATECALL\n            if (ins == 0xf5) {return 12;} // CREATE2\n            if (ins == 0xff) {return 13;} // SELFDESTRUCT\n\n            \n\n            return 100; // UNKNOWN OPCODE\n            \n        }\n        return 0;\n    }\n\n    function codeLength(bytes oCode) public pure returns (uint len) {\n        assembly {\n            // Get Length\n            len := mload(oCode)\n        }\n    }\n\n    function codePosition(bytes oCode) public pure returns (uint code) {\n        assembly {\n            // Get Length\n            let len := mload(oCode)\n            // Get Code\n            code := add(oCode, 0x00)\n        }\n    }\n}\n",
  "sourcePath": "/mnt/c/Users/Raketa/Documents/Repos/beakeros/contracts/Factory.sol",
  "compiler": {
    "name": "solc",
    "version": "0.4.24+commit.e67f0147.Emscripten.clang"
  },
  "schemaVersion": "2.0.1",
  "updatedAt": "2018-10-16T14:59:29.615Z"
}