{
  "contractName": "Factory",
  "abi": [
    {
      "constant": true,
      "inputs": [
        {
          "name": "",
          "type": "bytes1"
        }
      ],
      "name": "opCodes",
      "outputs": [
        {
          "name": "",
          "type": "uint8"
        }
      ],
      "payable": false,
      "stateMutability": "view",
      "type": "function"
    },
    {
      "constant": true,
      "inputs": [
        {
          "name": "oCode",
          "type": "bytes"
        }
      ],
      "name": "validate",
      "outputs": [
        {
          "name": "err",
          "type": "uint8"
        }
      ],
      "payable": false,
      "stateMutability": "view",
      "type": "function"
    },
    {
      "constant": true,
      "inputs": [
        {
          "name": "oCode",
          "type": "bytes"
        }
      ],
      "name": "codeLength",
      "outputs": [
        {
          "name": "len",
          "type": "uint256"
        }
      ],
      "payable": false,
      "stateMutability": "pure",
      "type": "function"
    },
    {
      "constant": true,
      "inputs": [
        {
          "name": "oCode",
          "type": "bytes"
        }
      ],
      "name": "codePosition",
      "outputs": [
        {
          "name": "code",
          "type": "uint256"
        }
      ],
      "payable": false,
      "stateMutability": "pure",
      "type": "function"
    },
    {
      "constant": false,
      "inputs": [
        {
          "name": "oCode",
          "type": "bytes"
        }
      ],
      "name": "create",
      "outputs": [
        {
          "name": "d",
          "type": "address"
        }
      ],
      "payable": false,
      "stateMutability": "nonpayable",
      "type": "function"
    }
  ],
  "bytecode": "0x608060405234801561001057600080fd5b506104bb806100206000396000f30060806040526004361061006d576000357c0100000000000000000000000000000000000000000000000000000000900463ffffffff1680630866a87d14610072578063087536ec146100db578063c16e50ef14610158578063cf5ba53f146101db578063dfe4399214610284575b600080fd5b34801561007e57600080fd5b506100bf60048036038101908080357effffffffffffffffffffffffffffffffffffffffffffffffffffffffffffff19169060200190929190505050610301565b604051808260ff1660ff16815260200191505060405180910390f35b3480156100e757600080fd5b50610142600480360381019080803590602001908201803590602001908080601f0160208091040260200160405190810160405280939291908181526020018383808284378201915050505050509192919290505050610321565b6040518082815260200191505060405180910390f35b34801561016457600080fd5b506101bf600480360381019080803590602001908201803590602001908080601f016020809104026020016040519081016040528093929190818152602001838380828437820191505050505050919291929050505061032c565b604051808260ff1660ff16815260200191505060405180910390f35b3480156101e757600080fd5b50610242600480360381019080803590602001908201803590602001908080601f0160208091040260200160405190810160405280939291908181526020018383808284378201915050505050509192919290505050610467565b604051808273ffffffffffffffffffffffffffffffffffffffff1673ffffffffffffffffffffffffffffffffffffffff16815260200191505060405180910390f35b34801561029057600080fd5b506102eb600480360381019080803590602001908201803590602001908080601f016020809104026020016040519081016040528093929190818152602001838380828437820191505050505050919291929050505061047f565b6040518082815260200191505060405180910390f35b60006020528060005260406000206000915054906101000a900460ff1681565b600081519050919050565b60008060008091505b835182101561045b57838281518110151561034c57fe5b9060200101517f010000000000000000000000000000000000000000000000000000000000000090047f0100000000000000000000000000000000000000000000000000000000000000027f01000000000000000000000000000000000000000000000000000000000000009004905060f08160ff1614156103d15760019250610460565b60f18160ff1614156103e65760029250610460565b60f28160ff1614156103fb5760039250610460565b60f48160ff1614156104105760049250610460565b60ff8160ff1614156104255760059250610460565b60608160ff161015801561043d5750607f8160ff1611155b1561044e57605f810360ff16820191505b8180600101925050610335565b600092505b5050919050565b6000815160208301818101816000f092505050919050565b60008151600083019150509190505600a165627a7a7230582036c335c749a5440569aaa18d339b2d5a897d85116cad1bc7a746dcf9cde251ba0029",
  "source": "pragma solidity ^0.4.17;\n\ncontract Factory {\n\n    /*opCode -> jump size*/\n    mapping(byte => uint8) public opCodes;\n\n    // event LogFundsReceived(address sender, uint amount);\n    // event LogFundsSent(address receiver, uint amount);\n\n    // function() payable public {\n    //     LogFundsReceived(msg.sender, msg.value);\n    // }\n\n    function validate(bytes oCode) public view returns (uint8 err) {\n        for (uint256 i = 0; i < oCode.length; i ++) {\n            uint8 ins = uint8(oCode[i]);\n            // TODO: this also checks the swarm metadata, which is not actually\n            // meant to be executed. We can't just skip it, as it is possible\n            // to include code hidden in this metadata. We can either force\n            // developers to remove it before being entered as a procedure, or\n            // somehow try and prove that it is unreachable, which is possible\n            // but an extra cost we probably don't want.\n            //\n            // It is always possible for legitimate swarm metadata to have a\n            // jump destination which could be used to embed executable code.\n            // It is not generally possible to determine what is a legitmate\n            // swarm hash which just happens to contain a jump destination and\n            // what is malicious code.\n            if (ins == 0xf0) {return 1;} // CREATE\n            if (ins == 0xf1) {return 2;} // CALL\n            if (ins == 0xf2) {return 3;} // CALLCODE\n            if (ins == 0xf4) {return 4;} // DELEGATECALL\n            if (ins == 0xff) {return 5;} // SUICIDE\n\n            if (ins >= 0x60 && ins <= 0x7f) {\n                i += ins - 95;\n            }\n        }\n        return 0;\n    }\n\n    function codeLength(bytes oCode) pure public returns (uint len) {\n        assembly {\n            // Get Length\n            len := mload(oCode)\n        }\n    }\n\n    function codePosition(bytes oCode) pure public returns (uint code) {\n        assembly {\n            // Get Length\n            let len := mload(oCode)\n            // Get Code\n            code := add(oCode, 0x00)\n        }\n    }\n\n    // As 'createAndPay', but will pay no gas into the contract.\n    // Deploy to Contract\n    // Argument #1: The name (key) of the pocedure.\n    // Argument #2: The amount of gas to be payed into the new contract\n    //      on creation. Generally we do not want to do that, as we\n    //      don't want contracts to hold gas.\n    // Argument #3: The position of start of the code with an additional\n    //      offset (as determined above).\n    // Argument #4: The position of the end of the code\n    //      (start + length).\n    // Returns the address of the new contract. If gas is paid into the\n    // new contract, but the factory doesn't hold enough gas, the null\n    // address is returned.\n    function create(bytes oCode) public returns (address d) {\n        assembly {\n            // Get length of code\n            let len := mload(oCode)\n            // Get position of code.\n            let code := add(oCode, 0x20)\n\n            d := create(0, code, add(code, len))\n        }\n    }\n}\n",
  "sourcePath": "/mnt/c/Users/Raketa/Documents/Repos/beakeros/contracts/Factory.sol",
  "compiler": {
    "name": "solc",
    "version": "0.4.24+commit.e67f0147.Emscripten.clang"
  },
  "schemaVersion": "2.0.1",
  "updatedAt": "2018-09-17T13:43:44.366Z"
}