{
  "contractName": "Kernel",
  "abi": [
    {
      "constant": true,
      "inputs": [
        {
          "name": "",
          "type": "bytes1"
        }
      ],
      "name": "opCodes",
      "outputs": [
        {
          "name": "",
          "type": "uint8"
        }
      ],
      "payable": false,
      "stateMutability": "view",
      "type": "function"
    },
    {
      "constant": true,
      "inputs": [
        {
          "name": "oCode",
          "type": "bytes"
        }
      ],
      "name": "codeLength",
      "outputs": [
        {
          "name": "len",
          "type": "uint256"
        }
      ],
      "payable": false,
      "stateMutability": "pure",
      "type": "function"
    },
    {
      "constant": true,
      "inputs": [
        {
          "name": "procedureAddress",
          "type": "address"
        }
      ],
      "name": "validateContract",
      "outputs": [
        {
          "name": "",
          "type": "uint8"
        }
      ],
      "payable": false,
      "stateMutability": "view",
      "type": "function"
    },
    {
      "constant": true,
      "inputs": [
        {
          "name": "oCode",
          "type": "bytes"
        }
      ],
      "name": "validate",
      "outputs": [
        {
          "name": "err",
          "type": "uint8"
        }
      ],
      "payable": false,
      "stateMutability": "pure",
      "type": "function"
    },
    {
      "constant": true,
      "inputs": [
        {
          "name": "oCode",
          "type": "bytes"
        }
      ],
      "name": "codePosition",
      "outputs": [
        {
          "name": "code",
          "type": "uint256"
        }
      ],
      "payable": false,
      "stateMutability": "pure",
      "type": "function"
    },
    {
      "inputs": [],
      "payable": false,
      "stateMutability": "nonpayable",
      "type": "constructor"
    },
    {
      "payable": false,
      "stateMutability": "nonpayable",
      "type": "fallback"
    },
    {
      "anonymous": false,
      "inputs": [
        {
          "indexed": false,
          "name": "message",
          "type": "string"
        }
      ],
      "name": "KernelLog",
      "type": "event"
    },
    {
      "constant": true,
      "inputs": [],
      "name": "testGetter",
      "outputs": [
        {
          "name": "",
          "type": "uint256"
        }
      ],
      "payable": false,
      "stateMutability": "view",
      "type": "function"
    },
    {
      "constant": true,
      "inputs": [
        {
          "name": "addr",
          "type": "uint256"
        }
      ],
      "name": "anyTestGetter",
      "outputs": [
        {
          "name": "",
          "type": "uint256"
        }
      ],
      "payable": false,
      "stateMutability": "view",
      "type": "function"
    },
    {
      "constant": false,
      "inputs": [
        {
          "name": "value",
          "type": "uint256"
        }
      ],
      "name": "testSetter",
      "outputs": [],
      "payable": false,
      "stateMutability": "nonpayable",
      "type": "function"
    },
    {
      "constant": false,
      "inputs": [
        {
          "name": "key",
          "type": "bytes24"
        }
      ],
      "name": "setEntryProcedure",
      "outputs": [],
      "payable": false,
      "stateMutability": "nonpayable",
      "type": "function"
    },
    {
      "constant": false,
      "inputs": [
        {
          "name": "name",
          "type": "bytes24"
        },
        {
          "name": "procedureAddress",
          "type": "address"
        },
        {
          "name": "caps",
          "type": "uint256[]"
        }
      ],
      "name": "registerProcedure",
      "outputs": [
        {
          "name": "err",
          "type": "uint8"
        },
        {
          "name": "retAddress",
          "type": "address"
        }
      ],
      "payable": false,
      "stateMutability": "nonpayable",
      "type": "function"
    },
    {
      "constant": false,
      "inputs": [
        {
          "name": "name",
          "type": "bytes24"
        },
        {
          "name": "procedureAddress",
          "type": "address"
        },
        {
          "name": "caps",
          "type": "uint256[]"
        }
      ],
      "name": "registerAnyProcedure",
      "outputs": [
        {
          "name": "err",
          "type": "uint8"
        },
        {
          "name": "retAddress",
          "type": "address"
        }
      ],
      "payable": false,
      "stateMutability": "nonpayable",
      "type": "function"
    },
    {
      "constant": false,
      "inputs": [
        {
          "name": "name",
          "type": "bytes24"
        }
      ],
      "name": "deleteProcedure",
      "outputs": [
        {
          "name": "err",
          "type": "uint8"
        },
        {
          "name": "procedureAddress",
          "type": "address"
        }
      ],
      "payable": false,
      "stateMutability": "nonpayable",
      "type": "function"
    },
    {
      "constant": true,
      "inputs": [],
      "name": "listProcedures",
      "outputs": [
        {
          "name": "",
          "type": "bytes24[]"
        }
      ],
      "payable": false,
      "stateMutability": "view",
      "type": "function"
    },
    {
      "constant": true,
      "inputs": [],
      "name": "returnRawProcedureTable",
      "outputs": [
        {
          "name": "",
          "type": "uint256[]"
        }
      ],
      "payable": false,
      "stateMutability": "view",
      "type": "function"
    },
    {
      "constant": true,
      "inputs": [],
      "name": "returnProcedureTable",
      "outputs": [
        {
          "name": "",
          "type": "uint256[]"
        }
      ],
      "payable": false,
      "stateMutability": "view",
      "type": "function"
    },
    {
      "constant": true,
      "inputs": [
        {
          "name": "name",
          "type": "bytes24"
        }
      ],
      "name": "getProcedure",
      "outputs": [
        {
          "name": "",
          "type": "address"
        }
      ],
      "payable": false,
      "stateMutability": "view",
      "type": "function"
    },
    {
      "constant": false,
      "inputs": [
        {
          "name": "name",
          "type": "bytes24"
        },
        {
          "name": "fselector",
          "type": "string"
        },
        {
          "name": "payload",
          "type": "bytes"
        },
        {
          "name": "retSize",
          "type": "uint256"
        }
      ],
      "name": "executeProcedure",
      "outputs": [
        {
          "name": "retVal",
          "type": "uint256"
        }
      ],
      "payable": false,
      "stateMutability": "nonpayable",
      "type": "function"
    }
  ],
  "bytecode": "0x608060405234801561001057600080fd5b506003618000556132f2806100266000396000f3006080604052600436106100f1576000357c0100000000000000000000000000000000000000000000000000000000900463ffffffff1680630133beb0146107db5780630866a87d14610806578063087536ec1461086f5780630ce535e8146108ec5780631cbd0f391461096457806320fc0a951461099c5780635acf061a14610a215780636178db0f14610a7e5780637cd5355b14610aea5780637e7e884114610bd2578063be0159a414610c3e578063c16e50ef14610d26578063c5ce720414610da9578063dfe4399214610dd6578063e03033b114610e53578063e34bf5c514610e94578063e912d19514610f00575b3480156100fd57600080fd5b506000806000806000806000806000806000606060008061011c610fe2565b1561015f5761015e336000368080601f016020809104026020016040519081016040528093929190818152602001838380828437820191505050505050611019565b5b6000366000818110151561016f57fe5b905001357f010000000000000000000000000000000000000000000000000000000000000090047f0100000000000000000000000000000000000000000000000000000000000000027effffffffffffffffffffffffffffffffffffffffffffffffffffffffffffff19167f010000000000000000000000000000000000000000000000000000000000000090049b5060008c60ff161415610210576107cb565b60038c60ff161415610420576102266001611091565b9c506801000000000000000061023c6021611091565b81151561024557fe5b0468010000000000000000029a5061025d6041611091565b995060616000369050111561027b5760616000369050039850610280565b600098505b6102bb600360009054906101000a900468010000000000000000026801000000000000000090048c8f600161116b909392919063ffffffff16565b9d506102d18b600161128e90919063ffffffff16565b9750600360009054906101000a9004680100000000000000000296508a600360006101000a81548177ffffffffffffffffffffffffffffffffffffffffffffffff021916908368010000000000000000900402179055508d156104105761034f565b6000602082066020038201604051915080820160405250919050565b610395565b6000602082066020038201604051915080156103895760005b81811415156103875760008184015260208101905061036d565b505b80820160405250919050565b6000808a156103b2576103a78b610333565b91508a606183378a90505b8a15156103c25760009150600090505b6103cb8c610354565b8c8183858e5af460086101000a8b046003558015156103fa576103ee6020610333565b82516016018152602081fd5b6001811415610407578d82f35b5050505061041b565b602160005260206000fd5b6107ca565b60078c60ff1614156104a6576104366001611091565b9c506104426021611091565b955061044e6041611091565b945061048b600360009054906101000a90046801000000000000000002680100000000000000009004878f60016112ba909392919063ffffffff16565b9d508d1561049b57848655600080f35b601660005260206000f35b60098c60ff1614156107bf576104bc6001611091565b9c506104c86021611091565b9350836040519080825280602002602001820160405280156104f95781602001602082028038833980820191505090505b509250600091505b838210156105515761051b82600201602002600101611091565b600102838381518110151561052c57fe5b9060200190602002019060001916908160001916815250508180600101925050610501565b61056384600201602002600101611091565b60010290506105a3600360009054906101000a90046801000000000000000002680100000000000000009004848f60016113cf909392919063ffffffff16565b9d508d156107b45760008414156105d7578060405180826000191660001916815260200191505060405180910390a0600080f35b6001841415610620578260008151811015156105ef57fe5b90602001906020020151600019168160405180826000191660001916815260200191505060405180910390a1600080f35b60028414156106865782600181518110151561063857fe5b906020019060200201516000191683600081518110151561065557fe5b90602001906020020151600019168260405180826000191660001916815260200191505060405180910390a2600080f35b60038414156107095782600281518110151561069e57fe5b90602001906020020151600019168360018151811015156106bb57fe5b90602001906020020151600019168460008151811015156106d857fe5b90602001906020020151600019168360405180826000191660001916815260200191505060405180910390a3600080f35b60048414156107a95782600381518110151561072157fe5b906020019060200201516000191683600281518110151561073e57fe5b906020019060200201516000191684600181518110151561075b57fe5b906020019060200201516000191685600081518110151561077857fe5b90602001906020020151600019168460405180826000191660001916815260200191505060405180910390a4600080f35b602c60005260206000fd5b602160005260206000fd5b600560b053600160b0a05b5b5050505050505050505050505050005b3480156107e757600080fd5b506107f06115ac565b6040518082815260200191505060405180910390f35b34801561081257600080fd5b5061085360048036038101908080357effffffffffffffffffffffffffffffffffffffffffffffffffffffffffffff191690602001909291905050506115bb565b604051808260ff1660ff16815260200191505060405180910390f35b34801561087b57600080fd5b506108d6600480360381019080803590602001908201803590602001908080601f01602080910402602001604051908101604052809392919081815260200183838082843782019150505050505091929192905050506115db565b6040518082815260200191505060405180910390f35b3480156108f857600080fd5b50610922600480360381019080803567ffffffffffffffff191690602001909291905050506115e6565b604051808273ffffffffffffffffffffffffffffffffffffffff1673ffffffffffffffffffffffffffffffffffffffff16815260200191505060405180910390f35b34801561097057600080fd5b5061099a600480360381019080803567ffffffffffffffff19169060200190929190505050611603565b005b3480156109a857600080fd5b506109d2600480360381019080803567ffffffffffffffff19169060200190929190505050611641565b604051808360ff1660ff1681526020018273ffffffffffffffffffffffffffffffffffffffff1673ffffffffffffffffffffffffffffffffffffffff1681526020019250505060405180910390f35b348015610a2d57600080fd5b50610a62600480360381019080803573ffffffffffffffffffffffffffffffffffffffff16906020019092919050505061170b565b604051808260ff1660ff16815260200191505060405180910390f35b348015610a8a57600080fd5b50610a9361176d565b6040518080602001828103825283818151815260200191508051906020019060200280838360005b83811015610ad6578082015181840152602081019050610abb565b505050509050019250505060405180910390f35b348015610af657600080fd5b50610b83600480360381019080803567ffffffffffffffff19169060200190929190803573ffffffffffffffffffffffffffffffffffffffff1690602001909291908035906020019082018035906020019080806020026020016040519081016040528093929190818152602001838360200280828437820191505050505050919291929050505061177e565b604051808360ff1660ff1681526020018273ffffffffffffffffffffffffffffffffffffffff1673ffffffffffffffffffffffffffffffffffffffff1681526020019250505060405180910390f35b348015610bde57600080fd5b50610be761181f565b6040518080602001828103825283818151815260200191508051906020019060200280838360005b83811015610c2a578082015181840152602081019050610c0f565b505050509050019250505060405180910390f35b348015610c4a57600080fd5b50610cd7600480360381019080803567ffffffffffffffff19169060200190929190803573ffffffffffffffffffffffffffffffffffffffff16906020019092919080359060200190820180359060200190808060200260200160405190810160405280939291908181526020018383602002808284378201915050505050509192919290505050611830565b604051808360ff1660ff1681526020018273ffffffffffffffffffffffffffffffffffffffff1673ffffffffffffffffffffffffffffffffffffffff1681526020019250505060405180910390f35b348015610d3257600080fd5b50610d8d600480360381019080803590602001908201803590602001908080601f01602080910402602001604051908101604052809392919081815260200183838082843782019150505050505091929192905050506118a7565b604051808260ff1660ff16815260200191505060405180910390f35b348015610db557600080fd5b50610dd460048036038101908080359060200190929190505050611d5c565b005b348015610de257600080fd5b50610e3d600480360381019080803590602001908201803590602001908080601f0160208091040260200160405190810160405280939291908181526020018383808284378201915050505050509192919290505050611d64565b6040518082815260200191505060405180910390f35b348015610e5f57600080fd5b50610e7e60048036038101908080359060200190929190505050611d74565b6040518082815260200191505060405180910390f35b348015610ea057600080fd5b50610ea9611d81565b6040518080602001828103825283818151815260200191508051906020019060200280838360005b83811015610eec578082015181840152602081019050610ed1565b505050509050019250505060405180910390f35b348015610f0c57600080fd5b50610fcc600480360381019080803567ffffffffffffffff19169060200190929190803590602001908201803590602001908080601f0160208091040260200160405190810160405280939291908181526020018383808284378201915050505050509192919290803590602001908201803590602001908080601f016020809104026020016040519081016040528093929190818152602001838380828437820191505050505050919291929080359060200190929190505050611d92565b6040518082815260200191505060405180910390f35b6000806801000000000000000002600360009054906101000a9004680100000000000000000267ffffffffffffffff191614905090565b60008060209150611086600460009054906101000a9004680100000000000000000260206040519081016040528060008152506000368080601f01602080910402602001604051908101604052809392919081815260200183838082843782019150505050505085611d92565b905080600052816000f35b6000806000809150600090505b6020811015611161576008829060020a02915060003682860181811015156110c257fe5b905001357f010000000000000000000000000000000000000000000000000000000000000090047f0100000000000000000000000000000000000000000000000000000000000000027effffffffffffffffffffffffffffffffffffffffffffffffffffffffffffff19167f0100000000000000000000000000000000000000000000000000000000000000900482179150808060010191505061109e565b8192505050919050565b6000611175613251565b61117d61328c565b600061118887611fdd565b9250600083604001515114806111a5575060018360400151510385115b156111b35760009350611283565b8260400151858151811015156111c557fe5b9060200190602002015191506003826000015160ff161415156111eb5760009350611283565b600082602001515114156112025760019350611283565b600090505b816020015151811015611282578567ffffffffffffffff19166801000000000000000083602001518381518110151561123c57fe5b9060200190602002015181151561124f57fe5b04680100000000000000000267ffffffffffffffff191614156112755760019350611283565b8080600101915050611207565b5b505050949350505050565b60006112b2600060016112ac8568010000000000000000900461226c565b0161233f565b905092915050565b60006112c4613251565b6112cc61328c565b60008060006112da89611fdd565b9450600085604001515114806112f7575060018560400151510387115b1561130557600095506113c2565b84604001518781518110151561131757fe5b906020019060200201519350836000015160ff16925060078314151561134057600095506113c2565b6002846020015151101561135757600095506113c2565b8360200151600081518110151561136a57fe5b9060200190602002015191508360200151600181518110151561138957fe5b9060200190602002015190506007831480156113a55750818810155b80156113b357508082018811155b156113c157600195506113c2565b5b5050505050949350505050565b60006113d9613251565b6113e161328c565b60008060606000806113f28b611fdd565b96506000876040015151148061140f575060018760400151510389115b1561141d576000975061159d565b86604001518981518110151561142f57fe5b906020019060200201519550856000015160ff169450600985141515611458576000975061159d565b6001866020015151101561146f576000975061159d565b8560200151600081518110151561148257fe5b906020019060200201519350836040519080825280602002602001820160405280156114bd5781602001602082028038833980820191505090505b509250600091505b83821015611522578560200151600183018151811015156114e257fe5b9060200190602002015160010283838151811015156114fd57fe5b90602001906020020190600019169081600019168152505081806001019250506114c5565b82518a511015611535576000975061159d565b600090505b825181101561159857828181518110151561155157fe5b90602001906020020151600019168a8281518110151561156d57fe5b906020019060200201516000191614151561158b576000975061159d565b808060010191505061153a565b600197505b50505050505050949350505050565b60006180005460005260206000f35b60006020528060005260406000206000915054906101000a900460ff1681565b600081519050919050565b60006115fc82600161128e90919063ffffffff16565b9050919050565b80600460006101000a81548177ffffffffffffffffffffffffffffffffffffffffffffffff0219169083680100000000000000009004021790555050565b6000806000807f01000000000000000000000000000000000000000000000000000000000000000284600060188110151561167857fe5b1a7f0100000000000000000000000000000000000000000000000000000000000000027effffffffffffffffffffffffffffffffffffffffffffffffffffffffffffff191614156116cc5760019250611705565b6116e084600161128e90919063ffffffff16565b91506116f684600161235990919063ffffffff16565b905080151561170457600292505b5b50915091565b600080606060009150833b9150816040519080825280601f01601f19166020018201604052801561174b5781602001602082028038833980820191505090505b509050818152833b600060208301863c611764816118a7565b92505050919050565b60606117796001612487565b905090565b600080600061178c8561170b565b60ff1614156117a9576117a0858585611830565b91509150611817565b6040517f08c379a00000000000000000000000000000000000000000000000000000000081526004018080602001828103825260208152602001807f70726f63656475726520636f6465206661696c65642076616c69646174696f6e81525060200191505060405180910390fd5b935093915050565b606061182b6001612889565b905090565b60008060008068010000000000000000028667ffffffffffffffff1916141561185c576001925061189e565b61187086600161298a90919063ffffffff16565b90508015611881576003925061189e565b61189986868660016129b5909392919063ffffffff16565b508491505b50935093915050565b600080600080600092505b8451831015611d4f5784838151811015156118c957fe5b9060200101517f010000000000000000000000000000000000000000000000000000000000000090047f0100000000000000000000000000000000000000000000000000000000000000027f01000000000000000000000000000000000000000000000000000000000000009004915060008260ff16101580156119515750600b8260ff1611155b1561195b57611d42565b60108260ff16101580156119735750601a8260ff1611155b1561197d57611d42565b60208260ff16141561198e57611d42565b60308260ff16101580156119a65750603e8260ff1611155b156119b057611d42565b60408260ff16101580156119c8575060458260ff1611155b156119d257611d42565b60508260ff16101580156119ea575060538260ff1611155b156119f457611d42565b60568260ff1610158015611a0c5750605b8260ff1611155b15611a1657611d42565b60808260ff1610158015611a2e5750608f8260ff1611155b15611a3857611d42565b60908260ff1610158015611a505750609f8260ff1611155b15611a5a57611d42565b60f38260ff161415611a6b57611d42565b60fa8260ff1610158015611a83575060fe8260ff1611155b15611a8d57611d42565b60608260ff1610158015611aa55750607f8260ff1611155b15611aba57605f820360ff1683019250611d42565b60548260ff161415611acb57611d42565b60558260ff161415611ae05760029350611d54565b60a08260ff161415611af55760039350611d54565b60a18260ff161415611b0a5760049350611d54565b60a28260ff161415611b1f5760059350611d54565b60a38260ff161415611b345760069350611d54565b60a48260ff161415611b495760079350611d54565b60f08260ff161415611b5e5760089350611d54565b60f18260ff161415611b735760099350611d54565b60f28260ff161415611b8857600a9350611d54565b60f48260ff161415611d0f57600090506002831015611baa5760009050611cfb565b605a7f0100000000000000000000000000000000000000000000000000000000000000028560018503815181101515611bdf57fe5b9060200101517f010000000000000000000000000000000000000000000000000000000000000090047f0100000000000000000000000000000000000000000000000000000000000000027effffffffffffffffffffffffffffffffffffffffffffffffffffffffffffff1916148015611cf8575060337f0100000000000000000000000000000000000000000000000000000000000000028560028503815181101515611c8957fe5b9060200101517f010000000000000000000000000000000000000000000000000000000000000090047f0100000000000000000000000000000000000000000000000000000000000000027effffffffffffffffffffffffffffffffffffffffffffffffffffffffffffff1916145b90505b8015611d0657611d42565b600b9350611d54565b60f58260ff161415611d2457600c9350611d54565b60ff8260ff161415611d3957600d9350611d54565b60649350611d54565b82806001019350506118b2565b600093505b505050919050565b806180005550565b6000815160008301915050919050565b6000815460005260206000f35b6060611d8d6001612aa4565b905090565b60008060008060007f010000000000000000000000000000000000000000000000000000000000000002886000601881101515611dcb57fe5b1a7f0100000000000000000000000000000000000000000000000000000000000000027effffffffffffffffffffffffffffffffffffffffffffffffffffffffffffff19161415611e1f5760019350611fd2565b611e3388600161298a90919063ffffffff16565b9250821515611e455760039350611fd2565b87600360006101000a81548177ffffffffffffffffffffffffffffffffffffffffffffffff02191690836801000000000000000090040217905550611e9488600161128e90919063ffffffff16565b915060009050611ebb565b6000602082066020038201604051915080820160405250919050565b611f01565b600060208206602003820160405191508015611ef55760005b8181141515611ef357600081840152602081019050611ed9565b505b80820160405250919050565b6000875115611f0f57600490505b865181019050806020811015611f2457602090505b611f2d81611e9f565b895115611f3e57895160208b012081525b8851600082018b5115611f52576004830190505b8115611f76575b8115611f7557818b015160018303820153600182039150611f59565b5b89611f8081611ec0565b8181888760008d5af2975060006003556000881415611fb157611fa36020611e9f565b815162035b60018152602081f35b6001881415611fbe578181f35b50505050505050801515611fd157605593505b5b505050949350505050565b611fe5613251565b6000806000806000806000611ff98961226c565b965061200660008861233f565b886000019060ff16908160ff168152505061202560006001890161233f565b886020019073ffffffffffffffffffffffffffffffffffffffff16908173ffffffffffffffffffffffffffffffffffffffff168152505061206a60006002890161233f565b9550856040519080825280602002602001820160405280156120a657816020015b6120936132a9565b81526020019060019003908161208b5790505b50886040018190525060009450600093505b60fd847effffffffffffffffffffffffffffffffffffffffffffffffffffffffffffff1610156122605785851015156120f057612260565b61210060008560038a010161233f565b9250612115600060018660038b01010161233f565b88604001518681518110151561212757fe5b906020019060200201516000019060ff16908160ff1681525050600183039150816040519080825280602002602001820160405280156121765781602001602082028038833980820191505090505b5088604001518681518110151561218957fe5b9060200190602002015160200181905250600090505b81817effffffffffffffffffffffffffffffffffffffffffffffffffffffffffffff161015612246576121dd60008260028760038c0101010161233f565b8860400151868151811015156121ef57fe5b9060200190602002015160200151827effffffffffffffffffffffffffffffffffffffffffffffffffffffffffffff1681518110151561222b57fe5b9060200190602002018181525050808060010191505061219f565b8284019350848060010195505083806001019450506120b8565b50505050505050919050565b60008060405180807f70726f636564757265506f696e7465720000000000000000000000000000000081525060100190506040518091039020905060088377ffffffffffffffffffffffffffffffffffffffffffffffff1660c083600190047dffffffffffffffffffffffffffffffffffffffffffffffffffffffffffff169060020a02177dffffffffffffffffffffffffffffffffffffffffffffffffffffffffffff167effffffffffffffffffffffffffffffffffffffffffffffffffffffffffffff169060020a02915050919050565b60008061234c8484612c46565b9050805491505092915050565b6000612363613251565b60008060008060008060006123838a680100000000000000009004611fdd565b97506000886000015160ff16141561239e5760009850612479565b6123a6612c7e565b96506123b360008861233f565b955085886000015160ff16111515612478576123da8a68010000000000000000900461226c565b94506123e98860000151612d04565b93506123f760018703612d04565b925061240460008461233f565b915061240f8261226c565b90506124246000828a6000015160ff16612d94565b61244a6000858477ffffffffffffffffffffffffffffffffffffffffffffffff16612d94565b6124576000846000612d94565b61246085612dab565b61246f60008860018903612d94565b60019850612479565b5b505050505050505092915050565b60608060006060600080600061249b613251565b60008060006124a98c612889565b99508951985061010089026040519080825280602002602001820160405280156124e25781602001602082028038833980820191505090505b50975060009650600095505b88867effffffffffffffffffffffffffffffffffffffffffffffffffffffffffffff1610156128775789867effffffffffffffffffffffffffffffffffffffffffffffffffffffffffffff1681518110151561254657fe5b90602001906020020151680100000000000000009004945061256785611fdd565b93508477ffffffffffffffffffffffffffffffffffffffffffffffff16888881518110151561259257fe5b90602001906020020181815250508680600101975050836000015160ff1688888151811015156125be57fe5b90602001906020020181815250508680600101975050836020015173ffffffffffffffffffffffffffffffffffffffff1688888151811015156125fd57fe5b90602001906020020181815250508680600101975050836040015151888881518110151561262757fe5b90602001906020020181815250508680600101975050600092505b836040015151837effffffffffffffffffffffffffffffffffffffffffffffffffffffffffffff16101561286a5760018460400151847effffffffffffffffffffffffffffffffffffffffffffffffffffffffffffff168151811015156126a557fe5b9060200190602002015160200151510191508188888151811015156126c657fe5b906020019060200201818152505086806001019750508360400151837effffffffffffffffffffffffffffffffffffffffffffffffffffffffffffff1681518110151561270f57fe5b906020019060200201516000015160ff16888881518110151561272e57fe5b90602001906020020181815250508680600101975050600090505b8360400151837effffffffffffffffffffffffffffffffffffffffffffffffffffffffffffff1681518110151561277c57fe5b906020019060200201516020015151817effffffffffffffffffffffffffffffffffffffffffffffffffffffffffffff16101561285d578360400151837effffffffffffffffffffffffffffffffffffffffffffffffffffffffffffff168151811015156127e657fe5b9060200190602002015160200151817effffffffffffffffffffffffffffffffffffffffffffffffffffffffffffff1681518110151561282257fe5b90602001906020020151888881518110151561283a57fe5b906020019060200201818152505086806001019750508080600101915050612749565b8280600101935050612642565b85806001019650506124ee565b879a5050505050505050505050919050565b60606000806000612898612c7e565b92506128a560008461233f565b9150816040519080825280602002602001820160405280156128d65781602001602082028038833980820191505090505b509350600090505b81817effffffffffffffffffffffffffffffffffffffffffffffffffffffffffffff16101561298257612917600060028386010161233f565b680100000000000000000284827effffffffffffffffffffffffffffffffffffffffffffffffffffffffffffff1681518110151561295157fe5b9060200190602002019067ffffffffffffffff1916908167ffffffffffffffff1916815250506001810190506128de565b505050919050565b6000806129ac60006129a78568010000000000000000900461226c565b61233f565b11905092915050565b60006129bf613251565b6000806129d787680100000000000000009004611fdd565b925085836020019073ffffffffffffffffffffffffffffffffffffffff16908173ffffffffffffffffffffffffffffffffffffffff1681525050608085511115612a2057600080fd5b612a2a8386612dcb565b6000836000015160ff161115612a435760019350612a99565b612a4b612c7e565b9150612a5860008361233f565b905060018101836000019060ff16908160ff1681525050612a7e60008360018401612d94565b612a948388680100000000000000009004612fc2565b600093505b505050949350505050565b606080600060606000806000806000612abc8a612889565b9750875196506101018702604051908082528060200260200182016040528015612af55781602001602082028038833980820191505090505b50955060009450600093505b86847effffffffffffffffffffffffffffffffffffffffffffffffffffffffffffff161015612c365787847effffffffffffffffffffffffffffffffffffffffffffffffffffffffffffff16815181101515612b5957fe5b906020019060200201516801000000000000000090049250612b7a8361226c565b91508277ffffffffffffffffffffffffffffffffffffffffffffffff168686815181101515612ba557fe5b90602001906020020181815250508480600101955050600090505b610100817effffffffffffffffffffffffffffffffffffffffffffffffffffffffffffff161015612c2957612bf8600082840161233f565b8686815181101515612c0657fe5b906020019060200201818152505084806001019550508080600101915050612bc0565b8380600101945050612b01565b8598505050505050505050919050565b600060f88360ff169060020a02827effffffffffffffffffffffffffffffffffffffffffffffffffffffffffffff1617905092915050565b60008060405180807f6b6579506f696e74657200000000000000000000000000000000000000000000815250600a0190506040518091039020905060f081780100000000000000000000000000000000000000000000000090047effffffffffffffffffffffffffffffffffffffffffffffffffffffffffffff169060020a0291505090565b60008060405180807f6b6579506f696e74657200000000000000000000000000000000000000000000815250600a019050604051809103902090508260ff16600160f083780100000000000000000000000000000000000000000000000090047effffffffffffffffffffffffffffffffffffffffffffffffffffffffffffff169060020a020101915050919050565b6000612da08484612c46565b905081815550505050565b612db86000826000612d94565b612dc86000600183016000612d94565b50565b60008060008060008060009550600094505b8651851015612e1a578685815181101515612df457fe5b906020019060200201519350838501945085806001019650508480600101955050612ddd565b85604051908082528060200260200182016040528015612e5457816020015b612e416132a9565b815260200190600190039081612e395790505b50886040018190525060009250600094505b8651851015612fb8578685815181101515612e7d57fe5b906020019060200201519350848060010195505060018403915081604051908082528060200260200182016040528015612ec65781602001602082028038833980820191505090505b50886040015184815181101515612ed957fe5b90602001906020020151602001819052508685815181101515612ef857fe5b90602001906020020151886040015184815181101515612f1457fe5b906020019060200201516000019060ff16908160ff16815250508480600101955050600090505b81811015612fab578685815181101515612f5157fe5b90602001906020020151886040015184815181101515612f6d57fe5b906020019060200201516020015182815181101515612f8857fe5b906020019060200201818152505084806001019550508080600101915050612f3b565b8280600101935050612e66565b5050505050505050565b600080612fd28460000151612d04565b9150612ffa6000838577ffffffffffffffffffffffffffffffffffffffffffffffff16612d94565b6130038361226c565b905061301184600083613017565b50505050565b6130298282856000015160ff16612d94565b6130518260018301856020015173ffffffffffffffffffffffffffffffffffffffff16612d94565b6130648260028301856040015151612d94565b61306f838383613074565b505050565b6000806000806000809450600093505b876040015151847effffffffffffffffffffffffffffffffffffffffffffffffffffffffffffff161015613247578760400151847effffffffffffffffffffffffffffffffffffffffffffffffffffffffffffff168151811015156130e557fe5b906020019060200201516020015151925060018301915061310c8786600389010184612d94565b8480600101955050613167878660038901018a60400151877effffffffffffffffffffffffffffffffffffffffffffffffffffffffffffff1681518110151561315157fe5b906020019060200201516000015160ff16612d94565b8480600101955050600090505b82817effffffffffffffffffffffffffffffffffffffffffffffffffffffffffffff16101561323a57613225878660038901018a60400151877effffffffffffffffffffffffffffffffffffffffffffffffffffffffffffff168151811015156131da57fe5b9060200190602002015160200151847effffffffffffffffffffffffffffffffffffffffffffffffffffffffffffff1681518110151561321657fe5b90602001906020020151612d94565b84806001019550508080600101915050613174565b8380600101945050613084565b5050505050505050565b606060405190810160405280600060ff168152602001600073ffffffffffffffffffffffffffffffffffffffff168152602001606081525090565b6040805190810160405280600060ff168152602001606081525090565b6040805190810160405280600060ff1681526020016060815250905600a165627a7a72305820d76c08724a90134f4f4847d420cf13eafc381635dd99fdb8bdeb403d2ce7b97b0029",
  "source": "pragma solidity ^0.4.17;\n\nimport \"./Factory.sol\";\nimport \"./ProcedureTable.sol\";\n\nlibrary WhatIsMyAddress {\n    function get() public view returns (address) {\n        return msg.sender;\n    }\n}\n\ncontract Kernel is Factory {\n    event KernelLog(string message);\n    using ProcedureTable for ProcedureTable.Self;\n    ProcedureTable.Self procedures;\n    address kernelAddress;\n    bytes24 currentProcedure;\n    bytes24 entryProcedure;\n\n    struct Process {\n        // Equal to the index of the key of this item in keys, plus 1.\n        uint8 keyIndex;\n        address location;\n    }\n\n    constructor() public {\n        // kernelAddress = WhatIsMyAddress.get();\n        // This is an example kernel global variable for testing.\n        assembly {\n            sstore(0x8000,3)\n        }\n    }\n\n    function testGetter() public view returns(uint256) {\n        assembly {\n            mstore(0,sload(0x8000))\n            return(0,0x20)\n        }\n    }\n\n    function anyTestGetter(uint256 addr) public view returns(uint256) {\n        assembly {\n            mstore(0,sload(addr))\n            return(0,0x20)\n        }\n    }\n\n    function testSetter(uint256 value) public {\n        assembly {\n            sstore(0x8000,value)\n        }\n    }\n\n    function parse32ByteValue(uint256 startOffset) pure internal returns (uint256) {\n        uint256 value = 0;\n        for (uint256 i = 0; i < 32; i++) {\n            value = value << 8;\n            value = value | uint256(msg.data[startOffset+i]);\n        }\n        return value;\n    }\n\n    function setEntryProcedure(bytes24 key) public {\n        entryProcedure = key;\n    }\n\n    // Check if a transaction is external.\n    function isExternal() internal view returns (bool) {\n        // If the current transaction is from the procedure we are executing,\n        // then it is a systemcall. Otherwise it is an external transaction.\n        // We have in storage a value (currentProcedure) which states which\n        // procedure the kernel is currently executing. If we have this value\n        // then something is running, so it must be an internal transaction.\n        // If it is empty, it means we are not executing anything, and it is an\n        // external transaction.\n\n        // While the kernel is executing a procedure, nothing else can run\n        // across the whole blockchain, therefore we must be receiving a\n        // transaction from the procedure set in \"currentProcedure\"\n\n        // TODO: we will need to reserve a value for \"not executing anything\"\n        // If the transaction is from this procedure...\n        return (currentProcedure == 0);\n\n    }\n\n    // This is what we execute when we receive an external transaction.\n    function callGuardProcedure(address /* sender */, bytes /* data */) internal {\n        // TODO: we need to pass through the sender somehow\n        uint256 retSize = 32;\n        uint256 retVal = executeProcedure(entryProcedure, \"\", msg.data, retSize);\n        assembly {\n            mstore(0,retVal)\n            return(0,retSize)\n        }\n    }\n\n    // This is the fallback function which is used to handle system calls. This\n    // is only called if the other functions fail.\n    function() public {\n        bool cap;\n        uint256 capIndex;\n        // This is the entry point for the kernel\n\n        // If it is an external account, we forward it straight to the init\n        // procedure. We currently shouldn't reach this point, as we usually use\n        // \"executeProcedure\"\n        if (isExternal()) {\n            callGuardProcedure(msg.sender, msg.data);\n        }\n\n        // Parse the system call\n        uint8 sysCallCapType = uint8(msg.data[0]);\n\n        // 0x00 - not a syscall\n        // 0x01 - read syscall\n        // 0x03 - exec syscall\n        // 0x07 - write syscall\n        // 0x09 - log syscall\n\n        // log1(bytes32(currentProcedure), bytes32(\"current-procedure\"));\n\n        // Here we decode the system call (if there is one)\n        if (sysCallCapType == 0) {\n            // non-syscall case\n        } else if (sysCallCapType == 0x03) {\n            // This is a call system call\n            // parse a 32-byte value at offset 1 (offset 0 is the capType byte)\n            capIndex = parse32ByteValue(1);\n            // parse a 32-byte value at offset 1 (offset 0 is the capType byte,\n            // offset 1 is the capIndex (32 bytes)\n            // We also perform a shift as this is 24 byte value, not a 32 byte\n            // value\n            bytes24 procedureKey = bytes24(parse32ByteValue(1+32)/0x10000000000000000);\n            uint256 returnLength = uint256(parse32ByteValue(1+32*2));\n            uint256 dataLength;\n            // log1(bytes32(msg.data.length), bytes32(\"msg.data.length\"));\n            if (msg.data.length > (1+3*32)) {\n                dataLength = msg.data.length - (1+3*32);\n            } else {\n                dataLength = 0;\n            }\n            cap = procedures.checkCallCapability(uint192(currentProcedure), procedureKey, capIndex);\n            address procedureAddress = procedures.get(procedureKey);\n            // Note the procedure we are currently running, we will put this\n            // back into the \"currentProcedure\" after we have finished the call.\n            bytes24 previousProcedure = currentProcedure;\n            // We set the value for the current procedure in the kernel so that\n            // it knows which procedure it is executing (this is important for\n            // looking up capabilities).\n            currentProcedure = procedureKey;\n            // log1(bytes32(procedureKey),bytes32(\"calling\"));\n            if (cap) {\n                // log1(bytes32(\"permitted\"),bytes32(\"call-cap\"));\n                assembly {\n                    function malloc(size) -> result {\n                        // align to 32-byte words\n                        let rsize := add(size,sub(32,mod(size,32)))\n                        // get the current free mem location\n                        result :=  mload(0x40)\n                        // Bump the value of 0x40 so that it holds the next\n                        // available memory location.\n                        mstore(0x40,add(result,rsize))\n                    }\n\n                    function mallocZero(size) -> result {\n                        // align to 32-byte words\n                        let rsize := add(size,sub(32,mod(size,32)))\n                        // get the current free mem location\n                        result :=  mload(0x40)\n                        // zero-out the memory\n                        // if there are some bytes to be allocated (rsize is not zero)\n                        if rsize {\n                            // loop through the address and zero them\n                            for { let n := 0 } iszero(eq(n, rsize)) { n := add(n, 32) } {\n                                mstore(add(result,n),0)\n                            }\n\n                        }\n                        // Bump the value of 0x40 so that it holds the next\n                        // available memory location.\n                        mstore(0x40,add(result,rsize))\n                    }\n\n                    // Retrieve the address of new available memory from address 0x40\n                    // we will use this as the start of the input (ins)\n                    let ins\n                    let inl\n                    if dataLength {\n                        // If there is any data associated with this procedure\n                        // call (this inlcudes the data such as a function\n                        // selector) we need to set that as the input data to\n                        // the delegatecall.\n                        // First we must allocate some memory.\n                        ins :=  malloc(dataLength)\n                        // Then we store that data at this allocated memory\n                        // location\n                        calldatacopy(ins, 97, dataLength)\n                        inl := dataLength\n                    }\n                    if iszero(dataLength) {\n                        // If there is not data to be sent we just set the\n                        // location and length of the input data to zero. The\n                        // location doesn't actually matter as long the length\n                        // is zero.\n                        ins := 0\n                        inl := 0\n                    }\n                    let retLoc := mallocZero(returnLength)\n                    let status := delegatecall(\n                        // The gas we are budgeting, which is always all the\n                        // available gas\n                        gas,\n                        // The address for the chosen procedure which we\n                        // obtained earlier\n                        procedureAddress,\n                        // The starting memory offset of the innput data\n                        ins,\n                        // The length of the input data\n                        inl,\n                        // The starting memory offset to place the output data\n                        retLoc,\n                        // The length of the output data\n                        returnLength)\n                    // We need to restore the previous procedure as the current\n                    // procedure, this can simply be on the stack\n                    sstore(currentProcedure_slot,div(previousProcedure,exp(0x100,8)))\n                    if iszero(status) {\n                        let errStore := malloc(0x20)\n                        mstore(errStore,add(22,mload(retLoc)))\n                        revert(errStore,0x20)\n                    }\n                    if eq(status,1) {\n                        return(retLoc,returnLength)\n                    }\n                }\n            } else {\n                // log1(bytes32(\"not-permitted\"),bytes32(\"call-cap\"));\n                assembly {\n                    // 33 means the capability was rejected\n                    mstore(0,33)\n                    revert(0,0x20)\n                }\n            }\n        } else if (sysCallCapType == 0x07) {\n            // This is a store system call\n            // Here we have established that we are processing a write call and\n            // we must destructure the necessary values.\n            capIndex = parse32ByteValue(1);\n            uint256 writeAddress = parse32ByteValue(1+32*1);\n            uint256 writeValue = parse32ByteValue(1+32*2);\n            cap = procedures.checkWriteCapability(uint192(currentProcedure), writeAddress, capIndex);\n            if (cap) {\n                assembly {\n                    sstore(writeAddress, writeValue)\n                    // We don't need to return anything\n                    return(0,0)\n                }\n            } else {\n                assembly {\n                    mstore(0,22)\n                    return(0,0x20)\n                }\n            }\n        } else if (sysCallCapType == 0x09) {\n            // This is a log system call\n            // Here we have established that we are processing a write call and\n            // we must destructure the necessary values.\n            capIndex = parse32ByteValue(1);\n            uint256 nTopics = parse32ByteValue(1+32*1);\n            bytes32[] memory topicVals = new bytes32[](nTopics);\n            for (uint256 i = 0; i < nTopics; i++) {\n                topicVals[i] = bytes32(parse32ByteValue(1+32*(2+i)));\n            }\n            bytes32 logValue = bytes32(parse32ByteValue(1+32*(2+nTopics)));\n            cap = procedures.checkLogCapability(uint192(currentProcedure), topicVals, capIndex);\n            if (cap) {\n                if (nTopics == 0) {\n                    log0(logValue);\n                    assembly {\n                        // We don't need to return anything\n                        return(0,0)\n                    }\n                } else if (nTopics == 1) {\n                    log1(logValue, topicVals[0]);\n                    assembly {\n                        // We don't need to return anything\n                        return(0,0)\n                    }\n                } else if (nTopics == 2) {\n                    log2(logValue, topicVals[0], topicVals[1]);\n                    assembly {\n                        // We don't need to return anything\n                        return(0,0)\n                    }\n                } else if (nTopics == 3) {\n                    log3(logValue, topicVals[0], topicVals[1], topicVals[2]);\n                    assembly {\n                        // We don't need to return anything\n                        return(0,0)\n                    }\n                } else if (nTopics == 4) {\n                    log4(logValue, topicVals[0], topicVals[1], topicVals[2], topicVals[3]);\n                    assembly {\n                        // We don't need to return anything\n                        return(0,0)\n                    }\n                } else {\n                    assembly {\n                        // Revert with an error code\n                        mstore(0,44)\n                        revert(0,0x20)\n                    }\n                }\n            } else {\n                assembly {\n                    mstore(0,33)\n                    revert(0,0x20)\n                }\n            }\n            assembly{\n                mstore(0xd,152)\n                return(0xd,0x20)\n            }\n        } else {\n            // default; fallthrough action\n            assembly {\n                mstore8(0xb0,5)\n                log0(0xb0, 1)\n            }\n        }\n    }\n\n    // Create a procedure without  going through any validation. This is mainly\n    // used for testing and should not exist in a production kernel.\n    // TODO: Currently this calls the normal createAnyProcedure function, which\n    // needs to be updated to do validation.\n    function registerProcedure(bytes24 name, address procedureAddress, uint256[] caps) public returns (uint8 err, address retAddress) {\n        if (validateContract(procedureAddress) == 0) {\n            return registerAnyProcedure(name, procedureAddress, caps);\n        } else {\n            revert(\"procedure code failed validation\");\n        }\n    }\n\n    // Create a validated procedure.\n    function registerAnyProcedure(bytes24 name, address procedureAddress, uint256[] caps) public returns (uint8 err, address retAddress) {\n        // Check whether the first byte is null and set err to 1 if so\n        if (name == 0) {\n            err = 1;\n            return;\n        }\n\n        // Check whether the address exists\n        bool exist = procedures.contains(name);\n        if (exist) {\n            err = 3;\n            return;\n        }\n        \n        procedures.insert(name, procedureAddress, caps);\n        \n        retAddress = procedureAddress;\n    }\n\n    function deleteProcedure(bytes24 name) public returns (uint8 err, address procedureAddress) {\n        // Check whether the first byte is null and set err to 1 if so\n        if (name[0] == 0) {\n            err = 1;\n            return;\n        }\n\n        procedureAddress = procedures.get(name);\n        bool success = procedures.remove(name);\n\n        // Check whether the address exists\n        if (!success) {err = 2;}\n    }\n\n    function listProcedures() public view returns (bytes24[] memory) {\n        return procedures.getKeys();\n    }\n\n    function returnRawProcedureTable() public view returns (uint256[]) {\n        return procedures.returnRawProcedureTable();\n    }\n\n    function returnProcedureTable() public view returns (uint256[]) {\n        return procedures.returnProcedureTable();\n    }\n\n    // function nProcedures() public view returns (uint256) {\n    //     return procedures.size();\n    // }\n\n\n    function getProcedure(bytes24 name) public view returns (address) {\n        return procedures.get(name);\n    }\n\n    function executeProcedure(bytes24 name, string fselector, bytes payload, uint256 retSize) public returns (uint256 retVal) {\n        // // Check whether the first byte is null and set err to 1 if so\n        if (name[0] == 0) {\n            retVal = 1;\n            return;\n        }\n        // Check whether the address exists\n        bool exist = procedures.contains(name);\n        if (!exist) {\n            retVal = 3;\n            return;\n        }\n        // TODO: I believe this should use the keyindex\n        // assembly {\n        //     sstore(currentProcedure_slot,div(name,exp(0x100,8)))\n        // }\n        currentProcedure = name;\n        address procedureAddress = procedures.get(name);\n        bool status = false;\n        assembly {\n            function malloc(size) -> result {\n                // align to 32-byte words\n                let rsize := add(size,sub(32,mod(size,32)))\n                // get the current free mem location\n                result :=  mload(0x40)\n                // Bump the value of 0x40 so that it holds the next\n                // available memory location.\n                mstore(0x40,add(result,rsize))\n            }\n            function mallocZero(size) -> result {\n                // align to 32-byte words\n                let rsize := add(size,sub(32,mod(size,32)))\n                // get the current free mem location\n                result :=  mload(0x40)\n                // zero-out the memory\n                // if there are some bytes to be allocated (rsize is not zero)\n                if rsize {\n                    // loop through the address and zero them\n                    for { let n := 0 } iszero(eq(n, rsize)) { n := add(n, 32) } {\n                        mstore(add(result,n),0)\n                    }\n\n                }\n                // Bump the value of 0x40 so that it holds the next\n                // available memory location.\n                mstore(0x40,add(result,rsize))\n            }\n            // Allocate new memory on the stack for function selector and\n            // payload data.\n            let inl := 0\n            // if we have a function selector, we start with a length of 4\n            // bytes\n            // If there is no function selector, send nothing. mload(fselector)\n            // is the length.\n            if mload(fselector) {\n                // set the input length to 4\n                inl := 4\n            }\n            // Then we add on the length of the payload\n            inl := add(inl,mload(payload))\n\n            // n is the actual size we allocate for the input buffer (which may\n            // be a little more than we actually need to send)\n            let n := inl\n            // We need at least 0x20 bytes to perform our hash in, even though\n            // we won't send it all\n            if lt(n,0x20) {\n                n := 0x20\n            }\n            let ins := malloc(n)\n\n            // next we need to create the function selector hash (if it exists)\n            if mload(fselector) {\n                // we don't need to allocate memory as we already have enough\n                // space in the input buffer (we always allocate at lest 0x20)\n                // // allocate some memory to work with\n                // let n :=  malloc(0x20)\n                // Take the keccak256 hash of that string, store at location n\n                // mstore\n                // Argument #1: The address (n) calculated above, to store the\n                //    hash.\n                // Argument #2: The hash, calculted as follows:\n                //   keccack256\n                //   Argument #1: The location of the fselector string (which\n                //     is simply the name of the variable) with an added offset\n                //     of 0x20, as the first 0x20 is reserved for the length of\n                //     the string.\n                //   Argument #2: The length of the string, which is loaded from\n                //     the first 0x20 of the string.\n                // This hash must be written first, as it write 32 bytes and\n                // would overwrite our payload data. We will store the payload\n                // data after this so the unused hash bytes get overwrittem.\n                mstore(ins,keccak256(add(fselector,0x20),mload(fselector)))\n            }\n            // Copy the payload data into the input buffer\n            // i starts as the payload length\n            let i := mload(payload)\n            // The start offset of payload data (either 0 or 4);\n            let payloadStart := add(ins,0)\n            if mload(fselector) {\n                payloadStart := add(ins,4)\n            }\n            if i {\n                for { } i { i := sub(i,  1) } {\n                    mstore8(add(payloadStart,sub(i,  1)),mload(add(payload,i)))\n                }\n            }\n            // There is no return value, therefore it's length is 0 bytes long\n            // REVISION: lets assume a 32 byte return value for now\n            let outl := retSize\n            let outs := mallocZero(outl)\n\n            status := callcode(gas,procedureAddress,0,ins,inl,outs,outl)\n            // Zero-out the currentProcedure\n            sstore(currentProcedure_slot,0)\n            if eq(status,0) {\n                let errStore := malloc(0x20)\n                mstore(errStore,add(220000,mload(outs)))\n                // mstore(0x40,235)\n                // log1(errStore,0x20,\"returnedErr\")\n                return(errStore,0x20)\n            }\n            if eq(status,1) {\n                // log1(outs,outl,\"returned\")\n                return(outs,outl)\n            }\n        }\n        if (!status) {\n            retVal = 85;\n        }\n    }\n}",
  "sourcePath": "/mnt/c/Users/Raketa/Documents/Repos/beakeros/contracts/Kernel.sol",
  "compiler": {
    "name": "solc",
    "version": "0.4.24+commit.e67f0147.Emscripten.clang"
  },
  "schemaVersion": "2.0.1",
  "updatedAt": "2018-10-12T18:05:18.142Z"
}