{
  "contractName": "Kernel",
  "abi": [
    {
      "constant": true,
      "inputs": [
        {
          "name": "",
          "type": "bytes1"
        }
      ],
      "name": "opCodes",
      "outputs": [
        {
          "name": "",
          "type": "uint8"
        }
      ],
      "payable": false,
      "stateMutability": "view",
      "type": "function"
    },
    {
      "constant": true,
      "inputs": [
        {
          "name": "oCode",
          "type": "bytes"
        }
      ],
      "name": "codeLength",
      "outputs": [
        {
          "name": "len",
          "type": "uint256"
        }
      ],
      "payable": false,
      "stateMutability": "pure",
      "type": "function"
    },
    {
      "constant": true,
      "inputs": [
        {
          "name": "procedureAddress",
          "type": "address"
        }
      ],
      "name": "validateContract",
      "outputs": [
        {
          "name": "",
          "type": "uint8"
        }
      ],
      "payable": false,
      "stateMutability": "view",
      "type": "function"
    },
    {
      "constant": true,
      "inputs": [
        {
          "name": "oCode",
          "type": "bytes"
        }
      ],
      "name": "validate",
      "outputs": [
        {
          "name": "err",
          "type": "uint8"
        }
      ],
      "payable": false,
      "stateMutability": "pure",
      "type": "function"
    },
    {
      "constant": true,
      "inputs": [
        {
          "name": "oCode",
          "type": "bytes"
        }
      ],
      "name": "codePosition",
      "outputs": [
        {
          "name": "code",
          "type": "uint256"
        }
      ],
      "payable": false,
      "stateMutability": "pure",
      "type": "function"
    },
    {
      "inputs": [],
      "payable": false,
      "stateMutability": "nonpayable",
      "type": "constructor"
    },
    {
      "payable": false,
      "stateMutability": "nonpayable",
      "type": "fallback"
    },
    {
      "anonymous": false,
      "inputs": [
        {
          "indexed": false,
          "name": "message",
          "type": "string"
        }
      ],
      "name": "KernelLog",
      "type": "event"
    },
    {
      "constant": true,
      "inputs": [],
      "name": "testGetter",
      "outputs": [
        {
          "name": "",
          "type": "uint256"
        }
      ],
      "payable": false,
      "stateMutability": "view",
      "type": "function"
    },
    {
      "constant": true,
      "inputs": [
        {
          "name": "addr",
          "type": "uint256"
        }
      ],
      "name": "anyTestGetter",
      "outputs": [
        {
          "name": "",
          "type": "uint256"
        }
      ],
      "payable": false,
      "stateMutability": "view",
      "type": "function"
    },
    {
      "constant": false,
      "inputs": [
        {
          "name": "value",
          "type": "uint256"
        }
      ],
      "name": "testSetter",
      "outputs": [],
      "payable": false,
      "stateMutability": "nonpayable",
      "type": "function"
    },
    {
      "constant": false,
      "inputs": [
        {
          "name": "key",
          "type": "bytes24"
        }
      ],
      "name": "setEntryProcedure",
      "outputs": [],
      "payable": false,
      "stateMutability": "nonpayable",
      "type": "function"
    },
    {
      "constant": true,
      "inputs": [],
      "name": "getEntryProcedure",
      "outputs": [
        {
          "name": "key",
          "type": "bytes24"
        }
      ],
      "payable": false,
      "stateMutability": "view",
      "type": "function"
    },
    {
      "constant": false,
      "inputs": [
        {
          "name": "name",
          "type": "bytes24"
        },
        {
          "name": "procedureAddress",
          "type": "address"
        },
        {
          "name": "caps",
          "type": "uint256[]"
        }
      ],
      "name": "registerProcedure",
      "outputs": [
        {
          "name": "err",
          "type": "uint8"
        },
        {
          "name": "retAddress",
          "type": "address"
        }
      ],
      "payable": false,
      "stateMutability": "nonpayable",
      "type": "function"
    },
    {
      "constant": false,
      "inputs": [
        {
          "name": "name",
          "type": "bytes24"
        },
        {
          "name": "procedureAddress",
          "type": "address"
        },
        {
          "name": "caps",
          "type": "uint256[]"
        }
      ],
      "name": "registerAnyProcedure",
      "outputs": [
        {
          "name": "err",
          "type": "uint8"
        },
        {
          "name": "retAddress",
          "type": "address"
        }
      ],
      "payable": false,
      "stateMutability": "nonpayable",
      "type": "function"
    },
    {
      "constant": false,
      "inputs": [
        {
          "name": "name",
          "type": "bytes24"
        }
      ],
      "name": "deleteProcedure",
      "outputs": [
        {
          "name": "err",
          "type": "uint8"
        },
        {
          "name": "procedureAddress",
          "type": "address"
        }
      ],
      "payable": false,
      "stateMutability": "nonpayable",
      "type": "function"
    },
    {
      "constant": true,
      "inputs": [],
      "name": "listProcedures",
      "outputs": [
        {
          "name": "",
          "type": "bytes24[]"
        }
      ],
      "payable": false,
      "stateMutability": "view",
      "type": "function"
    },
    {
      "constant": true,
      "inputs": [],
      "name": "returnRawProcedureTable",
      "outputs": [
        {
          "name": "",
          "type": "uint256[]"
        }
      ],
      "payable": false,
      "stateMutability": "view",
      "type": "function"
    },
    {
      "constant": true,
      "inputs": [],
      "name": "returnProcedureTable",
      "outputs": [
        {
          "name": "",
          "type": "uint256[]"
        }
      ],
      "payable": false,
      "stateMutability": "view",
      "type": "function"
    },
    {
      "constant": true,
      "inputs": [
        {
          "name": "name",
          "type": "bytes24"
        }
      ],
      "name": "getProcedure",
      "outputs": [
        {
          "name": "",
          "type": "address"
        }
      ],
      "payable": false,
      "stateMutability": "view",
      "type": "function"
    },
    {
      "constant": false,
      "inputs": [
        {
          "name": "name",
          "type": "bytes24"
        },
        {
          "name": "fselector",
          "type": "string"
        },
        {
          "name": "payload",
          "type": "bytes"
        },
        {
          "name": "retSize",
          "type": "uint256"
        }
      ],
      "name": "executeProcedure",
      "outputs": [
        {
          "name": "retVal",
          "type": "uint256"
        }
      ],
      "payable": false,
      "stateMutability": "nonpayable",
      "type": "function"
    }
  ],
  "bytecode": "0x608060405234801561001057600080fd5b5060036180005561335e806100266000396000f3006080604052600436106100fc576000357c0100000000000000000000000000000000000000000000000000000000900463ffffffff1680630133beb0146107e65780630866a87d14610811578063087536ec1461087a5780630ce535e8146108f75780631b6167fe1461096f5780631cbd0f39146109b057806320fc0a95146109e85780635acf061a14610a6d5780636178db0f14610aca5780637cd5355b14610b365780637e7e884114610c1e578063be0159a414610c8a578063c16e50ef14610d72578063c5ce720414610df5578063dfe4399214610e22578063e03033b114610e9f578063e34bf5c514610ee0578063e912d19514610f4c575b34801561010857600080fd5b506000806000806000806000806000806000606060008061012761102e565b1561016a57610169336000368080601f016020809104026020016040519081016040528093929190818152602001838380828437820191505050505050611065565b5b6000366000818110151561017a57fe5b905001357f010000000000000000000000000000000000000000000000000000000000000090047f0100000000000000000000000000000000000000000000000000000000000000027effffffffffffffffffffffffffffffffffffffffffffffffffffffffffffff19167f010000000000000000000000000000000000000000000000000000000000000090049b5060008c60ff16141561021b576107d6565b60038c60ff16141561042b5761023160016110dd565b9c506801000000000000000061024760216110dd565b81151561025057fe5b0468010000000000000000029a5061026860416110dd565b9950606160003690501115610286576061600036905003985061028b565b600098505b6102c6600360009054906101000a900468010000000000000000026801000000000000000090048c8f60016111b7909392919063ffffffff16565b9d506102dc8b60016112da90919063ffffffff16565b9750600360009054906101000a9004680100000000000000000296508a600360006101000a81548177ffffffffffffffffffffffffffffffffffffffffffffffff021916908368010000000000000000900402179055508d1561041b5761035a565b6000602082066020038201604051915080820160405250919050565b6103a0565b6000602082066020038201604051915080156103945760005b818114151561039257600081840152602081019050610378565b505b80820160405250919050565b6000808a156103bd576103b28b61033e565b91508a606183378a90505b8a15156103cd5760009150600090505b6103d68c61035f565b8c8183858e5af460086101000a8b04600355801515610405576103f9602061033e565b82516016018152602081fd5b6001811415610412578d82f35b50505050610426565b602160005260206000fd5b6107d5565b60078c60ff1614156104b15761044160016110dd565b9c5061044d60216110dd565b955061045960416110dd565b9450610496600360009054906101000a90046801000000000000000002680100000000000000009004878f6001611306909392919063ffffffff16565b9d508d156104a657848655600080f35b601660005260206000f35b60098c60ff1614156107ca576104c760016110dd565b9c506104d360216110dd565b9350836040519080825280602002602001820160405280156105045781602001602082028038833980820191505090505b509250600091505b8382101561055c57610526826002016020026001016110dd565b600102838381518110151561053757fe5b906020019060200201906000191690816000191681525050818060010192505061050c565b61056e846002016020026001016110dd565b60010290506105ae600360009054906101000a90046801000000000000000002680100000000000000009004848f600161141b909392919063ffffffff16565b9d508d156107bf5760008414156105e2578060405180826000191660001916815260200191505060405180910390a0600080f35b600184141561062b578260008151811015156105fa57fe5b90602001906020020151600019168160405180826000191660001916815260200191505060405180910390a1600080f35b60028414156106915782600181518110151561064357fe5b906020019060200201516000191683600081518110151561066057fe5b90602001906020020151600019168260405180826000191660001916815260200191505060405180910390a2600080f35b6003841415610714578260028151811015156106a957fe5b90602001906020020151600019168360018151811015156106c657fe5b90602001906020020151600019168460008151811015156106e357fe5b90602001906020020151600019168360405180826000191660001916815260200191505060405180910390a3600080f35b60048414156107b45782600381518110151561072c57fe5b906020019060200201516000191683600281518110151561074957fe5b906020019060200201516000191684600181518110151561076657fe5b906020019060200201516000191685600081518110151561078357fe5b90602001906020020151600019168460405180826000191660001916815260200191505060405180910390a4600080f35b602c60005260206000fd5b602160005260206000fd5b600560b053600160b0a05b5b5050505050505050505050505050005b3480156107f257600080fd5b506107fb6115f8565b6040518082815260200191505060405180910390f35b34801561081d57600080fd5b5061085e60048036038101908080357effffffffffffffffffffffffffffffffffffffffffffffffffffffffffffff19169060200190929190505050611607565b604051808260ff1660ff16815260200191505060405180910390f35b34801561088657600080fd5b506108e1600480360381019080803590602001908201803590602001908080601f0160208091040260200160405190810160405280939291908181526020018383808284378201915050505050509192919290505050611627565b6040518082815260200191505060405180910390f35b34801561090357600080fd5b5061092d600480360381019080803567ffffffffffffffff19169060200190929190505050611632565b604051808273ffffffffffffffffffffffffffffffffffffffff1673ffffffffffffffffffffffffffffffffffffffff16815260200191505060405180910390f35b34801561097b57600080fd5b5061098461164f565b604051808267ffffffffffffffff191667ffffffffffffffff1916815260200191505060405180910390f35b3480156109bc57600080fd5b506109e6600480360381019080803567ffffffffffffffff1916906020019092919050505061166e565b005b3480156109f457600080fd5b50610a1e600480360381019080803567ffffffffffffffff191690602001909291905050506116ac565b604051808360ff1660ff1681526020018273ffffffffffffffffffffffffffffffffffffffff1673ffffffffffffffffffffffffffffffffffffffff1681526020019250505060405180910390f35b348015610a7957600080fd5b50610aae600480360381019080803573ffffffffffffffffffffffffffffffffffffffff169060200190929190505050611776565b604051808260ff1660ff16815260200191505060405180910390f35b348015610ad657600080fd5b50610adf6117d8565b6040518080602001828103825283818151815260200191508051906020019060200280838360005b83811015610b22578082015181840152602081019050610b07565b505050509050019250505060405180910390f35b348015610b4257600080fd5b50610bcf600480360381019080803567ffffffffffffffff19169060200190929190803573ffffffffffffffffffffffffffffffffffffffff169060200190929190803590602001908201803590602001908080602002602001604051908101604052809392919081815260200183836020028082843782019150505050505091929192905050506117e9565b604051808360ff1660ff1681526020018273ffffffffffffffffffffffffffffffffffffffff1673ffffffffffffffffffffffffffffffffffffffff1681526020019250505060405180910390f35b348015610c2a57600080fd5b50610c3361188a565b6040518080602001828103825283818151815260200191508051906020019060200280838360005b83811015610c76578082015181840152602081019050610c5b565b505050509050019250505060405180910390f35b348015610c9657600080fd5b50610d23600480360381019080803567ffffffffffffffff19169060200190929190803573ffffffffffffffffffffffffffffffffffffffff1690602001909291908035906020019082018035906020019080806020026020016040519081016040528093929190818152602001838360200280828437820191505050505050919291929050505061189b565b604051808360ff1660ff1681526020018273ffffffffffffffffffffffffffffffffffffffff1673ffffffffffffffffffffffffffffffffffffffff1681526020019250505060405180910390f35b348015610d7e57600080fd5b50610dd9600480360381019080803590602001908201803590602001908080601f0160208091040260200160405190810160405280939291908181526020018383808284378201915050505050509192919290505050611912565b604051808260ff1660ff16815260200191505060405180910390f35b348015610e0157600080fd5b50610e2060048036038101908080359060200190929190505050611dc7565b005b348015610e2e57600080fd5b50610e89600480360381019080803590602001908201803590602001908080601f0160208091040260200160405190810160405280939291908181526020018383808284378201915050505050509192919290505050611dcf565b6040518082815260200191505060405180910390f35b348015610eab57600080fd5b50610eca60048036038101908080359060200190929190505050611ddf565b6040518082815260200191505060405180910390f35b348015610eec57600080fd5b50610ef5611dec565b6040518080602001828103825283818151815260200191508051906020019060200280838360005b83811015610f38578082015181840152602081019050610f1d565b505050509050019250505060405180910390f35b348015610f5857600080fd5b50611018600480360381019080803567ffffffffffffffff19169060200190929190803590602001908201803590602001908080601f0160208091040260200160405190810160405280939291908181526020018383808284378201915050505050509192919290803590602001908201803590602001908080601f016020809104026020016040519081016040528093929190818152602001838380828437820191505050505050919291929080359060200190929190505050611dfd565b6040518082815260200191505060405180910390f35b6000806801000000000000000002600360009054906101000a9004680100000000000000000267ffffffffffffffff191614905090565b600080602091506110d2600460009054906101000a9004680100000000000000000260206040519081016040528060008152506000368080601f01602080910402602001604051908101604052809392919081815260200183838082843782019150505050505085611dfd565b905080600052816000f35b6000806000809150600090505b60208110156111ad576008829060020a029150600036828601818110151561110e57fe5b905001357f010000000000000000000000000000000000000000000000000000000000000090047f0100000000000000000000000000000000000000000000000000000000000000027effffffffffffffffffffffffffffffffffffffffffffffffffffffffffffff19167f010000000000000000000000000000000000000000000000000000000000000090048217915080806001019150506110ea565b8192505050919050565b60006111c16132bd565b6111c96132f8565b60006111d487612048565b9250600083604001515114806111f1575060018360400151510385115b156111ff57600093506112cf565b82604001518581518110151561121157fe5b9060200190602002015191506003826000015160ff1614151561123757600093506112cf565b6000826020015151141561124e57600193506112cf565b600090505b8160200151518110156112ce578567ffffffffffffffff19166801000000000000000083602001518381518110151561128857fe5b9060200190602002015181151561129b57fe5b04680100000000000000000267ffffffffffffffff191614156112c157600193506112cf565b8080600101915050611253565b5b505050949350505050565b60006112fe600060016112f8856801000000000000000090046122d7565b016123aa565b905092915050565b60006113106132bd565b6113186132f8565b600080600061132689612048565b945060008560400151511480611343575060018560400151510387115b15611351576000955061140e565b84604001518781518110151561136357fe5b906020019060200201519350836000015160ff16925060078314151561138c576000955061140e565b600284602001515110156113a3576000955061140e565b836020015160008151811015156113b657fe5b906020019060200201519150836020015160018151811015156113d557fe5b9060200190602002015190506007831480156113f15750818810155b80156113ff57508082018811155b1561140d576001955061140e565b5b5050505050949350505050565b60006114256132bd565b61142d6132f8565b600080606060008061143e8b612048565b96506000876040015151148061145b575060018760400151510389115b1561146957600097506115e9565b86604001518981518110151561147b57fe5b906020019060200201519550856000015160ff1694506009851415156114a457600097506115e9565b600186602001515110156114bb57600097506115e9565b856020015160008151811015156114ce57fe5b906020019060200201519350836040519080825280602002602001820160405280156115095781602001602082028038833980820191505090505b509250600091505b8382101561156e5785602001516001830181518110151561152e57fe5b90602001906020020151600102838381518110151561154957fe5b9060200190602002019060001916908160001916815250508180600101925050611511565b82518a51101561158157600097506115e9565b600090505b82518110156115e457828181518110151561159d57fe5b90602001906020020151600019168a828151811015156115b957fe5b90602001906020020151600019161415156115d757600097506115e9565b8080600101915050611586565b600197505b50505050505050949350505050565b60006180005460005260206000f35b60006020528060005260406000206000915054906101000a900460ff1681565b600081519050919050565b60006116488260016112da90919063ffffffff16565b9050919050565b6000600460009054906101000a90046801000000000000000002905090565b80600460006101000a81548177ffffffffffffffffffffffffffffffffffffffffffffffff0219169083680100000000000000009004021790555050565b6000806000807f0100000000000000000000000000000000000000000000000000000000000000028460006018811015156116e357fe5b1a7f0100000000000000000000000000000000000000000000000000000000000000027effffffffffffffffffffffffffffffffffffffffffffffffffffffffffffff191614156117375760019250611770565b61174b8460016112da90919063ffffffff16565b91506117618460016123c490919063ffffffff16565b905080151561176f57600292505b5b50915091565b600080606060009150833b9150816040519080825280601f01601f1916602001820160405280156117b65781602001602082028038833980820191505090505b509050818152833b600060208301863c6117cf81611912565b92505050919050565b60606117e460016124f3565b905090565b60008060006117f785611776565b60ff1614156118145761180b85858561189b565b91509150611882565b6040517f08c379a00000000000000000000000000000000000000000000000000000000081526004018080602001828103825260208152602001807f70726f63656475726520636f6465206661696c65642076616c69646174696f6e81525060200191505060405180910390fd5b935093915050565b606061189660016128f5565b905090565b60008060008068010000000000000000028667ffffffffffffffff191614156118c75760019250611909565b6118db8660016129f690919063ffffffff16565b905080156118ec5760039250611909565b6119048686866001612a21909392919063ffffffff16565b508491505b50935093915050565b600080600080600092505b8451831015611dba57848381518110151561193457fe5b9060200101517f010000000000000000000000000000000000000000000000000000000000000090047f0100000000000000000000000000000000000000000000000000000000000000027f01000000000000000000000000000000000000000000000000000000000000009004915060008260ff16101580156119bc5750600b8260ff1611155b156119c657611dad565b60108260ff16101580156119de5750601a8260ff1611155b156119e857611dad565b60208260ff1614156119f957611dad565b60308260ff1610158015611a115750603e8260ff1611155b15611a1b57611dad565b60408260ff1610158015611a33575060458260ff1611155b15611a3d57611dad565b60508260ff1610158015611a55575060538260ff1611155b15611a5f57611dad565b60568260ff1610158015611a775750605b8260ff1611155b15611a8157611dad565b60808260ff1610158015611a995750608f8260ff1611155b15611aa357611dad565b60908260ff1610158015611abb5750609f8260ff1611155b15611ac557611dad565b60f38260ff161415611ad657611dad565b60fa8260ff1610158015611aee575060fe8260ff1611155b15611af857611dad565b60608260ff1610158015611b105750607f8260ff1611155b15611b2557605f820360ff1683019250611dad565b60548260ff161415611b3657611dad565b60558260ff161415611b4b5760029350611dbf565b60a08260ff161415611b605760039350611dbf565b60a18260ff161415611b755760049350611dbf565b60a28260ff161415611b8a5760059350611dbf565b60a38260ff161415611b9f5760069350611dbf565b60a48260ff161415611bb45760079350611dbf565b60f08260ff161415611bc95760089350611dbf565b60f18260ff161415611bde5760099350611dbf565b60f28260ff161415611bf357600a9350611dbf565b60f48260ff161415611d7a57600090506002831015611c155760009050611d66565b605a7f0100000000000000000000000000000000000000000000000000000000000000028560018503815181101515611c4a57fe5b9060200101517f010000000000000000000000000000000000000000000000000000000000000090047f0100000000000000000000000000000000000000000000000000000000000000027effffffffffffffffffffffffffffffffffffffffffffffffffffffffffffff1916148015611d63575060337f0100000000000000000000000000000000000000000000000000000000000000028560028503815181101515611cf457fe5b9060200101517f010000000000000000000000000000000000000000000000000000000000000090047f0100000000000000000000000000000000000000000000000000000000000000027effffffffffffffffffffffffffffffffffffffffffffffffffffffffffffff1916145b90505b8015611d7157611dad565b600b9350611dbf565b60f58260ff161415611d8f57600c9350611dbf565b60ff8260ff161415611da457600d9350611dbf565b60649350611dbf565b828060010193505061191d565b600093505b505050919050565b806180005550565b6000815160008301915050919050565b6000815460005260206000f35b6060611df86001612b10565b905090565b60008060008060007f010000000000000000000000000000000000000000000000000000000000000002886000601881101515611e3657fe5b1a7f0100000000000000000000000000000000000000000000000000000000000000027effffffffffffffffffffffffffffffffffffffffffffffffffffffffffffff19161415611e8a576001935061203d565b611e9e8860016129f690919063ffffffff16565b9250821515611eb0576003935061203d565b87600360006101000a81548177ffffffffffffffffffffffffffffffffffffffffffffffff02191690836801000000000000000090040217905550611eff8860016112da90919063ffffffff16565b915060009050611f26565b6000602082066020038201604051915080820160405250919050565b611f6c565b600060208206602003820160405191508015611f605760005b8181141515611f5e57600081840152602081019050611f44565b505b80820160405250919050565b6000875115611f7a57600490505b865181019050806020811015611f8f57602090505b611f9881611f0a565b895115611fa957895160208b012081525b8851600082018b5115611fbd576004830190505b8115611fe1575b8115611fe057818b015160018303820153600182039150611fc4565b5b89611feb81611f2b565b8181888760008d5af297506000600355600088141561201c5761200e6020611f0a565b815162035b60018152602081f35b6001881415612029578181f35b5050505050505080151561203c57605593505b5b505050949350505050565b6120506132bd565b6000806000806000806000612064896122d7565b96506120716000886123aa565b886000019060ff16908160ff16815250506120906000600189016123aa565b886020019073ffffffffffffffffffffffffffffffffffffffff16908173ffffffffffffffffffffffffffffffffffffffff16815250506120d56000600289016123aa565b95508560405190808252806020026020018201604052801561211157816020015b6120fe613315565b8152602001906001900390816120f65790505b50886040018190525060009450600093505b60fd847effffffffffffffffffffffffffffffffffffffffffffffffffffffffffffff1610156122cb57858510151561215b576122cb565b61216b60008560038a01016123aa565b9250612180600060018660038b0101016123aa565b88604001518681518110151561219257fe5b906020019060200201516000019060ff16908160ff1681525050600183039150816040519080825280602002602001820160405280156121e15781602001602082028038833980820191505090505b508860400151868151811015156121f457fe5b9060200190602002015160200181905250600090505b81817effffffffffffffffffffffffffffffffffffffffffffffffffffffffffffff1610156122b15761224860008260028760038c010101016123aa565b88604001518681518110151561225a57fe5b9060200190602002015160200151827effffffffffffffffffffffffffffffffffffffffffffffffffffffffffffff1681518110151561229657fe5b9060200190602002018181525050808060010191505061220a565b828401935084806001019550508380600101945050612123565b50505050505050919050565b60008060405180807f70726f636564757265506f696e7465720000000000000000000000000000000081525060100190506040518091039020905060088377ffffffffffffffffffffffffffffffffffffffffffffffff1660c083600190047dffffffffffffffffffffffffffffffffffffffffffffffffffffffffffff169060020a02177dffffffffffffffffffffffffffffffffffffffffffffffffffffffffffff167effffffffffffffffffffffffffffffffffffffffffffffffffffffffffffff169060020a02915050919050565b6000806123b78484612cb2565b9050805491505092915050565b60006123ce6132bd565b60008060008060008060006123ee8a680100000000000000009004612048565b97506000886000015160ff16141561240957600098506124e5565b612411612cea565b965061241e6000886123aa565b955085886000015160ff161115156124e0576124458a6801000000000000000090046122d7565b94506124548860000151612d70565b935061245f86612d70565b925061246c6000846123aa565b9150612477826122d7565b905061248c6000828a6000015160ff16612e00565b6124b26000858477ffffffffffffffffffffffffffffffffffffffffffffffff16612e00565b6124bf6000846000612e00565b6124c885612e17565b6124d760008860018903612e00565b600198506124e5565b600098505b505050505050505092915050565b6060806000606060008060006125076132bd565b60008060006125158c6128f5565b995089519850610100890260405190808252806020026020018201604052801561254e5781602001602082028038833980820191505090505b50975060009650600095505b88867effffffffffffffffffffffffffffffffffffffffffffffffffffffffffffff1610156128e35789867effffffffffffffffffffffffffffffffffffffffffffffffffffffffffffff168151811015156125b257fe5b9060200190602002015168010000000000000000900494506125d385612048565b93508477ffffffffffffffffffffffffffffffffffffffffffffffff1688888151811015156125fe57fe5b90602001906020020181815250508680600101975050836000015160ff16888881518110151561262a57fe5b90602001906020020181815250508680600101975050836020015173ffffffffffffffffffffffffffffffffffffffff16888881518110151561266957fe5b90602001906020020181815250508680600101975050836040015151888881518110151561269357fe5b90602001906020020181815250508680600101975050600092505b836040015151837effffffffffffffffffffffffffffffffffffffffffffffffffffffffffffff1610156128d65760018460400151847effffffffffffffffffffffffffffffffffffffffffffffffffffffffffffff1681518110151561271157fe5b90602001906020020151602001515101915081888881518110151561273257fe5b906020019060200201818152505086806001019750508360400151837effffffffffffffffffffffffffffffffffffffffffffffffffffffffffffff1681518110151561277b57fe5b906020019060200201516000015160ff16888881518110151561279a57fe5b90602001906020020181815250508680600101975050600090505b8360400151837effffffffffffffffffffffffffffffffffffffffffffffffffffffffffffff168151811015156127e857fe5b906020019060200201516020015151817effffffffffffffffffffffffffffffffffffffffffffffffffffffffffffff1610156128c9578360400151837effffffffffffffffffffffffffffffffffffffffffffffffffffffffffffff1681518110151561285257fe5b9060200190602002015160200151817effffffffffffffffffffffffffffffffffffffffffffffffffffffffffffff1681518110151561288e57fe5b9060200190602002015188888151811015156128a657fe5b9060200190602002018181525050868060010197505080806001019150506127b5565b82806001019350506126ae565b858060010196505061255a565b879a5050505050505050505050919050565b60606000806000612904612cea565b92506129116000846123aa565b9150816040519080825280602002602001820160405280156129425781602001602082028038833980820191505090505b509350600090505b81817effffffffffffffffffffffffffffffffffffffffffffffffffffffffffffff1610156129ee5761298360006002838601016123aa565b680100000000000000000284827effffffffffffffffffffffffffffffffffffffffffffffffffffffffffffff168151811015156129bd57fe5b9060200190602002019067ffffffffffffffff1916908167ffffffffffffffff19168152505060018101905061294a565b505050919050565b600080612a186000612a13856801000000000000000090046122d7565b6123aa565b11905092915050565b6000612a2b6132bd565b600080612a4387680100000000000000009004612048565b925085836020019073ffffffffffffffffffffffffffffffffffffffff16908173ffffffffffffffffffffffffffffffffffffffff1681525050608085511115612a8c57600080fd5b612a968386612e37565b6000836000015160ff161115612aaf5760019350612b05565b612ab7612cea565b9150612ac46000836123aa565b905060018101836000019060ff16908160ff1681525050612aea60008360018401612e00565b612b00838868010000000000000000900461302e565b600093505b505050949350505050565b606080600060606000806000806000612b288a6128f5565b9750875196506101018702604051908082528060200260200182016040528015612b615781602001602082028038833980820191505090505b50955060009450600093505b86847effffffffffffffffffffffffffffffffffffffffffffffffffffffffffffff161015612ca25787847effffffffffffffffffffffffffffffffffffffffffffffffffffffffffffff16815181101515612bc557fe5b906020019060200201516801000000000000000090049250612be6836122d7565b91508277ffffffffffffffffffffffffffffffffffffffffffffffff168686815181101515612c1157fe5b90602001906020020181815250508480600101955050600090505b610100817effffffffffffffffffffffffffffffffffffffffffffffffffffffffffffff161015612c9557612c6460008284016123aa565b8686815181101515612c7257fe5b906020019060200201818152505084806001019550508080600101915050612c2c565b8380600101945050612b6d565b8598505050505050505050919050565b600060f88360ff169060020a02827effffffffffffffffffffffffffffffffffffffffffffffffffffffffffffff1617905092915050565b60008060405180807f6b6579506f696e74657200000000000000000000000000000000000000000000815250600a0190506040518091039020905060f081780100000000000000000000000000000000000000000000000090047effffffffffffffffffffffffffffffffffffffffffffffffffffffffffffff169060020a0291505090565b60008060405180807f6b6579506f696e74657200000000000000000000000000000000000000000000815250600a019050604051809103902090508260ff16600160f083780100000000000000000000000000000000000000000000000090047effffffffffffffffffffffffffffffffffffffffffffffffffffffffffffff169060020a020101915050919050565b6000612e0c8484612cb2565b905081815550505050565b612e246000826000612e00565b612e346000600183016000612e00565b50565b60008060008060008060009550600094505b8651851015612e86578685815181101515612e6057fe5b906020019060200201519350838501945085806001019650508480600101955050612e49565b85604051908082528060200260200182016040528015612ec057816020015b612ead613315565b815260200190600190039081612ea55790505b50886040018190525060009250600094505b8651851015613024578685815181101515612ee957fe5b906020019060200201519350848060010195505060018403915081604051908082528060200260200182016040528015612f325781602001602082028038833980820191505090505b50886040015184815181101515612f4557fe5b90602001906020020151602001819052508685815181101515612f6457fe5b90602001906020020151886040015184815181101515612f8057fe5b906020019060200201516000019060ff16908160ff16815250508480600101955050600090505b81811015613017578685815181101515612fbd57fe5b90602001906020020151886040015184815181101515612fd957fe5b906020019060200201516020015182815181101515612ff457fe5b906020019060200201818152505084806001019550508080600101915050612fa7565b8280600101935050612ed2565b5050505050505050565b60008061303e8460000151612d70565b91506130666000838577ffffffffffffffffffffffffffffffffffffffffffffffff16612e00565b61306f836122d7565b905061307d84600083613083565b50505050565b6130958282856000015160ff16612e00565b6130bd8260018301856020015173ffffffffffffffffffffffffffffffffffffffff16612e00565b6130d08260028301856040015151612e00565b6130db8383836130e0565b505050565b6000806000806000809450600093505b876040015151847effffffffffffffffffffffffffffffffffffffffffffffffffffffffffffff1610156132b3578760400151847effffffffffffffffffffffffffffffffffffffffffffffffffffffffffffff1681518110151561315157fe5b90602001906020020151602001515192506001830191506131788786600389010184612e00565b84806001019550506131d3878660038901018a60400151877effffffffffffffffffffffffffffffffffffffffffffffffffffffffffffff168151811015156131bd57fe5b906020019060200201516000015160ff16612e00565b8480600101955050600090505b82817effffffffffffffffffffffffffffffffffffffffffffffffffffffffffffff1610156132a657613291878660038901018a60400151877effffffffffffffffffffffffffffffffffffffffffffffffffffffffffffff1681518110151561324657fe5b9060200190602002015160200151847effffffffffffffffffffffffffffffffffffffffffffffffffffffffffffff1681518110151561328257fe5b90602001906020020151612e00565b848060010195505080806001019150506131e0565b83806001019450506130f0565b5050505050505050565b606060405190810160405280600060ff168152602001600073ffffffffffffffffffffffffffffffffffffffff168152602001606081525090565b6040805190810160405280600060ff168152602001606081525090565b6040805190810160405280600060ff1681526020016060815250905600a165627a7a72305820390955efddc92d0411826d1a58df893e342b1960c97ffd380c80577b92ce32170029",
  "source": "pragma solidity ^0.4.17;\n\nimport \"./Factory.sol\";\nimport \"./ProcedureTable.sol\";\n\nlibrary WhatIsMyAddress {\n    function get() public view returns (address) {\n        return msg.sender;\n    }\n}\n\ncontract Kernel is Factory {\n    event KernelLog(string message);\n    using ProcedureTable for ProcedureTable.Self;\n    ProcedureTable.Self procedures;\n    address kernelAddress;\n    bytes24 currentProcedure;\n    bytes24 entryProcedure;\n\n    struct Process {\n        // Equal to the index of the key of this item in keys, plus 1.\n        uint8 keyIndex;\n        address location;\n    }\n\n    constructor() public {\n        // kernelAddress = WhatIsMyAddress.get();\n        // This is an example kernel global variable for testing.\n        assembly {\n            sstore(0x8000,3)\n        }\n    }\n\n    function testGetter() public view returns(uint256) {\n        assembly {\n            mstore(0,sload(0x8000))\n            return(0,0x20)\n        }\n    }\n\n    function anyTestGetter(uint256 addr) public view returns(uint256) {\n        assembly {\n            mstore(0,sload(addr))\n            return(0,0x20)\n        }\n    }\n\n    function testSetter(uint256 value) public {\n        assembly {\n            sstore(0x8000,value)\n        }\n    }\n\n    function parse32ByteValue(uint256 startOffset) pure internal returns (uint256) {\n        uint256 value = 0;\n        for (uint256 i = 0; i < 32; i++) {\n            value = value << 8;\n            value = value | uint256(msg.data[startOffset+i]);\n        }\n        return value;\n    }\n\n    function setEntryProcedure(bytes24 key) public {\n        entryProcedure = key;\n    }\n\n    function getEntryProcedure() public view returns (bytes24 key) {\n        return entryProcedure;\n    }\n\n    // Check if a transaction is external.\n    function isExternal() internal view returns (bool) {\n        // If the current transaction is from the procedure we are executing,\n        // then it is a systemcall. Otherwise it is an external transaction.\n        // We have in storage a value (currentProcedure) which states which\n        // procedure the kernel is currently executing. If we have this value\n        // then something is running, so it must be an internal transaction.\n        // If it is empty, it means we are not executing anything, and it is an\n        // external transaction.\n\n        // While the kernel is executing a procedure, nothing else can run\n        // across the whole blockchain, therefore we must be receiving a\n        // transaction from the procedure set in \"currentProcedure\"\n\n        // TODO: we will need to reserve a value for \"not executing anything\"\n        // If the transaction is from this procedure...\n        return (currentProcedure == 0);\n\n    }\n\n    // This is what we execute when we receive an external transaction.\n    function callGuardProcedure(address /* sender */, bytes /* data */) internal {\n        // TODO: we need to pass through the sender somehow\n        uint256 retSize = 32;\n        uint256 retVal = executeProcedure(entryProcedure, \"\", msg.data, retSize);\n        assembly {\n            mstore(0,retVal)\n            return(0,retSize)\n        }\n    }\n\n    // This is the fallback function which is used to handle system calls. This\n    // is only called if the other functions fail.\n    function() public {\n        bool cap;\n        uint256 capIndex;\n        // This is the entry point for the kernel\n\n        // If it is an external account, we forward it straight to the init\n        // procedure. We currently shouldn't reach this point, as we usually use\n        // \"executeProcedure\"\n        if (isExternal()) {\n            callGuardProcedure(msg.sender, msg.data);\n        }\n\n        // Parse the system call\n        uint8 sysCallCapType = uint8(msg.data[0]);\n\n        // 0x00 - not a syscall\n        // 0x01 - read syscall\n        // 0x03 - exec syscall\n        // 0x07 - write syscall\n        // 0x09 - log syscall\n\n        // log1(bytes32(currentProcedure), bytes32(\"current-procedure\"));\n\n        // Here we decode the system call (if there is one)\n        if (sysCallCapType == 0) {\n            // non-syscall case\n        } else if (sysCallCapType == 0x03) {\n            // This is a call system call\n            // parse a 32-byte value at offset 1 (offset 0 is the capType byte)\n            capIndex = parse32ByteValue(1);\n            // parse a 32-byte value at offset 1 (offset 0 is the capType byte,\n            // offset 1 is the capIndex (32 bytes)\n            // We also perform a shift as this is 24 byte value, not a 32 byte\n            // value\n            bytes24 procedureKey = bytes24(parse32ByteValue(1+32)/0x10000000000000000);\n            uint256 returnLength = uint256(parse32ByteValue(1+32*2));\n            uint256 dataLength;\n            // log1(bytes32(msg.data.length), bytes32(\"msg.data.length\"));\n            if (msg.data.length > (1+3*32)) {\n                dataLength = msg.data.length - (1+3*32);\n            } else {\n                dataLength = 0;\n            }\n            cap = procedures.checkCallCapability(uint192(currentProcedure), procedureKey, capIndex);\n            address procedureAddress = procedures.get(procedureKey);\n            // Note the procedure we are currently running, we will put this\n            // back into the \"currentProcedure\" after we have finished the call.\n            bytes24 previousProcedure = currentProcedure;\n            // We set the value for the current procedure in the kernel so that\n            // it knows which procedure it is executing (this is important for\n            // looking up capabilities).\n            currentProcedure = procedureKey;\n            // log1(bytes32(procedureKey),bytes32(\"calling\"));\n            if (cap) {\n                // log1(bytes32(\"permitted\"),bytes32(\"call-cap\"));\n                assembly {\n                    function malloc(size) -> result {\n                        // align to 32-byte words\n                        let rsize := add(size,sub(32,mod(size,32)))\n                        // get the current free mem location\n                        result :=  mload(0x40)\n                        // Bump the value of 0x40 so that it holds the next\n                        // available memory location.\n                        mstore(0x40,add(result,rsize))\n                    }\n\n                    function mallocZero(size) -> result {\n                        // align to 32-byte words\n                        let rsize := add(size,sub(32,mod(size,32)))\n                        // get the current free mem location\n                        result :=  mload(0x40)\n                        // zero-out the memory\n                        // if there are some bytes to be allocated (rsize is not zero)\n                        if rsize {\n                            // loop through the address and zero them\n                            for { let n := 0 } iszero(eq(n, rsize)) { n := add(n, 32) } {\n                                mstore(add(result,n),0)\n                            }\n\n                        }\n                        // Bump the value of 0x40 so that it holds the next\n                        // available memory location.\n                        mstore(0x40,add(result,rsize))\n                    }\n\n                    // Retrieve the address of new available memory from address 0x40\n                    // we will use this as the start of the input (ins)\n                    let ins\n                    let inl\n                    if dataLength {\n                        // If there is any data associated with this procedure\n                        // call (this inlcudes the data such as a function\n                        // selector) we need to set that as the input data to\n                        // the delegatecall.\n                        // First we must allocate some memory.\n                        ins :=  malloc(dataLength)\n                        // Then we store that data at this allocated memory\n                        // location\n                        calldatacopy(ins, 97, dataLength)\n                        inl := dataLength\n                    }\n                    if iszero(dataLength) {\n                        // If there is not data to be sent we just set the\n                        // location and length of the input data to zero. The\n                        // location doesn't actually matter as long the length\n                        // is zero.\n                        ins := 0\n                        inl := 0\n                    }\n                    let retLoc := mallocZero(returnLength)\n                    let status := delegatecall(\n                        // The gas we are budgeting, which is always all the\n                        // available gas\n                        gas,\n                        // The address for the chosen procedure which we\n                        // obtained earlier\n                        procedureAddress,\n                        // The starting memory offset of the innput data\n                        ins,\n                        // The length of the input data\n                        inl,\n                        // The starting memory offset to place the output data\n                        retLoc,\n                        // The length of the output data\n                        returnLength)\n                    // We need to restore the previous procedure as the current\n                    // procedure, this can simply be on the stack\n                    sstore(currentProcedure_slot,div(previousProcedure,exp(0x100,8)))\n                    if iszero(status) {\n                        let errStore := malloc(0x20)\n                        mstore(errStore,add(22,mload(retLoc)))\n                        revert(errStore,0x20)\n                    }\n                    if eq(status,1) {\n                        return(retLoc,returnLength)\n                    }\n                }\n            } else {\n                // log1(bytes32(\"not-permitted\"),bytes32(\"call-cap\"));\n                assembly {\n                    // 33 means the capability was rejected\n                    mstore(0,33)\n                    revert(0,0x20)\n                }\n            }\n        } else if (sysCallCapType == 0x07) {\n            // This is a store system call\n            // Here we have established that we are processing a write call and\n            // we must destructure the necessary values.\n            capIndex = parse32ByteValue(1);\n            uint256 writeAddress = parse32ByteValue(1+32*1);\n            uint256 writeValue = parse32ByteValue(1+32*2);\n            cap = procedures.checkWriteCapability(uint192(currentProcedure), writeAddress, capIndex);\n            if (cap) {\n                assembly {\n                    sstore(writeAddress, writeValue)\n                    // We don't need to return anything\n                    return(0,0)\n                }\n            } else {\n                assembly {\n                    mstore(0,22)\n                    return(0,0x20)\n                }\n            }\n        } else if (sysCallCapType == 0x09) {\n            // This is a log system call\n            // Here we have established that we are processing a write call and\n            // we must destructure the necessary values.\n            capIndex = parse32ByteValue(1);\n            uint256 nTopics = parse32ByteValue(1+32*1);\n            bytes32[] memory topicVals = new bytes32[](nTopics);\n            for (uint256 i = 0; i < nTopics; i++) {\n                topicVals[i] = bytes32(parse32ByteValue(1+32*(2+i)));\n            }\n            bytes32 logValue = bytes32(parse32ByteValue(1+32*(2+nTopics)));\n            cap = procedures.checkLogCapability(uint192(currentProcedure), topicVals, capIndex);\n            if (cap) {\n                if (nTopics == 0) {\n                    log0(logValue);\n                    assembly {\n                        // We don't need to return anything\n                        return(0,0)\n                    }\n                } else if (nTopics == 1) {\n                    log1(logValue, topicVals[0]);\n                    assembly {\n                        // We don't need to return anything\n                        return(0,0)\n                    }\n                } else if (nTopics == 2) {\n                    log2(logValue, topicVals[0], topicVals[1]);\n                    assembly {\n                        // We don't need to return anything\n                        return(0,0)\n                    }\n                } else if (nTopics == 3) {\n                    log3(logValue, topicVals[0], topicVals[1], topicVals[2]);\n                    assembly {\n                        // We don't need to return anything\n                        return(0,0)\n                    }\n                } else if (nTopics == 4) {\n                    log4(logValue, topicVals[0], topicVals[1], topicVals[2], topicVals[3]);\n                    assembly {\n                        // We don't need to return anything\n                        return(0,0)\n                    }\n                } else {\n                    assembly {\n                        // Revert with an error code\n                        mstore(0,44)\n                        revert(0,0x20)\n                    }\n                }\n            } else {\n                assembly {\n                    mstore(0,33)\n                    revert(0,0x20)\n                }\n            }\n            assembly{\n                mstore(0xd,152)\n                return(0xd,0x20)\n            }\n        } else {\n            // default; fallthrough action\n            assembly {\n                mstore8(0xb0,5)\n                log0(0xb0, 1)\n            }\n        }\n    }\n\n    // Create a procedure without  going through any validation. This is mainly\n    // used for testing and should not exist in a production kernel.\n    // TODO: Currently this calls the normal createAnyProcedure function, which\n    // needs to be updated to do validation.\n    function registerProcedure(bytes24 name, address procedureAddress, uint256[] caps) public returns (uint8 err, address retAddress) {\n        if (validateContract(procedureAddress) == 0) {\n            return registerAnyProcedure(name, procedureAddress, caps);\n        } else {\n            revert(\"procedure code failed validation\");\n        }\n    }\n\n    // Create a validated procedure.\n    function registerAnyProcedure(bytes24 name, address procedureAddress, uint256[] caps) public returns (uint8 err, address retAddress) {\n        // Check whether the first byte is null and set err to 1 if so\n        if (name == 0) {\n            err = 1;\n            return;\n        }\n\n        // Check whether the address exists\n        bool exist = procedures.contains(name);\n        if (exist) {\n            err = 3;\n            return;\n        }\n\n        procedures.insert(name, procedureAddress, caps);\n\n        retAddress = procedureAddress;\n    }\n\n    function deleteProcedure(bytes24 name) public returns (uint8 err, address procedureAddress) {\n        // Check whether the first byte is null and set err to 1 if so\n        if (name[0] == 0) {\n            err = 1;\n            return;\n        }\n\n        procedureAddress = procedures.get(name);\n        bool success = procedures.remove(name);\n\n        // Check whether the address exists\n        if (!success) {err = 2;}\n    }\n\n    function listProcedures() public view returns (bytes24[] memory) {\n        return procedures.getKeys();\n    }\n\n    function returnRawProcedureTable() public view returns (uint256[]) {\n        return procedures.returnRawProcedureTable();\n    }\n\n    function returnProcedureTable() public view returns (uint256[]) {\n        return procedures.returnProcedureTable();\n    }\n\n    // function nProcedures() public view returns (uint256) {\n    //     return procedures.size();\n    // }\n\n\n    function getProcedure(bytes24 name) public view returns (address) {\n        return procedures.get(name);\n    }\n\n    function executeProcedure(bytes24 name, string fselector, bytes payload, uint256 retSize) public returns (uint256 retVal) {\n        // // Check whether the first byte is null and set err to 1 if so\n        if (name[0] == 0) {\n            retVal = 1;\n            return;\n        }\n        // Check whether the address exists\n        bool exist = procedures.contains(name);\n        if (!exist) {\n            retVal = 3;\n            return;\n        }\n        // TODO: I believe this should use the keyindex\n        // assembly {\n        //     sstore(currentProcedure_slot,div(name,exp(0x100,8)))\n        // }\n        currentProcedure = name;\n        address procedureAddress = procedures.get(name);\n        bool status = false;\n        assembly {\n            function malloc(size) -> result {\n                // align to 32-byte words\n                let rsize := add(size,sub(32,mod(size,32)))\n                // get the current free mem location\n                result :=  mload(0x40)\n                // Bump the value of 0x40 so that it holds the next\n                // available memory location.\n                mstore(0x40,add(result,rsize))\n            }\n            function mallocZero(size) -> result {\n                // align to 32-byte words\n                let rsize := add(size,sub(32,mod(size,32)))\n                // get the current free mem location\n                result :=  mload(0x40)\n                // zero-out the memory\n                // if there are some bytes to be allocated (rsize is not zero)\n                if rsize {\n                    // loop through the address and zero them\n                    for { let n := 0 } iszero(eq(n, rsize)) { n := add(n, 32) } {\n                        mstore(add(result,n),0)\n                    }\n\n                }\n                // Bump the value of 0x40 so that it holds the next\n                // available memory location.\n                mstore(0x40,add(result,rsize))\n            }\n            // Allocate new memory on the stack for function selector and\n            // payload data.\n            let inl := 0\n            // if we have a function selector, we start with a length of 4\n            // bytes\n            // If there is no function selector, send nothing. mload(fselector)\n            // is the length.\n            if mload(fselector) {\n                // set the input length to 4\n                inl := 4\n            }\n            // Then we add on the length of the payload\n            inl := add(inl,mload(payload))\n\n            // n is the actual size we allocate for the input buffer (which may\n            // be a little more than we actually need to send)\n            let n := inl\n            // We need at least 0x20 bytes to perform our hash in, even though\n            // we won't send it all\n            if lt(n,0x20) {\n                n := 0x20\n            }\n            let ins := malloc(n)\n\n            // next we need to create the function selector hash (if it exists)\n            if mload(fselector) {\n                // we don't need to allocate memory as we already have enough\n                // space in the input buffer (we always allocate at lest 0x20)\n                // // allocate some memory to work with\n                // let n :=  malloc(0x20)\n                // Take the keccak256 hash of that string, store at location n\n                // mstore\n                // Argument #1: The address (n) calculated above, to store the\n                //    hash.\n                // Argument #2: The hash, calculted as follows:\n                //   keccack256\n                //   Argument #1: The location of the fselector string (which\n                //     is simply the name of the variable) with an added offset\n                //     of 0x20, as the first 0x20 is reserved for the length of\n                //     the string.\n                //   Argument #2: The length of the string, which is loaded from\n                //     the first 0x20 of the string.\n                // This hash must be written first, as it write 32 bytes and\n                // would overwrite our payload data. We will store the payload\n                // data after this so the unused hash bytes get overwrittem.\n                mstore(ins,keccak256(add(fselector,0x20),mload(fselector)))\n            }\n            // Copy the payload data into the input buffer\n            // i starts as the payload length\n            let i := mload(payload)\n            // The start offset of payload data (either 0 or 4);\n            let payloadStart := add(ins,0)\n            if mload(fselector) {\n                payloadStart := add(ins,4)\n            }\n            if i {\n                for { } i { i := sub(i,  1) } {\n                    mstore8(add(payloadStart,sub(i,  1)),mload(add(payload,i)))\n                }\n            }\n            // There is no return value, therefore it's length is 0 bytes long\n            // REVISION: lets assume a 32 byte return value for now\n            let outl := retSize\n            let outs := mallocZero(outl)\n\n            status := callcode(gas,procedureAddress,0,ins,inl,outs,outl)\n            // Zero-out the currentProcedure\n            sstore(currentProcedure_slot,0)\n            if eq(status,0) {\n                let errStore := malloc(0x20)\n                mstore(errStore,add(220000,mload(outs)))\n                // mstore(0x40,235)\n                // log1(errStore,0x20,\"returnedErr\")\n                return(errStore,0x20)\n            }\n            if eq(status,1) {\n                // log1(outs,outl,\"returned\")\n                return(outs,outl)\n            }\n        }\n        if (!status) {\n            retVal = 85;\n        }\n    }\n}",
  "sourcePath": "/mnt/c/Users/Raketa/Documents/Repos/beakeros/contracts/Kernel.sol",
  "compiler": {
    "name": "solc",
    "version": "0.4.24+commit.e67f0147.Emscripten.clang"
  },
  "schemaVersion": "2.0.1",
  "updatedAt": "2018-10-16T14:59:29.617Z"
}