{
  "contractName": "Kernel",
  "abi": [
    {
      "constant": true,
      "inputs": [
        {
          "name": "",
          "type": "bytes1"
        }
      ],
      "name": "opCodes",
      "outputs": [
        {
          "name": "",
          "type": "uint8"
        }
      ],
      "payable": false,
      "stateMutability": "view",
      "type": "function"
    },
    {
      "constant": true,
      "inputs": [
        {
          "name": "oCode",
          "type": "bytes"
        }
      ],
      "name": "codeLength",
      "outputs": [
        {
          "name": "len",
          "type": "uint256"
        }
      ],
      "payable": false,
      "stateMutability": "pure",
      "type": "function"
    },
    {
      "constant": true,
      "inputs": [
        {
          "name": "oCode",
          "type": "bytes"
        }
      ],
      "name": "validate",
      "outputs": [
        {
          "name": "err",
          "type": "uint8"
        }
      ],
      "payable": false,
      "stateMutability": "view",
      "type": "function"
    },
    {
      "constant": false,
      "inputs": [
        {
          "name": "oCode",
          "type": "bytes"
        }
      ],
      "name": "create",
      "outputs": [
        {
          "name": "d",
          "type": "address"
        }
      ],
      "payable": false,
      "stateMutability": "nonpayable",
      "type": "function"
    },
    {
      "constant": true,
      "inputs": [
        {
          "name": "oCode",
          "type": "bytes"
        }
      ],
      "name": "codePosition",
      "outputs": [
        {
          "name": "code",
          "type": "uint256"
        }
      ],
      "payable": false,
      "stateMutability": "pure",
      "type": "function"
    },
    {
      "inputs": [],
      "payable": false,
      "stateMutability": "nonpayable",
      "type": "constructor"
    },
    {
      "payable": false,
      "stateMutability": "nonpayable",
      "type": "fallback"
    },
    {
      "anonymous": false,
      "inputs": [
        {
          "indexed": false,
          "name": "message",
          "type": "string"
        }
      ],
      "name": "KernelLog",
      "type": "event"
    },
    {
      "constant": true,
      "inputs": [],
      "name": "testGetter",
      "outputs": [
        {
          "name": "",
          "type": "uint256"
        }
      ],
      "payable": false,
      "stateMutability": "view",
      "type": "function"
    },
    {
      "constant": false,
      "inputs": [
        {
          "name": "value",
          "type": "uint256"
        }
      ],
      "name": "testSetter",
      "outputs": [],
      "payable": false,
      "stateMutability": "nonpayable",
      "type": "function"
    },
    {
      "constant": false,
      "inputs": [
        {
          "name": "name",
          "type": "bytes24"
        },
        {
          "name": "oCode",
          "type": "bytes"
        },
        {
          "name": "caps",
          "type": "uint256[]"
        }
      ],
      "name": "createProcedure",
      "outputs": [
        {
          "name": "err",
          "type": "uint8"
        },
        {
          "name": "procedureAddress",
          "type": "address"
        }
      ],
      "payable": false,
      "stateMutability": "nonpayable",
      "type": "function"
    },
    {
      "constant": false,
      "inputs": [
        {
          "name": "name",
          "type": "bytes24"
        }
      ],
      "name": "deleteProcedure",
      "outputs": [
        {
          "name": "err",
          "type": "uint8"
        },
        {
          "name": "procedureAddress",
          "type": "address"
        }
      ],
      "payable": false,
      "stateMutability": "nonpayable",
      "type": "function"
    },
    {
      "constant": true,
      "inputs": [],
      "name": "listProcedures",
      "outputs": [
        {
          "name": "",
          "type": "bytes24[]"
        }
      ],
      "payable": false,
      "stateMutability": "view",
      "type": "function"
    },
    {
      "constant": true,
      "inputs": [],
      "name": "returnRawProcedureTable",
      "outputs": [
        {
          "name": "",
          "type": "uint256[]"
        }
      ],
      "payable": false,
      "stateMutability": "view",
      "type": "function"
    },
    {
      "constant": true,
      "inputs": [],
      "name": "returnProcedureTable",
      "outputs": [
        {
          "name": "",
          "type": "uint256[]"
        }
      ],
      "payable": false,
      "stateMutability": "view",
      "type": "function"
    },
    {
      "constant": false,
      "inputs": [
        {
          "name": "name",
          "type": "bytes24"
        }
      ],
      "name": "getProcedure",
      "outputs": [
        {
          "name": "",
          "type": "address"
        }
      ],
      "payable": false,
      "stateMutability": "nonpayable",
      "type": "function"
    },
    {
      "constant": false,
      "inputs": [
        {
          "name": "name",
          "type": "bytes24"
        },
        {
          "name": "fselector",
          "type": "string"
        },
        {
          "name": "payload",
          "type": "bytes"
        }
      ],
      "name": "executeProcedure",
      "outputs": [
        {
          "name": "retVal",
          "type": "uint256"
        }
      ],
      "payable": false,
      "stateMutability": "nonpayable",
      "type": "function"
    }
  ],
  "bytecode": "0x608060405234801561001057600080fd5b50600361800055612bfb806100266000396000f3006080604052600436106100d0576000357c0100000000000000000000000000000000000000000000000000000000900463ffffffff1680630133beb0146107785780630866a87d146107a3578063087536ec1461080c5780630ce535e81461088957806320fc0a951461090157806354b3f3cb146109865780636178db0f14610a945780637e7e884114610b005780639738849b14610b6c578063c16e50ef14610c44578063c5ce720414610cc7578063cf5ba53f14610cf4578063dfe4399214610d9d578063e34bf5c514610e1a575b3480156100dc57600080fd5b506000806060600080600080600080600080606060008061010060405190808252806020026020018201604052801561012f57816020015b61011c612b27565b8152602001906001900390816101145790505b509b5061013a610e86565b1561017d5761017c336000368080601f016020809104026020016040519081016040528093929190818152602001838380828437820191505050505050610ebd565b5b6000366000818110151561018d57fe5b905001357f010000000000000000000000000000000000000000000000000000000000000090047f0100000000000000000000000000000000000000000000000000000000000000027effffffffffffffffffffffffffffffffffffffffffffffffffffffffffffff19167f010000000000000000000000000000000000000000000000000000000000000090049a5060008b60ff16141561022e57610768565b60038b60ff1614156103ab576102446001610ee6565b9c506801000000000000000061025a6021610ee6565b81151561026357fe5b046801000000000000000002995061027b6041610ee6565b9850606160003690501115610299576061600036905003975061029e565b600097505b6102d9600360009054906101000a900468010000000000000000026801000000000000000090048b8f6001610fc0909392919063ffffffff16565b9d506102ef8a60016110e390919063ffffffff16565b965089600360006101000a81548177ffffffffffffffffffffffffffffffffffffffffffffffff021916908368010000000000000000900402179055508d1561039b57600080891561034f57604051915089820160405289606183378990505b89151561035f5760009150600090505b8a6060828460008d5af28960035560008114156103855760605160160160005260206000f35b6001811415610393578b6060f35b5050506103a6565b602160005260206000fd5b610767565b60078b60ff161415610431576103c16001610ee6565b9c506103cd6021610ee6565b95506103d96041610ee6565b9450610416600360009054906101000a90046801000000000000000002680100000000000000009004878f600161110f909392919063ffffffff16565b9d508d1561042657848655600080f35b601660005260206000f35b60098b60ff16141561074a576104476001610ee6565b9c506104536021610ee6565b9350836040519080825280602002602001820160405280156104845781602001602082028038833980820191505090505b509250600091505b838210156104dc576104a682600201602002600101610ee6565b60010283838151811015156104b757fe5b906020019060200201906000191690816000191681525050818060010192505061048c565b6104ee84600201602002600101610ee6565b600102905061052e600360009054906101000a90046801000000000000000002680100000000000000009004848f6001611224909392919063ffffffff16565b9d508d1561073f576000841415610562578060405180826000191660001916815260200191505060405180910390a0600080f35b60018414156105ab5782600081518110151561057a57fe5b90602001906020020151600019168160405180826000191660001916815260200191505060405180910390a1600080f35b6002841415610611578260018151811015156105c357fe5b90602001906020020151600019168360008151811015156105e057fe5b90602001906020020151600019168260405180826000191660001916815260200191505060405180910390a2600080f35b60038414156106945782600281518110151561062957fe5b906020019060200201516000191683600181518110151561064657fe5b906020019060200201516000191684600081518110151561066357fe5b90602001906020020151600019168360405180826000191660001916815260200191505060405180910390a3600080f35b6004841415610734578260038151811015156106ac57fe5b90602001906020020151600019168360028151811015156106c957fe5b90602001906020020151600019168460018151811015156106e657fe5b906020019060200201516000191685600081518110151561070357fe5b90602001906020020151600019168460405180826000191660001916815260200191505060405180910390a4600080f35b602c60005260206000fd5b602160005260206000fd5b60038b60ff16141561075b57610766565b600560b053600160b0a05b5b5b5050505050505050505050505050005b34801561078457600080fd5b5061078d611401565b6040518082815260200191505060405180910390f35b3480156107af57600080fd5b506107f060048036038101908080357effffffffffffffffffffffffffffffffffffffffffffffffffffffffffffff19169060200190929190505050611410565b604051808260ff1660ff16815260200191505060405180910390f35b34801561081857600080fd5b50610873600480360381019080803590602001908201803590602001908080601f0160208091040260200160405190810160405280939291908181526020018383808284378201915050505050509192919290505050611430565b6040518082815260200191505060405180910390f35b34801561089557600080fd5b506108bf600480360381019080803567ffffffffffffffff1916906020019092919050505061143b565b604051808273ffffffffffffffffffffffffffffffffffffffff1673ffffffffffffffffffffffffffffffffffffffff16815260200191505060405180910390f35b34801561090d57600080fd5b50610937600480360381019080803567ffffffffffffffff19169060200190929190505050611458565b604051808360ff1660ff1681526020018273ffffffffffffffffffffffffffffffffffffffff1673ffffffffffffffffffffffffffffffffffffffff1681526020019250505060405180910390f35b34801561099257600080fd5b50610a45600480360381019080803567ffffffffffffffff19169060200190929190803590602001908201803590602001908080601f016020809104026020016040519081016040528093929190818152602001838380828437820191505050505050919291929080359060200190820180359060200190808060200260200160405190810160405280939291908181526020018383602002808284378201915050505050509192919290505050611522565b604051808360ff1660ff1681526020018273ffffffffffffffffffffffffffffffffffffffff1673ffffffffffffffffffffffffffffffffffffffff1681526020019250505060405180910390f35b348015610aa057600080fd5b50610aa96115a1565b6040518080602001828103825283818151815260200191508051906020019060200280838360005b83811015610aec578082015181840152602081019050610ad1565b505050509050019250505060405180910390f35b348015610b0c57600080fd5b50610b156115b2565b6040518080602001828103825283818151815260200191508051906020019060200280838360005b83811015610b58578082015181840152602081019050610b3d565b505050509050019250505060405180910390f35b348015610b7857600080fd5b50610c2e600480360381019080803567ffffffffffffffff19169060200190929190803590602001908201803590602001908080601f0160208091040260200160405190810160405280939291908181526020018383808284378201915050505050509192919290803590602001908201803590602001908080601f01602080910402602001604051908101604052809392919081815260200183838082843782019150505050505091929192905050506115c3565b6040518082815260200191505060405180910390f35b348015610c5057600080fd5b50610cab600480360381019080803590602001908201803590602001908080601f0160208091040260200160405190810160405280939291908181526020018383808284378201915050505050509192919290505050611737565b604051808260ff1660ff16815260200191505060405180910390f35b348015610cd357600080fd5b50610cf260048036038101908080359060200190929190505050611872565b005b348015610d0057600080fd5b50610d5b600480360381019080803590602001908201803590602001908080601f016020809104026020016040519081016040528093929190818152602001838380828437820191505050505050919291929050505061187a565b604051808273ffffffffffffffffffffffffffffffffffffffff1673ffffffffffffffffffffffffffffffffffffffff16815260200191505060405180910390f35b348015610da957600080fd5b50610e04600480360381019080803590602001908201803590602001908080601f0160208091040260200160405190810160405280939291908181526020018383808284378201915050505050509192919290505050611892565b6040518082815260200191505060405180910390f35b348015610e2657600080fd5b50610e2f6118a2565b6040518080602001828103825283818151815260200191508051906020019060200280838360005b83811015610e72578082015181840152602081019050610e57565b505050509050019250505060405180910390f35b6000806801000000000000000002600360009054906101000a9004680100000000000000000267ffffffffffffffff191614905090565b604060806043601d6000738885584aa73fccf0f4572a770d1a0d6bd0b4360a5af2606052606080f35b6000806000809150600090505b6020811015610fb6576008829060020a0291506000368286018181101515610f1757fe5b905001357f010000000000000000000000000000000000000000000000000000000000000090047f0100000000000000000000000000000000000000000000000000000000000000027effffffffffffffffffffffffffffffffffffffffffffffffffffffffffffff19167f01000000000000000000000000000000000000000000000000000000000000009004821791508080600101915050610ef3565b8192505050919050565b6000610fca612b5a565b610fd2612b95565b6000610fdd876118b3565b925060008360400151511480610ffa575060018360400151510385115b1561100857600093506110d8565b82604001518581518110151561101a57fe5b9060200190602002015191506003826000015160ff1614151561104057600093506110d8565b6000826020015151141561105757600193506110d8565b600090505b8160200151518110156110d7578567ffffffffffffffff19166801000000000000000083602001518381518110151561109157fe5b906020019060200201518115156110a457fe5b04680100000000000000000267ffffffffffffffff191614156110ca57600193506110d8565b808060010191505061105c565b5b505050949350505050565b60006111076000600161110185680100000000000000009004611b42565b01611c15565b905092915050565b6000611119612b5a565b611121612b95565b600080600061112f896118b3565b94506000856040015151148061114c575060018560400151510387115b1561115a5760009550611217565b84604001518781518110151561116c57fe5b906020019060200201519350836000015160ff1692506007831415156111955760009550611217565b600284602001515110156111ac5760009550611217565b836020015160008151811015156111bf57fe5b906020019060200201519150836020015160018151811015156111de57fe5b9060200190602002015190506007831480156111fa5750818810155b801561120857508082018811155b156112165760019550611217565b5b5050505050949350505050565b600061122e612b5a565b611236612b95565b60008060606000806112478b6118b3565b965060008760400151511480611264575060018760400151510389115b1561127257600097506113f2565b86604001518981518110151561128457fe5b906020019060200201519550856000015160ff1694506009851415156112ad57600097506113f2565b600186602001515110156112c457600097506113f2565b856020015160008151811015156112d757fe5b906020019060200201519350836040519080825280602002602001820160405280156113125781602001602082028038833980820191505090505b509250600091505b838210156113775785602001516001830181518110151561133757fe5b90602001906020020151600102838381518110151561135257fe5b906020019060200201906000191690816000191681525050818060010192505061131a565b82518a51101561138a57600097506113f2565b600090505b82518110156113ed5782818151811015156113a657fe5b90602001906020020151600019168a828151811015156113c257fe5b90602001906020020151600019161415156113e057600097506113f2565b808060010191505061138f565b600197505b50505050505050949350505050565b60006180005460005260206000f35b60006020528060005260406000206000915054906101000a900460ff1681565b600081519050919050565b60006114518260016110e390919063ffffffff16565b9050919050565b6000806000807f01000000000000000000000000000000000000000000000000000000000000000284600060188110151561148f57fe5b1a7f0100000000000000000000000000000000000000000000000000000000000000027effffffffffffffffffffffffffffffffffffffffffffffffffffffffffffff191614156114e3576001925061151c565b6114f78460016110e390919063ffffffff16565b915061150d846001611c2f90919063ffffffff16565b905080151561151b57600292505b5b50915091565b60008060008068010000000000000000028667ffffffffffffffff1916141561154e5760019250611598565b611562866001611d5d90919063ffffffff16565b905080156115735760039250611598565b61157c8561187a565b91506115968683866001611d88909392919063ffffffff16565b505b50935093915050565b60606115ad6001611e77565b905090565b60606115be6001612279565b905090565b60008060008060007f0100000000000000000000000000000000000000000000000000000000000000028760006018811015156115fc57fe5b1a7f0100000000000000000000000000000000000000000000000000000000000000027effffffffffffffffffffffffffffffffffffffffffffffffffffffffffffff19161415611650576001935061172d565b611664876001611d5d90919063ffffffff16565b9250821515611676576003935061172d565b86600360006101000a81548177ffffffffffffffffffffffffffffffffffffffffffffffff021916908368010000000000000000900402179055506116c58760016110e390919063ffffffff16565b91506000905060405160208101604052865160208801208152806004606060208082848660008b5af295506000600355600086141561170e57815162035b600160005260206000f35b600186141561171b578082f35b505050505080151561172c57605593505b5b5050509392505050565b60008060008091505b835182101561186657838281518110151561175757fe5b9060200101517f010000000000000000000000000000000000000000000000000000000000000090047f0100000000000000000000000000000000000000000000000000000000000000027f01000000000000000000000000000000000000000000000000000000000000009004905060f08160ff1614156117dc576001925061186b565b60f18160ff1614156117f1576002925061186b565b60f28160ff161415611806576003925061186b565b60f48160ff16141561181b576004925061186b565b60ff8160ff161415611830576005925061186b565b60608160ff16101580156118485750607f8160ff1611155b1561185957605f810360ff16820191505b8180600101925050611740565b600092505b5050919050565b806180005550565b6000815160208301818101816000f092505050919050565b6000815160008301915050919050565b60606118ae600161237a565b905090565b6118bb612b5a565b60008060008060008060006118cf89611b42565b96506118dc600088611c15565b886000019060ff16908160ff16815250506118fb600060018901611c15565b886020019073ffffffffffffffffffffffffffffffffffffffff16908173ffffffffffffffffffffffffffffffffffffffff1681525050611940600060028901611c15565b95508560405190808252806020026020018201604052801561197c57816020015b611969612bb2565b8152602001906001900390816119615790505b50886040018190525060009450600093505b60fd847effffffffffffffffffffffffffffffffffffffffffffffffffffffffffffff161015611b365785851015156119c657611b36565b6119d660008560038a0101611c15565b92506119eb600060018660038b010101611c15565b8860400151868151811015156119fd57fe5b906020019060200201516000019060ff16908160ff168152505060018303915081604051908082528060200260200182016040528015611a4c5781602001602082028038833980820191505090505b50886040015186815181101515611a5f57fe5b9060200190602002015160200181905250600090505b81817effffffffffffffffffffffffffffffffffffffffffffffffffffffffffffff161015611b1c57611ab360008260028760038c01010101611c15565b886040015186815181101515611ac557fe5b9060200190602002015160200151827effffffffffffffffffffffffffffffffffffffffffffffffffffffffffffff16815181101515611b0157fe5b90602001906020020181815250508080600101915050611a75565b82840193508480600101955050838060010194505061198e565b50505050505050919050565b60008060405180807f70726f636564757265506f696e7465720000000000000000000000000000000081525060100190506040518091039020905060088377ffffffffffffffffffffffffffffffffffffffffffffffff1660c083600190047dffffffffffffffffffffffffffffffffffffffffffffffffffffffffffff169060020a02177dffffffffffffffffffffffffffffffffffffffffffffffffffffffffffff167effffffffffffffffffffffffffffffffffffffffffffffffffffffffffffff169060020a02915050919050565b600080611c22848461251c565b9050805491505092915050565b6000611c39612b5a565b6000806000806000806000611c598a6801000000000000000090046118b3565b97506000886000015160ff161415611c745760009850611d4f565b611c7c612554565b9650611c89600088611c15565b955085886000015160ff16111515611d4e57611cb08a680100000000000000009004611b42565b9450611cbf88600001516125da565b9350611ccd600187036125da565b9250611cda600084611c15565b9150611ce582611b42565b9050611cfa6000828a6000015160ff1661266a565b611d206000858477ffffffffffffffffffffffffffffffffffffffffffffffff1661266a565b611d2d600084600061266a565b611d3685612681565b611d456000886001890361266a565b60019850611d4f565b5b505050505050505092915050565b600080611d7f6000611d7a85680100000000000000009004611b42565b611c15565b11905092915050565b6000611d92612b5a565b600080611daa876801000000000000000090046118b3565b925085836020019073ffffffffffffffffffffffffffffffffffffffff16908173ffffffffffffffffffffffffffffffffffffffff1681525050608085511115611df357600080fd5b611dfd83866126a1565b6000836000015160ff161115611e165760019350611e6c565b611e1e612554565b9150611e2b600083611c15565b905060018101836000019060ff16908160ff1681525050611e516000836001840161266a565b611e678388680100000000000000009004612898565b600093505b505050949350505050565b606080600060606000806000611e8b612b5a565b6000806000611e998c612279565b9950895198506101008902604051908082528060200260200182016040528015611ed25781602001602082028038833980820191505090505b50975060009650600095505b88867effffffffffffffffffffffffffffffffffffffffffffffffffffffffffffff1610156122675789867effffffffffffffffffffffffffffffffffffffffffffffffffffffffffffff16815181101515611f3657fe5b906020019060200201516801000000000000000090049450611f57856118b3565b93508477ffffffffffffffffffffffffffffffffffffffffffffffff168888815181101515611f8257fe5b90602001906020020181815250508680600101975050836000015160ff168888815181101515611fae57fe5b90602001906020020181815250508680600101975050836020015173ffffffffffffffffffffffffffffffffffffffff168888815181101515611fed57fe5b90602001906020020181815250508680600101975050836040015151888881518110151561201757fe5b90602001906020020181815250508680600101975050600092505b836040015151837effffffffffffffffffffffffffffffffffffffffffffffffffffffffffffff16101561225a5760018460400151847effffffffffffffffffffffffffffffffffffffffffffffffffffffffffffff1681518110151561209557fe5b9060200190602002015160200151510191508188888151811015156120b657fe5b906020019060200201818152505086806001019750508360400151837effffffffffffffffffffffffffffffffffffffffffffffffffffffffffffff168151811015156120ff57fe5b906020019060200201516000015160ff16888881518110151561211e57fe5b90602001906020020181815250508680600101975050600090505b8360400151837effffffffffffffffffffffffffffffffffffffffffffffffffffffffffffff1681518110151561216c57fe5b906020019060200201516020015151817effffffffffffffffffffffffffffffffffffffffffffffffffffffffffffff16101561224d578360400151837effffffffffffffffffffffffffffffffffffffffffffffffffffffffffffff168151811015156121d657fe5b9060200190602002015160200151817effffffffffffffffffffffffffffffffffffffffffffffffffffffffffffff1681518110151561221257fe5b90602001906020020151888881518110151561222a57fe5b906020019060200201818152505086806001019750508080600101915050612139565b8280600101935050612032565b8580600101965050611ede565b879a5050505050505050505050919050565b60606000806000612288612554565b9250612295600084611c15565b9150816040519080825280602002602001820160405280156122c65781602001602082028038833980820191505090505b509350600090505b81817effffffffffffffffffffffffffffffffffffffffffffffffffffffffffffff161015612372576123076000600283860101611c15565b680100000000000000000284827effffffffffffffffffffffffffffffffffffffffffffffffffffffffffffff1681518110151561234157fe5b9060200190602002019067ffffffffffffffff1916908167ffffffffffffffff1916815250506001810190506122ce565b505050919050565b6060806000606060008060008060006123928a612279565b97508751965061010187026040519080825280602002602001820160405280156123cb5781602001602082028038833980820191505090505b50955060009450600093505b86847effffffffffffffffffffffffffffffffffffffffffffffffffffffffffffff16101561250c5787847effffffffffffffffffffffffffffffffffffffffffffffffffffffffffffff1681518110151561242f57fe5b90602001906020020151680100000000000000009004925061245083611b42565b91508277ffffffffffffffffffffffffffffffffffffffffffffffff16868681518110151561247b57fe5b90602001906020020181815250508480600101955050600090505b610100817effffffffffffffffffffffffffffffffffffffffffffffffffffffffffffff1610156124ff576124ce6000828401611c15565b86868151811015156124dc57fe5b906020019060200201818152505084806001019550508080600101915050612496565b83806001019450506123d7565b8598505050505050505050919050565b600060f88360ff169060020a02827effffffffffffffffffffffffffffffffffffffffffffffffffffffffffffff1617905092915050565b60008060405180807f6b6579506f696e74657200000000000000000000000000000000000000000000815250600a0190506040518091039020905060f081780100000000000000000000000000000000000000000000000090047effffffffffffffffffffffffffffffffffffffffffffffffffffffffffffff169060020a0291505090565b60008060405180807f6b6579506f696e74657200000000000000000000000000000000000000000000815250600a019050604051809103902090508260ff16600160f083780100000000000000000000000000000000000000000000000090047effffffffffffffffffffffffffffffffffffffffffffffffffffffffffffff169060020a020101915050919050565b6000612676848461251c565b905081815550505050565b61268e600082600061266a565b61269e600060018301600061266a565b50565b60008060008060008060009550600094505b86518510156126f05786858151811015156126ca57fe5b9060200190602002015193508385019450858060010196505084806001019550506126b3565b8560405190808252806020026020018201604052801561272a57816020015b612717612bb2565b81526020019060019003908161270f5790505b50886040018190525060009250600094505b865185101561288e57868581518110151561275357fe5b90602001906020020151935084806001019550506001840391508160405190808252806020026020018201604052801561279c5781602001602082028038833980820191505090505b508860400151848151811015156127af57fe5b906020019060200201516020018190525086858151811015156127ce57fe5b906020019060200201518860400151848151811015156127ea57fe5b906020019060200201516000019060ff16908160ff16815250508480600101955050600090505b8181101561288157868581518110151561282757fe5b9060200190602002015188604001518481518110151561284357fe5b90602001906020020151602001518281518110151561285e57fe5b906020019060200201818152505084806001019550508080600101915050612811565b828060010193505061273c565b5050505050505050565b6000806128a884600001516125da565b91506128d06000838577ffffffffffffffffffffffffffffffffffffffffffffffff1661266a565b6128d983611b42565b90506128e7846000836128ed565b50505050565b6128ff8282856000015160ff1661266a565b6129278260018301856020015173ffffffffffffffffffffffffffffffffffffffff1661266a565b61293a826002830185604001515161266a565b61294583838361294a565b505050565b6000806000806000809450600093505b876040015151847effffffffffffffffffffffffffffffffffffffffffffffffffffffffffffff161015612b1d578760400151847effffffffffffffffffffffffffffffffffffffffffffffffffffffffffffff168151811015156129bb57fe5b90602001906020020151602001515192506001830191506129e2878660038901018461266a565b8480600101955050612a3d878660038901018a60400151877effffffffffffffffffffffffffffffffffffffffffffffffffffffffffffff16815181101515612a2757fe5b906020019060200201516000015160ff1661266a565b8480600101955050600090505b82817effffffffffffffffffffffffffffffffffffffffffffffffffffffffffffff161015612b1057612afb878660038901018a60400151877effffffffffffffffffffffffffffffffffffffffffffffffffffffffffffff16815181101515612ab057fe5b9060200190602002015160200151847effffffffffffffffffffffffffffffffffffffffffffffffffffffffffffff16815181101515612aec57fe5b9060200190602002015161266a565b84806001019550508080600101915050612a4a565b838060010194505061295a565b5050505050505050565b6040805190810160405280600060ff168152602001600073ffffffffffffffffffffffffffffffffffffffff1681525090565b606060405190810160405280600060ff168152602001600073ffffffffffffffffffffffffffffffffffffffff168152602001606081525090565b6040805190810160405280600060ff168152602001606081525090565b6040805190810160405280600060ff1681526020016060815250905600a165627a7a72305820b43fa156de411ef8a3ef77a9036b0db3f0823b24345d1b15fa410aeb94c95d9f0029",
  "source": "pragma solidity ^0.4.17;\n\nimport \"./Factory.sol\";\nimport \"./ProcedureTable.sol\";\n\nlibrary WhatIsMyAddress {\n    function get() public view returns (address) {\n        return msg.sender;\n    }\n}\n\ncontract Kernel is Factory {\n    event KernelLog(string message);\n    using ProcedureTable for ProcedureTable.Self;\n    ProcedureTable.Self procedures;\n    address kernelAddress;\n    bytes24 currentProcedure;\n\n    struct Process {\n        // Equal to the index of the key of this item in keys, plus 1.\n        uint8 keyIndex;\n        address location;\n    }\n\n    function Kernel() public {\n        // kernelAddress = WhatIsMyAddress.get();\n        // This is an example kernel global variable for testing.\n        assembly {\n            sstore(0x8000,3)\n        }\n    }\n\n    function testGetter() public view returns(uint256) {\n        assembly {\n            mstore(0,sload(0x8000))\n            return(0,0x20)\n        }\n    }\n\n    function testSetter(uint256 value) public {\n        assembly {\n            sstore(0x8000,value)\n        }\n    }\n\n    function parse32ByteValue(uint256 startOffset) pure internal returns (uint256) {\n        uint256 value = 0;\n        for (uint256 i = 0; i < 32; i++) {\n            value = value << 8;\n            value = value | uint256(msg.data[startOffset+i]);\n        }\n        return value;\n    }\n\n    // Check if a transaction is external.\n    function isExternal() internal view returns (bool) {\n        // If the current transaction is from the procedure we are executing,\n        // then it is a systemcall. Otherwise it is an external transaction.\n        // We have in storage a value (currentProcedure) which states which\n        // procedure the kernel is currently executing. If we have this value\n        // then something is running, so it must be an internal transaction.\n        // If it is empty, it means we are not executing anything, and it is an\n        // external transaction.\n\n        // While the kernel is executing a procedure, nothing else can run\n        // across the whole blockchain, therefore we must be receiving a\n        // transaction from the procedure set in \"currentProcedure\"\n\n\n        // TODO: we will need to reserve a value for \"not executing anything\"\n        // If the transaction is from this procedure...\n        return (currentProcedure == 0);\n\n    }\n\n    // This is what we execute when we receive an external transaction.\n    function callGuardProcedure(address sender, bytes data) internal {\n        // revert(\"external call\");\n        // TODO: this is not currerntly in any code path because we just use\n        // \"executeProcedure\"\n        // here we need to use callcode. delegatecall would leave the CALLER as\n        // the account which started the transaction\n        // The address here needs to be updated to call Procedure1\n        // everytime Procedure1 is deployed\n        //\n        // TODO: Determine the address of the procedure at index 0 of\n        // the procedure table.\n        // This (from last parameters to first):\n        // 1. Allocates an area in memory of size 0x40 (64 bytes)\n        // 2.    At memory location 0x80\n        // 3. Set the input size to 67 bytes\n        // 4.    At memory location 29\n        // 5. Send 0 wei\n        // 6. The contract address we are calling to\n        // 7. The gas we are budgeting\n        //\n        assembly {\n            //        7                       6                       5   4   3   2      1\n            callcode(gas, 0x8885584aa73fccf0f4572a770d1a0d6bd0b4360a, 0, 29, 67, 0x80, 0x40)\n            // store the return code in memory location 0x60 (1 byte)\n            0x60\n            mstore\n            // return both delegatecall return values and the system call\n            // return value\n            return(0x60,0x60)\n        }\n    }\n\n    // This is the fallback function which is used to handle system calls. This\n    // is only called if the other functions fail.\n    function() public {\n        bool cap;\n        uint256 capIndex;\n        // This is the entry point for the kernel\n        // TODO: we aren't currently using this, as we can't invoke a cap that\n        // calls other procedures.\n        Process[] memory processTable = new Process[](256);\n        // Before we do anything, let's set up some information about this call.\n        // Where is this call coming from? If it is an external account we can\n        // just use the caller value.\n        // TODO: we will implement this when we stop using \"executeProcedure\"\n\n\n        // If it is an external account, we forward it straight to the init\n        // procedure. We currently shouldn't reach this point, as we usually use\n        // \"executeProcedure\"\n        if (isExternal()) {\n            callGuardProcedure(msg.sender, msg.data);\n        }\n\n        // Parse the system call\n        // SystemCall memory syscall = parseSystemCall();\n        uint8 sysCallCapType = uint8(msg.data[0]);\n\n        // 0x00 - not a syscall\n        // 0x01 - read syscall\n        // 0x03 - exec syscall\n        // 0x07 - write syscall\n        // 0x09 - log syscall\n\n        // TODO: this was used to track some things but conflicts with some\n        // tests\n        // log1(bytes32(currentProcedure), bytes32(\"current-procedure\"));\n\n        // Here we decode the system call (if there is one)\n        if (sysCallCapType == 0) {\n            // non-syscall case\n        } else if (sysCallCapType == 0x03) {\n            // This is a call system call\n            // parse a 32-byte value at offset 1 (offset 0 is the capType byte)\n            capIndex = parse32ByteValue(1);\n            // parse a 32-byte value at offset 1 (offset 0 is the capType byte,\n            // offset 1 is the capIndex (32 bytes)\n            // We also perform a shift as this is 24 byte value, not a 32 byte\n            // value\n            bytes24 procedureKey = bytes24(parse32ByteValue(1+32)/0x10000000000000000);\n            uint256 returnLength = uint256(parse32ByteValue(1+32*2));\n            uint256 dataLength;\n            // log1(bytes32(msg.data.length), bytes32(\"msg.data.length\"));\n            if (msg.data.length > (1+3*32)) {\n                dataLength = msg.data.length - (1+3*32);\n            } else {\n                dataLength = 0;\n            }\n            cap = procedures.checkCallCapability(uint192(currentProcedure), procedureKey, capIndex);\n            address procedureAddress = procedures.get(procedureKey);\n            // Set a new current procedure\n            // bytes24 previousProcedure = currentProcedure;\n            currentProcedure = procedureKey;\n            if (cap) {\n                assembly {\n                    // Retrieve the address of new available memory from address 0x40\n                    // we will use this as the start of the input (ins)\n                    let ins\n                    let inl\n                    if dataLength {\n                        // If there is any data associated with this procedure\n                        // call (this inlcudes the data such as a function\n                        // selector) we need to set that as the input data to\n                        // the delegatecall.\n                        // First we must allocate some memory.\n                        ins :=  mload(0x40) // get the allocated location\n                        // Bump the value of 0x40 so that it holds the next\n                        // available memory location.\n                        // TODO: align this bump to 32-byte boundaries\n                        mstore(0x40,add(ins,dataLength))\n\n                        // Then we store that data at this allocated memory\n                        // location\n                        calldatacopy(ins, 97, dataLength)\n                        inl := dataLength\n                        // log0(ins,inl)\n                    }\n                    if iszero(dataLength) {\n                        // If there is not data to be sent we just set the\n                        // location and length of the input data to zero. The\n                        // location doesn't actually matter as long the length\n                        // is zero.\n                        ins := 0\n                        inl := 0\n                    }\n                    // Take the keccak256 hash of that string, store at location n\n                    // mstore\n                    // Argument #1: The address (n) calculated above, to store the\n                    //    hash.\n                    // Argument #2: The hash, calculted as follows:\n                    //   keccack256\n                    //   Argument #1: The location of the fselector string (which\n                    //     is simply the name of the variable) with an added offset\n                    //     of 0x20, as the first 0x20 is reserved for the length of\n                    //     the string.\n                    //   Argument #2: The length of the string, which is loaded from\n                    //     the first 0x20 of the string.\n                    // mstore(n,keccak256(add(fselector,0x20),mload(fselector)))\n\n                    // The input starts at where we stored the hash (n)\n                    // let ins := n\n\n                    let status := callcode(\n                        // The gas we are budgeting, which is always all the\n                        // available gas\n                        gas,\n                        // The address for the chosen procedure which we\n                        // obtained earlier\n                        procedureAddress,\n                        // The value we are sending, we never want to do this\n                        0,\n                        // The starting memory offset of the innput data\n                        ins,\n                        // The length of the input data\n                        inl,\n                        // TODO: Allocate a new area of memory into which to\n                        // write the return data. This will depend on the size\n                        // of the return type.\n                        // The starting memory offset to place the output data\n                        0x60,\n                        // The length of the output data\n                        returnLength)\n                    // Store the procedure we are currently running\n                    sstore(currentProcedure_slot,procedureAddress)\n                    if eq(status,0) {\n                        // error\n                        mstore(0x0,add(22,mload(0x60)))\n                        // mstore(0x40,235)\n                        // TODO: switch to revert\n                        return(0x0,0x20)\n                    }\n                    if eq(status,1) {\n                        return(0x60,returnLength)\n                    }\n                }\n            } else {\n                assembly {\n                    // 33 means the capability was rejected\n                    mstore(0,33)\n                    revert(0,0x20)\n                }\n            }\n        } else if (sysCallCapType == 0x07) {\n            // This is a store system call\n            // Here we have established that we are processing a write call and\n            // we must destructure the necessary values.\n            capIndex = parse32ByteValue(1);\n            uint256 writeAddress = parse32ByteValue(1+32*1);\n            uint256 writeValue = parse32ByteValue(1+32*2);\n            cap = procedures.checkWriteCapability(uint192(currentProcedure), writeAddress, capIndex);\n            if (cap) {\n                assembly {\n                    sstore(writeAddress, writeValue)\n                    // We don't need to return anything\n                    return(0,0)\n                }\n            } else {\n                assembly {\n                    mstore(0,22)\n                    return(0,0x20)\n                }\n            }\n        } else if (sysCallCapType == 0x09) {\n            // This is a log system call\n            // Here we have established that we are processing a write call and\n            // we must destructure the necessary values.\n            capIndex = parse32ByteValue(1);\n            uint256 nTopics = parse32ByteValue(1+32*1);\n            bytes32[] memory topicVals = new bytes32[](nTopics);\n            for (uint256 i = 0; i < nTopics; i++) {\n                topicVals[i] = bytes32(parse32ByteValue(1+32*(2+i)));\n            }\n            bytes32 logValue = bytes32(parse32ByteValue(1+32*(2+nTopics)));\n            cap = procedures.checkLogCapability(uint192(currentProcedure), topicVals, capIndex);\n            if (cap) {\n                if (nTopics == 0) {\n                    log0(logValue);\n                    assembly {\n                        // We don't need to return anything\n                        return(0,0)\n                    }\n                } else if (nTopics == 1) {\n                    log1(logValue, topicVals[0]);\n                    assembly {\n                        // We don't need to return anything\n                        return(0,0)\n                    }\n                } else if (nTopics == 2) {\n                    log2(logValue, topicVals[0], topicVals[1]);\n                    assembly {\n                        // We don't need to return anything\n                        return(0,0)\n                    }\n                } else if (nTopics == 3) {\n                    log3(logValue, topicVals[0], topicVals[1], topicVals[2]);\n                    assembly {\n                        // We don't need to return anything\n                        return(0,0)\n                    }\n                } else if (nTopics == 4) {\n                    log4(logValue, topicVals[0], topicVals[1], topicVals[2], topicVals[3]);\n                    assembly {\n                        // We don't need to return anything\n                        return(0,0)\n                    }\n                } else {\n                    assembly {\n                        // Revert with an error code\n                        mstore(0,44)\n                        revert(0,0x20)\n                    }\n                }\n            } else {\n                assembly {\n                    mstore(0,33)\n                    revert(0,0x20)\n                }\n            }\n            assembly{\n                mstore(0xd,152)\n                return(0xd,0x20)\n            }\n        } else if (sysCallCapType == 0x03) {\n            // This is the exec system call\n            //\n            // First we need to check if we have the capability to\n            // execute this procedure. The first argument is simply an index\n            // of the procedure we want to call (in the procedure table).\n            // How do we determine if we have the capability? Perhaps this\n            // is not an address, but simply an index into the CList of the\n            // process that called this syscall. How do we access that\n            // CList? What if it is an account? If it is an account we know\n            // the sender. But if it is a procedure the sender is the\n            // the kernel and we don't know who is doing the sending.\n\n            // What process is calling this and what capabilities does it\n            // have?\n\n            // TODO: implement, this is issue #58.\n        } else {\n            // default; fallthrough action\n            assembly {\n                mstore8(0xb0,5)\n                log0(0xb0, 1)\n            }\n        }\n    }\n\n    function createProcedure(bytes24 name, bytes oCode, uint256[] caps) public returns (uint8 err, address procedureAddress) {\n        // Check whether the first byte is null and set err to 1 if so\n        if (name == 0) {\n            err = 1;\n            return;\n        }\n\n        // Check whether the address exists\n        bool exist = procedures.contains(name);\n        if (exist) {\n            err = 3;\n            return;\n        }\n\n        procedureAddress = create(oCode);\n        procedures.insert(name, procedureAddress, caps);\n    }\n\n    function deleteProcedure(bytes24 name) public returns (uint8 err, address procedureAddress) {\n        // Check whether the first byte is null and set err to 1 if so\n        if (name[0] == 0) {\n            err = 1;\n            return;\n        }\n\n        procedureAddress = procedures.get(name);\n        bool success = procedures.remove(name);\n\n        // Check whether the address exists\n        if (!success) {err = 2;}\n    }\n\n    function listProcedures() public view returns (bytes24[] memory) {\n        return procedures.getKeys();\n    }\n\n    function returnRawProcedureTable() public view returns (uint256[]) {\n        return procedures.returnRawProcedureTable();\n    }\n\n    function returnProcedureTable() public view returns (uint256[]) {\n        return procedures.returnProcedureTable();\n    }\n\n    // function nProcedures() public view returns (uint256) {\n    //     return procedures.size();\n    // }\n\n\n    function getProcedure(bytes24 name) public returns (address) {\n        return procedures.get(name);\n    }\n\n    function executeProcedure(bytes24 name, string fselector, bytes payload) public returns (uint256 retVal) {\n        // // Check whether the first byte is null and set err to 1 if so\n        if (name[0] == 0) {\n            retVal = 1;\n            return;\n        }\n        // Check whether the address exists\n        bool exist = procedures.contains(name);\n        if (!exist) {\n            retVal = 3;\n            return;\n        }\n        // TODO: I believe this should use the keyindex\n        // assembly {\n        //     sstore(currentProcedure_slot,div(name,exp(0x100,8)))\n        // }\n        currentProcedure = name;\n        address procedureAddress = procedures.get(name);\n        bool status = false;\n        assembly {\n            // Retrieve the address of new available memory from address 0x40\n            let n :=  mload(0x40)\n            // Replace the value of 0x40 with the next new available memory,\n            // after the 4 bytes we will use to store the keccak hash.\n            mstore(0x40,add(n,32))\n            // Take the keccak256 hash of that string, store at location n\n            // mstore\n            // Argument #1: The address (n) calculated above, to store the\n            //    hash.\n            // Argument #2: The hash, calculted as follows:\n            //   keccack256\n            //   Argument #1: The location of the fselector string (which\n            //     is simply the name of the variable) with an added offset\n            //     of 0x20, as the first 0x20 is reserved for the length of\n            //     the string.\n            //   Argument #2: The length of the string, which is loaded from\n            //     the first 0x20 of the string.\n            mstore(n,keccak256(add(fselector,0x20),mload(fselector)))\n\n            // The input starts at where we stored the hash (n)\n            let ins := n\n            // Currently that is only the function selector hash, which is 4\n            // bytes long.\n            let inl := 0x4\n            // TODO: Allocate a new area of memory into which to write the\n            // return data. This will depend on the size of the return type.\n            let outs := 0x60\n            // There is no return value, therefore it's length is 0 bytes long\n            // REVISION: lets assume a 32 byte return value for now\n            let outl := 0x20\n\n            status := callcode(gas,procedureAddress,0,ins,inl,outs,outl)\n            sstore(currentProcedure_slot,0)\n            if eq(status,0) {\n                // error\n                mstore(0x0,add(220000,mload(outs)))\n                // mstore(0x40,235)\n                // TODO: switch to revert\n                return(0x0,0x20)\n            }\n            if eq(status,1) {\n                return(outs,outl)\n            }\n        }\n        if (!status) {\n            retVal = 85;\n        }\n    }\n}",
  "sourcePath": "/mnt/c/Users/Raketa/Documents/Repos/beakeros/contracts/Kernel.sol",
  "compiler": {
    "name": "solc",
    "version": "0.4.24+commit.e67f0147.Emscripten.clang"
  },
  "schemaVersion": "2.0.1",
  "updatedAt": "2018-09-17T13:43:44.367Z"
}