{
  "contractName": "Multiply",
  "abi": [
    {
      "constant": true,
      "inputs": [
        {
          "name": "a",
          "type": "uint256"
        },
        {
          "name": "b",
          "type": "uint256"
        }
      ],
      "name": "multiply",
      "outputs": [
        {
          "name": "",
          "type": "uint256"
        }
      ],
      "payable": false,
      "stateMutability": "pure",
      "type": "function"
    }
  ],
  "bytecode": "0x608060405234801561001057600080fd5b5060c58061001f6000396000f300608060405260043610603f576000357c0100000000000000000000000000000000000000000000000000000000900463ffffffff168063165c4a16146044575b600080fd5b348015604f57600080fd5b5060766004803603810190808035906020019092919080359060200190929190505050608c565b6040518082815260200191505060405180910390f35b60008183029050929150505600a165627a7a723058209529cd93b9d3e574088991fcfc2f4f02f1b818de91b5a2ba5eb159653eb957470029",
  "source": "pragma solidity ^0.4.17;\n\ncontract Multiply {\n    function multiply(uint a, uint b) public pure returns (uint256) {\n        return a * b;\n    }\n}",
  "sourcePath": "/mnt/c/Users/Raketa/Documents/Repos/beakeros/contracts/test/valid/Multiply.sol",
  "compiler": {
    "name": "solc",
    "version": "0.4.24+commit.e67f0147.Emscripten.clang"
  },
  "schemaVersion": "2.0.1",
  "updatedAt": "2018-10-16T14:59:29.635Z"
}