{
  "contractName": "Setter",
  "abi": [
    {
      "constant": false,
      "inputs": [
        {
          "name": "key",
          "type": "uint256"
        },
        {
          "name": "value",
          "type": "uint256"
        }
      ],
      "name": "store",
      "outputs": [],
      "payable": false,
      "stateMutability": "nonpayable",
      "type": "function"
    },
    {
      "constant": true,
      "inputs": [
        {
          "name": "key",
          "type": "uint256"
        }
      ],
      "name": "get",
      "outputs": [
        {
          "name": "value",
          "type": "uint256"
        }
      ],
      "payable": false,
      "stateMutability": "view",
      "type": "function"
    }
  ],
  "bytecode": "0x608060405234801561001057600080fd5b5060fe8061001f6000396000f3006080604052600436106049576000357c0100000000000000000000000000000000000000000000000000000000900463ffffffff1680636ed28ed014604e5780639507d39a146082575b600080fd5b348015605957600080fd5b506080600480360381019080803590602001909291908035906020019092919050505060c0565b005b348015608d57600080fd5b5060aa6004803603810190808035906020019092919050505060c7565b6040518082815260200191505060405180910390f35b8181555050565b6000815490509190505600a165627a7a72305820ad30380b15f8fe609bfdfd3e8620e6bbe47af794da69d2f53d225ffb0a61210a0029",
  "source": "pragma solidity ^0.4.17;\n\ncontract Setter {\n    function store(uint256 key, uint256 value) public {\n        assembly {\n            key\n            value\n            sstore\n        }\n    }\n    function get(uint256 key) public view returns (uint256 value) {\n        assembly {\n            key\n            sload\n            =: value\n        }\n    }\n}\n",
  "sourcePath": "/mnt/c/Users/Raketa/Documents/Repos/beakeros/contracts/Setter.sol",
  "compiler": {
    "name": "solc",
    "version": "0.4.24+commit.e67f0147.Emscripten.clang"
  },
  "schemaVersion": "2.0.1",
  "updatedAt": "2018-10-17T15:36:37.267Z"
}