{
  "contractName": "Simple",
  "abi": [
    {
      "constant": true,
      "inputs": [],
      "name": "A",
      "outputs": [],
      "payable": false,
      "stateMutability": "pure",
      "type": "function"
    },
    {
      "constant": true,
      "inputs": [],
      "name": "B",
      "outputs": [],
      "payable": false,
      "stateMutability": "pure",
      "type": "function"
    },
    {
      "constant": true,
      "inputs": [
        {
          "name": "",
          "type": "uint256"
        }
      ],
      "name": "C",
      "outputs": [],
      "payable": false,
      "stateMutability": "pure",
      "type": "function"
    }
  ],
  "bytecode": "0x608060405234801561001057600080fd5b5060dd8061001f6000396000f3006080604052600436106053576000357c0100000000000000000000000000000000000000000000000000000000900463ffffffff16806332e7c5bf1460585780636e9ed8cf14606c578063f446c1d0146096575b600080fd5b348015606357600080fd5b50606a60aa565b005b348015607757600080fd5b5060946004803603810190808035906020019092919050505060ac565b005b34801560a157600080fd5b5060a860af565b005b565b50565b5600a165627a7a72305820da4eae5ff84e8d81cc30544011d1f501c22b592fef8aacef441faef1eab3fc180029",
  "source": "pragma solidity ^0.4.17;\n\ncontract Simple {\n    function A() public pure {\n\n    }\n\n    function B() public pure {\n\n    }\n\n    function C(uint256 /* a */) public pure {\n\n    }\n\n}",
  "sourcePath": "/mnt/c/Users/Raketa/Documents/Repos/beakeros/contracts/test/valid/Simple.sol",
  "compiler": {
    "name": "solc",
    "version": "0.4.24+commit.e67f0147.Emscripten.clang"
  },
  "schemaVersion": "2.0.1",
  "updatedAt": "2018-10-16T14:59:29.634Z"
}