{
  "contractName": "Simple",
  "abi": [
    {
      "constant": false,
      "inputs": [],
      "name": "A",
      "outputs": [],
      "payable": false,
      "stateMutability": "nonpayable",
      "type": "function"
    },
    {
      "constant": false,
      "inputs": [],
      "name": "B",
      "outputs": [],
      "payable": false,
      "stateMutability": "nonpayable",
      "type": "function"
    },
    {
      "constant": false,
      "inputs": [
        {
          "name": "a",
          "type": "uint256"
        }
      ],
      "name": "C",
      "outputs": [],
      "payable": false,
      "stateMutability": "nonpayable",
      "type": "function"
    }
  ],
  "bytecode": "0x608060405234801561001057600080fd5b5060df8061001f6000396000f3006080604052600436106053576000357c0100000000000000000000000000000000000000000000000000000000900463ffffffff16806332e7c5bf1460585780636e9ed8cf14606c578063f446c1d0146096575b600080fd5b348015606357600080fd5b50606a60aa565b005b348015607757600080fd5b5060946004803603810190808035906020019092919050505060ae565b005b34801560a157600080fd5b5060a860b1565b005b6000ff5b50565b5600a165627a7a723058207bd531b2d99062619a618e7613be96a172b2c17f39a447a6c58ef75abb010da20029",
  "source": "pragma solidity ^0.4.17;\n\ncontract Simple {\n    function A() public {\n\n    }\n\n    function B() public {\n        suicide(0);\n    }\n\n    function C(uint256 a) {\n\n    }\n\n}",
  "sourcePath": "/mnt/c/Users/Raketa/Documents/Repos/beakeros/contracts/test/invalid/Simple.sol",
  "compiler": {
    "name": "solc",
    "version": "0.4.24+commit.e67f0147.Emscripten.clang"
  },
  "schemaVersion": "2.0.1",
  "updatedAt": "2018-09-17T13:43:44.384Z"
}