{
  "contractName": "StoreInKernelInv",
  "abi": [
    {
      "constant": false,
      "inputs": [],
      "name": "foo",
      "outputs": [],
      "payable": false,
      "stateMutability": "nonpayable",
      "type": "function"
    }
  ],
  "bytecode": "0x6080604052348015600f57600080fd5b5060938061001e6000396000f300608060405260043610603f576000357c0100000000000000000000000000000000000000000000000000000000900463ffffffff168063c2985578146044575b600080fd5b348015604f57600080fd5b5060566058565b005b60006104d290508051600055505600a165627a7a7230582078433acc9ac9ea660ba277d8260a9f19420a49a7ff66dbc7b86eb2a34a771ce90029",
  "source": "pragma solidity ^0.4.17;\n\ncontract StoreInKernelInv {\n\n    function foo() public {\n        uint256 fooVal = 1234;\n        assembly {\n            mload(fooVal)\n            0x0\n            // This lacks the necessary protection code\n            sstore\n        }\n    }\n}",
  "sourcePath": "/mnt/c/Users/Raketa/Documents/Repos/beakeros/contracts/test/invalid/StoreInKernelInv.sol",
  "compiler": {
    "name": "solc",
    "version": "0.4.24+commit.e67f0147.Emscripten.clang"
  },
  "schemaVersion": "2.0.1",
  "updatedAt": "2018-10-16T14:59:29.634Z"
}