{
  "contractName": "StoreInTable1",
  "abi": [
    {
      "constant": false,
      "inputs": [],
      "name": "foo",
      "outputs": [],
      "payable": false,
      "stateMutability": "nonpayable",
      "type": "function"
    },
    {
      "constant": false,
      "inputs": [],
      "name": "boo",
      "outputs": [],
      "payable": false,
      "stateMutability": "nonpayable",
      "type": "function"
    }
  ],
  "bytecode": "0x608060405234801561001057600080fd5b5061010a806100206000396000f3006080604052600436106049576000357c0100000000000000000000000000000000000000000000000000000000900463ffffffff1680634b3df20014604e578063c2985578146062575b600080fd5b348015605957600080fd5b5060606076565b005b348015606d57600080fd5b50607460aa565b005b60006104d2905080517f01000001000000000000000000000000000000000000000000000000000000006064604051525550565b60006104d2905080517f010000000000000000000000000000000000000000000000000000000000000060646040515255505600a165627a7a72305820ac28f5e1b452a29e7e6f3d2da70c09b0c4865879da7a4a6084a243bddcc5c7380029",
  "source": "pragma solidity ^0.4.17;\n\ncontract StoreInTable1 {\n    function foo() {\n        uint256 foo = 1234;\n        assembly {\n            mload(foo)\n            0x0100000000000000000000000000000000000000000000000000000000000000\n            // This code is necessary in front of an SSTORE to pass verification\n            0x64\n            mload(0x40)\n            mstore\n            sstore\n        }\n    }\n    function boo() {\n        uint256 loo = 1234;\n        assembly {\n            mload(loo)\n            0x0100000100000000000000000000000000000000000000000000000000000000\n            // This code is necessary in front of an SSTORE to pass verification\n            0x64\n            mload(0x40)\n            mstore\n            sstore\n        }\n    }\n}\n",
  "sourcePath": "/mnt/c/Users/Raketa/Documents/Repos/beakeros/contracts/test/valid/StoreInTable1.sol",
  "compiler": {
    "name": "solc",
    "version": "0.4.24+commit.e67f0147.Emscripten.clang"
  },
  "schemaVersion": "2.0.1",
  "updatedAt": "2018-09-17T13:43:44.384Z"
}