{
  "contractName": "StorerProtectedInline",
  "abi": [
    {
      "constant": false,
      "inputs": [],
      "name": "store",
      "outputs": [],
      "payable": false,
      "stateMutability": "nonpayable",
      "type": "function"
    }
  ],
  "bytecode": "0x6080604052348015600f57600080fd5b5061014b8061001f6000396000f300608060405260043610610041576000357c0100000000000000000000000000000000000000000000000000000000900463ffffffff168063975057e714610046575b600080fd5b34801561005257600080fd5b5061005b61005d565b005b60008060006104d292507f010000000000000000000000000000000000000000000000000000000000000091507f0200000000000000000000000000000000000000000000000000000000000000905082517f01000001000000000000000000000000000000000000000000000000000000007f010000000000000000000000000000000000000000000000000000000000000081107f02000000000000000000000000000000000000000000000000000000000000008211175857555050505600a165627a7a72305820419ddf9c186a2aa829ffa194a995fe9053b8138b7007337aeae6af5716c996a30029",
  "source": "pragma solidity ^0.4.17;\n// this contract is inline, and all the jumps are statically resolved before injection\ncontract StorerProtectedInline {\n    function store() public {\n        uint256 loo = 1234;\n        uint256 lowerLimit = 0x0100000000000000000000000000000000000000000000000000000000000000;\n        uint256 upperLimit = 0x0200000000000000000000000000000000000000000000000000000000000000;\n        assembly {\n                mload(loo) // value to store\n                0x0100000100000000000000000000000000000000000000000000000000000000 // address to store\n                // This code is necessary in front of an SSTORE to pass verification\n            // injected store code\n                0x0100000000000000000000000000000000000000000000000000000000000000 // lower limit\n                dup2 // duplicate store address for comparison\n                lt // see if address is lower than the lower limit\n                0x0200000000000000000000000000000000000000000000000000000000000000 // upper limit\n                dup3 // duplicate store address for comparison\n                gt // see if the store address is higher than the upper limit\n                or // set top of stack to 1 if either is true\n                pc // push the program counter to the stack, this is guaranteed to be an invalid jump destination\n                jumpi // jump if the address is out of bounds, the current address on the stack is guaranteed to be invliad and will throw an error\n                sstore // perform the store\n        }\n    }\n}\n",
  "sourcePath": "/mnt/c/Users/Raketa/Documents/Repos/beakeros/contracts/test/valid/StorerProtectedInline.sol",
  "compiler": {
    "name": "solc",
    "version": "0.4.24+commit.e67f0147.Emscripten.clang"
  },
  "schemaVersion": "2.0.1",
  "updatedAt": "2018-10-11T16:50:35.328Z"
}