{
  "contractName": "Suicide",
  "abi": [
    {
      "constant": false,
      "inputs": [
        {
          "name": "a",
          "type": "address"
        }
      ],
      "name": "foo",
      "outputs": [],
      "payable": false,
      "stateMutability": "nonpayable",
      "type": "function"
    }
  ],
  "bytecode": "0x608060405234801561001057600080fd5b5060c98061001f6000396000f300608060405260043610603f576000357c0100000000000000000000000000000000000000000000000000000000900463ffffffff168063fdf80bda146044575b600080fd5b348015604f57600080fd5b506082600480360381019080803573ffffffffffffffffffffffffffffffffffffffff1690602001909291905050506084565b005b8073ffffffffffffffffffffffffffffffffffffffff16ff00a165627a7a72305820ff3bf47c056399e0c686dbd72bd364fd043412a24ea875373a67f3ee6798db1c0029",
  "source": "pragma solidity ^0.4.17;\n\ncontract Suicide {\n    function foo(address a) public {\n        selfdestruct(a);\n    }\n}\n",
  "sourcePath": "/mnt/c/Users/Raketa/Documents/Repos/beakeros/contracts/test/invalid/Suicide.sol",
  "compiler": {
    "name": "solc",
    "version": "0.4.24+commit.e67f0147.Emscripten.clang"
  },
  "schemaVersion": "2.0.1",
  "updatedAt": "2018-10-16T14:59:29.634Z"
}