{
  "contractName": "SysCallTestCall",
  "abi": [
    {
      "constant": false,
      "inputs": [],
      "name": "A",
      "outputs": [],
      "payable": false,
      "stateMutability": "nonpayable",
      "type": "function"
    },
    {
      "constant": false,
      "inputs": [],
      "name": "B",
      "outputs": [],
      "payable": false,
      "stateMutability": "nonpayable",
      "type": "function"
    },
    {
      "constant": false,
      "inputs": [],
      "name": "C",
      "outputs": [],
      "payable": false,
      "stateMutability": "nonpayable",
      "type": "function"
    },
    {
      "constant": false,
      "inputs": [],
      "name": "E",
      "outputs": [],
      "payable": false,
      "stateMutability": "nonpayable",
      "type": "function"
    },
    {
      "constant": false,
      "inputs": [],
      "name": "F",
      "outputs": [
        {
          "name": "",
          "type": "uint256"
        }
      ],
      "payable": false,
      "stateMutability": "nonpayable",
      "type": "function"
    }
  ],
  "bytecode": "0x608060405234801561001057600080fd5b50610526806100206000396000f30060806040526004361061006d576000357c0100000000000000000000000000000000000000000000000000000000900463ffffffff16806328811f591461007257806332e7c5bf1461009d57806383dfe5fd146100b457806392bbf6e8146100cb578063f446c1d0146100e2575b600080fd5b34801561007e57600080fd5b506100876100f9565b6040518082815260200191505060405180910390f35b3480156100a957600080fd5b506100b26102f0565b005b3480156100c057600080fd5b506100c961034e565b005b3480156100d757600080fd5b506100e06103f0565b005b3480156100ee57600080fd5b506100f761049c565b005b6000806060600060607f416464657200000000000000000000000000000000000000000000000000000093506040805190810160405280601481526020017f6164642875696e743235362c75696e7432353629000000000000000000000000815250925061017e565b6000602082066020038201604051915080820160405250919050565b60a561018a60e0610162565b6003600082015260026020820152856040820152602080606083015285516020870120608083015260036084830152600560a48301526101c981610162565b818185601f8601335af415156101e857805161089801600d526020600dfd5b600881511415156101fc57604d8152602081fd5b80516109995280519550505050507f53797343616c6c5465737400000000000000000000000000000000000000000093506040805190810160405280600381526020017f53282900000000000000000000000000000000000000000000000000000000008152509050610286565b6000602082066020038201604051915080820160405250919050565b606561029260a061026a565b600360008201526002602082015285604082015260206102b18161026a565b816060840152845160208601206080840152818185601f8601335af415156102e25780516109c401600d526020600dfd5b505050508194505050505090565b60007f53797343616c6c54657374000000000000000000000000000000000000000000905060036000526002602052806040526020806060528060806061601f335af415156103495760805161089801600d526020600dfd5b806080f35b600060607f53797343616c6c5465737400000000000000000000000000000000000000000091506040805190810160405280600381526020017f532829000000000000000000000000000000000000000000000000000000000081525090506003600052600260205281604052602080606052815160208301206080528060806065601f335af415156103eb5760805161089801600d526020600dfd5b600080f35b600060607f416464657200000000000000000000000000000000000000000000000000000091506040805190810160405280601481526020017f6164642875696e743235362c75696e743235362900000000000000000000000081525090506003600052600260205281604052602080606052815160208301206080526003608452600560a45280608060a5601f335af415156104975760805161089801600d526020600dfd5b806080f35b60007f5465737457726974650000000000000000000000000000000000000000000000905060036000526002602052806040526020806060528060806061601f335af415156104f55760805161089801600d526020600dfd5b806080f300a165627a7a723058204263a16c026b557fca2fe3aba06dbcf5a072eb015e4cf0abe9cf76db51e20a360029",
  "source": "pragma solidity ^0.4.17;\n\ncontract SysCallTestCall {\n    // Log to no topics\n    function A() public {\n        bytes24 reqProc = bytes24(\"TestWrite\");\n        assembly {\n            // First set up the input data (at memory location 0x0)\n            // The call call is 0x-03\n            mstore(0x0,0x03)\n            // The capability index is 0x-02\n            mstore(0x20,0x02)\n            // The key of the procedure\n            mstore(0x40,reqProc)\n            // The size of the return value we expect (0x20)\n            let retSize := 0x20\n            mstore(0x60,retSize)\n            // \"in_offset\" is at 31, because we only want the last byte of type\n            // \"in_size\" is 65 because it is 1+32+32+32\n            // we will store the result at 0x80 and it will be 32 bytes\n            if iszero(delegatecall(gas, caller, 31, 97, 0x80, retSize)) {\n                mstore(0xd,add(2200,mload(0x80)))\n                revert(0xd,0x20)\n            }\n            // mstore(0x80,\"hello\")\n            return(0x80, retSize)\n        }\n    }\n\n    // Call SysCallTes\n    function B() public {\n        bytes24 reqProc = bytes24(\"SysCallTest\");\n        assembly {\n            // First set up the input data (at memory location 0x0)\n            // The call call is 0x-03\n            mstore(0x0,0x03)\n            // The capability index is 0x-02\n            mstore(0x20,0x02)\n            // The key of the procedure\n            mstore(0x40,reqProc)\n            // The size of the return value we expect (0x20)\n            let retSize := 0x20\n            mstore(0x60,retSize)\n            // \"in_offset\" is at 31, because we only want the last byte of type\n            // \"in_size\" is 65 because it is 1+32+32\n            // we will store the result at 0x80 and it will be 32 bytes\n            if iszero(delegatecall(gas, caller, 31, 97, 0x80, retSize)) {\n                mstore(0xd,add(2200,mload(0x80)))\n                revert(0xd,0x20)\n            }\n            return(0x80, retSize)\n        }\n    }\n\n    // Call SysTestCall:S()\n    function C() public {\n        bytes24 reqProc = bytes24(\"SysCallTest\");\n        string memory fselector = \"S()\";\n        assembly {\n            // First set up the input data (at memory location 0x0)\n            // The call call is 0x-03\n            mstore(0x0,0x03)\n            // The capability index is 0x-02\n            mstore(0x20,0x02)\n            // The key of the procedure\n            mstore(0x40,reqProc)\n            // The size of the return value we expect (0x20)\n            let retSize := 0x20\n            mstore(0x60,retSize)\n            // The data from 0x80 onwards is the data we want to send to\n            // this procedure\n            // First we store the function selector in the 0x20 bytes from 0x60\n            mstore(0x80,keccak256(add(fselector,0x20),mload(fselector)))\n            // mstore(0x60,mload(add(fselector,0x20)))\n            // we only want the first 4 bytes of this\n            // \"in_offset\" is at 31, because we only want the last byte of type\n            // \"in_size\" is 69 because it is 1+32+32+32+4\n            // we will store the result at 0x80 and it will be 32 bytes\n            if iszero(delegatecall(gas, caller, 31, 101, 0x80, retSize)) {\n                mstore(0xd,add(2200,mload(0x80)))\n                revert(0xd,0x20)\n            }\n            // Return nothing in success\n            return(0,0)\n        }\n    }\n\n    // Call Adder:add(3,5), return result\n    function E() public {\n        bytes24 reqProc = bytes24(\"Adder\");\n        string memory fselector = \"add(uint256,uint256)\";\n        assembly {\n            // First set up the input data (at memory location 0x0)\n            // The call call is 0x-03\n            mstore(0x0,0x03)\n            // The capability index is 0x-02\n            mstore(0x20,0x02)\n            // The key of the procedure\n            mstore(0x40,reqProc)\n            // The size of the return value we expect (0x20)\n            let retSize := 0x20\n            mstore(0x60,retSize)\n            // The data from 0x60 onwards is the data we want to send to\n            // this procedure\n            // First we store the function selector in the 0x20 bytes from 0x60\n            mstore(0x80,keccak256(add(fselector,0x20),mload(fselector)))\n            mstore(0x84,3)\n            mstore(0xa4,5)\n            // we only want the first 4 bytes of this\n            // \"in_offset\" is at 31, because we only want the last byte of type\n            // \"in_size\" is 69 because it is 1+32+32+32+4+32+32\n            // we will store the result at 0x80 and it will be 32 bytes\n            if iszero(delegatecall(gas, caller, 31, 165, 0x80, retSize)) {\n                mstore(0xd,add(2200,mload(0x80)))\n                revert(0xd,0x20)\n            }\n            return(0x80,retSize)\n        }\n    }\n\n    // Do deeper call stacks\n    function F() public returns (uint256) {\n        bytes24 reqProc = bytes24(\"Adder\");\n        string memory fselector = \"add(uint256,uint256)\";\n        // We will store the result from the first procedure call (add) here\n        uint256 addResult;\n        assembly {\n\n            function malloc(size) -> result {\n                let rsize := add(size,sub(32,mod(size,32)))\n                // get the current free mem location\n                result :=  mload(0x40)\n                // Bump the value of 0x40 so that it holds the next\n                // available memory location.\n                mstore(0x40,add(result,rsize))\n            }\n            // allocate some space for data\n            // \"in_offset\" is at 31, because we only want the last byte of type\n            // \"in_size\" is 69 because it is 1+32+32+32+4\n            // we will store the result at 0x80 and it will be 32 bytes\n            let inl := 165\n            let ins := malloc(224)\n\n            // First set up the input data (at memory location 0x0)\n            // The call call is 0x-03\n            mstore(add(ins,0x0),0x03)\n            // The capability index is 0x-02\n            mstore(add(ins,0x20),0x02)\n            // The key of the procedure\n            mstore(add(ins,0x40),reqProc)\n            // The size of the return value we expect (0x20)\n            let retSize := 0x20\n            mstore(add(ins,0x60),retSize)\n            // The data from 0x60 onwards is the data we want to send to\n            // this procedure\n            // First we store the function selector in the 0x20 bytes from 0x60\n            mstore(add(ins,0x80),keccak256(add(fselector,0x20),mload(fselector)))\n            mstore(add(ins,0x84),3)\n            mstore(add(ins,0xa4),5)\n            // we only want the first 4 bytes of this\n            // \"in_offset\" is at 31, because we only want the last byte of type\n            // \"in_size\" is 69 because it is 1+32+32+32+4+32+32\n            // we will store the result at 0x80 and it will be 32 bytes\n\n            let retLoc := malloc(retSize)\n            if iszero(delegatecall(gas, caller, add(ins,31), inl, retLoc, retSize)) {\n                mstore(0xd,add(2200,mload(retLoc)))\n                revert(0xd,0x20)\n            }\n            if iszero(eq(mload(retLoc),8)) {\n                mstore(retLoc,77)\n                revert(retLoc,0x20)\n            }\n            mstore(0x999,mload(retLoc))\n            addResult := mload(retLoc)\n\n        }\n        reqProc = bytes24(\"SysCallTest\");\n        string memory newfselector = \"S()\";\n        assembly {\n            function malloc(size) -> result {\n                // align to 32-byte words\n                let rsize := add(size,sub(32,mod(size,32)))\n                // get the current free mem location\n                result :=  mload(0x40)\n                // Bump the value of 0x40 so that it holds the next\n                // available memory location.\n                mstore(0x40,add(result,rsize))\n            }\n            // allocate some space for data\n            // \"in_offset\" is at 31, because we only want the last byte of type\n            // \"in_size\" is 69 because it is 1+32+32+32+4\n            // we will store the result at 0x80 and it will be 32 bytes\n            let inl := 101\n            let ins := malloc(160)\n\n            // First set up the input data (at memory location 0x0)\n            // The call call is 0x-03\n            mstore(add(ins,0x0),0x03)\n            // The capability index is 0x-02\n            mstore(add(ins,0x20),0x02)\n            // The key of the procedure\n            mstore(add(ins,0x40),reqProc)\n            // The size of the return value we expect (0x20)\n            let retSize := 0x20\n            let retLoc := malloc(retSize)\n            mstore(add(ins,0x60),retSize)\n            mstore(add(ins,0x80),keccak256(add(newfselector,0x20),mload(newfselector)))\n            // we only want the first 4 bytes of this\n            // \"in_offset\" is at 31, because we only want the last byte of type\n            // \"in_size\" is 69 because it is 1+32+32+32+4\n            // we will store the result at 0x80 and it will be 32 bytes\n            if iszero(delegatecall(gas, caller, add(ins,31), inl,  retLoc, retSize)) {\n                mstore(0xd,add(2500,mload(retLoc)))\n                revert(0xd,0x20)\n            }\n        }\n        return addResult;\n    }\n}",
  "sourcePath": "/mnt/c/Users/Raketa/Documents/Repos/beakeros/contracts/test/valid/SysCallTestCall.sol",
  "compiler": {
    "name": "solc",
    "version": "0.4.24+commit.e67f0147.Emscripten.clang"
  },
  "schemaVersion": "2.0.1",
  "updatedAt": "2018-10-16T14:59:29.636Z"
}