{
  "contractName": "SysCallTest",
  "abi": [
    {
      "payable": false,
      "stateMutability": "nonpayable",
      "type": "fallback"
    },
    {
      "constant": false,
      "inputs": [],
      "name": "S",
      "outputs": [],
      "payable": false,
      "stateMutability": "nonpayable",
      "type": "function"
    }
  ],
  "bytecode": "0x608060405234801561001057600080fd5b5061013f806100206000396000f300608060405260043610610041576000357c0100000000000000000000000000000000000000000000000000000000900463ffffffff1680634be1c7961461008f575b34801561004d57600080fd5b506180005460076000526001602052618000604052610164606052602060806061601f335af41515610089576080516109c401600d526020600dfd5b60206080f35b34801561009b57600080fd5b506100a46100a6565b005b6180005460076000526001602052618000604052600181016060526000608052602060806061601f335af415156100e75760805161089801600d526020600dfd5b61800054600d52600181016180005414151561010d5760805161089801600d526020600dfd5b60206080f300a165627a7a723058207fe3f3c980957e597c1b4b9215cdf167b7088b5c1d7fe3a89bcc2916a3cc73f80029",
  "source": "pragma solidity ^0.4.17;\n\ncontract SysCallTest {\n    function S() public {\n        assembly {\n            // First get the original value from storage\n            let orig_value := sload(0x8000)\n            // First set up the input data (at memory location 0x0)\n            // The write call is 0x-07\n            mstore(0x0,0x07)\n            // The capability index is 0x-01\n            mstore(0x20,0x01)\n            // The storage location we want is 0x8000\n            mstore(0x40,0x8000)\n            // The value we want to store\n            mstore(0x60,add(orig_value,1))\n            // clear the output buffer\n            mstore(0x80,0)\n            // \"in_offset\" is at 31, because we only want the last byte of type\n            // \"in_size\" is 97 because it is 1+32+32+32\n            // we will store the result at 0x80 and it will be 32 bytes\n            if iszero(delegatecall(gas, caller, 31, 97, 0x80, 0x20)) {\n                mstore(0xd,add(2200,mload(0x80)))\n                revert(0xd,0x20)\n            }\n            mstore(0xd,sload(0x8000))\n            if iszero(eq(sload(0x8000),add(orig_value,1))) {\n                mstore(0xd,add(2200,mload(0x80)))\n                revert(0xd,0x20)\n            }\n            return(0x80,0x20)\n        }\n    }\n\n    function() public {\n        assembly {\n            // First get the original value from storage\n            let orig_value := sload(0x8000)\n            // First set up the input data (at memory location 0x0)\n            // The write call is 0x-07\n            mstore(0x0,0x07)\n            // The capability index is 0x-01\n            mstore(0x20,0x01)\n            // The storage location we want is 0x8000\n            mstore(0x40,0x8000)\n            // The value we want to store\n            mstore(0x60,356)\n            // \"in_offset\" is at 31, because we only want the last byte of type\n            // \"in_size\" is 97 because it is 1+32+32+32\n            // we will store the result at 0x80 and it will be 32 bytes\n            if iszero(delegatecall(gas, caller, 31, 97, 0x80, 0x20)) {\n                mstore(0xd,add(2500,mload(0x80)))\n                revert(0xd,0x20)\n            }\n            return(0x80, 0x20)\n        }\n    }\n}",
  "sourcePath": "/mnt/c/Users/Raketa/Documents/Repos/beakeros/contracts/test/valid/SysCallTest.sol",
  "compiler": {
    "name": "solc",
    "version": "0.4.24+commit.e67f0147.Emscripten.clang"
  },
  "schemaVersion": "2.0.1",
  "updatedAt": "2018-10-12T18:05:18.065Z"
}