{
  "contractName": "SysCallTestCall",
  "abi": [
    {
      "constant": false,
      "inputs": [],
      "name": "A",
      "outputs": [],
      "payable": false,
      "stateMutability": "nonpayable",
      "type": "function"
    },
    {
      "constant": false,
      "inputs": [],
      "name": "B",
      "outputs": [],
      "payable": false,
      "stateMutability": "nonpayable",
      "type": "function"
    },
    {
      "constant": false,
      "inputs": [],
      "name": "C",
      "outputs": [],
      "payable": false,
      "stateMutability": "nonpayable",
      "type": "function"
    },
    {
      "constant": false,
      "inputs": [],
      "name": "D",
      "outputs": [],
      "payable": false,
      "stateMutability": "nonpayable",
      "type": "function"
    },
    {
      "constant": false,
      "inputs": [],
      "name": "E",
      "outputs": [],
      "payable": false,
      "stateMutability": "nonpayable",
      "type": "function"
    }
  ],
  "bytecode": "0x608060405234801561001057600080fd5b506103ce806100206000396000f30060806040526004361061006d576000357c0100000000000000000000000000000000000000000000000000000000900463ffffffff1680630f529ba21461007257806332e7c5bf1461008957806383dfe5fd146100a057806392bbf6e8146100b7578063f446c1d0146100ce575b600080fd5b34801561007e57600080fd5b506100876100e5565b005b34801561009557600080fd5b5061009e610198565b005b3480156100ac57600080fd5b506100b56101f6565b005b3480156100c357600080fd5b506100cc610298565b005b3480156100da57600080fd5b506100e3610344565b005b600060607f416464657200000000000000000000000000000000000000000000000000000091506040805190810160405280601481526020017f6164642875696e743235362c75696e743235362900000000000000000000000081525090506003600052600260205281604052602080606052815160208301206080526003608452600560a45280608060a5601f335af4151561018c5760805161089801600d526020600dfd5b60805161800055600080f35b60007f53797343616c6c54657374000000000000000000000000000000000000000000905060036000526002602052806040526020806060528060806061601f335af415156101f15760805161089801600d526020600dfd5b806080f35b600060607f53797343616c6c5465737400000000000000000000000000000000000000000091506040805190810160405280600381526020017f532829000000000000000000000000000000000000000000000000000000000081525090506003600052600260205281604052602080606052815160208301206080528060806065601f335af415156102935760805161089801600d526020600dfd5b600080f35b600060607f416464657200000000000000000000000000000000000000000000000000000091506040805190810160405280601481526020017f6164642875696e743235362c75696e743235362900000000000000000000000081525090506003600052600260205281604052602080606052815160208301206080526003608452600560a45280608060a5601f335af4151561033f5760805161089801600d526020600dfd5b806080f35b60007f5465737457726974650000000000000000000000000000000000000000000000905060036000526002602052806040526020806060528060806061601f335af4151561039d5760805161089801600d526020600dfd5b806080f300a165627a7a723058204eb8fa59afd43032d5019ab39004f0eb7c3a2dedd81e504261c2f6cc8fa3ed020029",
  "source": "pragma solidity ^0.4.17;\n\ncontract SysCallTestCall {\n    // Log to no topics\n    function A() public {\n        bytes24 reqProc = bytes24(\"TestWrite\");\n        assembly {\n            // First set up the input data (at memory location 0x0)\n            // The call call is 0x-03\n            mstore(0x0,0x03)\n            // The capability index is 0x-02\n            mstore(0x20,0x02)\n            // The key of the procedure\n            mstore(0x40,reqProc)\n            // The size of the return value we expect (0x20)\n            let retSize := 0x20\n            mstore(0x60,retSize)\n            // \"in_offset\" is at 31, because we only want the last byte of type\n            // \"in_size\" is 65 because it is 1+32+32+32\n            // we will store the result at 0x80 and it will be 32 bytes\n            if iszero(delegatecall(gas, caller, 31, 97, 0x80, retSize)) {\n                mstore(0xd,add(2200,mload(0x80)))\n                revert(0xd,0x20)\n            }\n            return(0x80, retSize)\n        }\n    }\n\n    // Call SysCallTes\n    function B() public {\n        bytes24 reqProc = bytes24(\"SysCallTest\");\n        assembly {\n            // First set up the input data (at memory location 0x0)\n            // The call call is 0x-03\n            mstore(0x0,0x03)\n            // The capability index is 0x-02\n            mstore(0x20,0x02)\n            // The key of the procedure\n            mstore(0x40,reqProc)\n            // The size of the return value we expect (0x20)\n            let retSize := 0x20\n            mstore(0x60,retSize)\n            // \"in_offset\" is at 31, because we only want the last byte of type\n            // \"in_size\" is 65 because it is 1+32+32\n            // we will store the result at 0x80 and it will be 32 bytes\n            if iszero(delegatecall(gas, caller, 31, 97, 0x80, retSize)) {\n                mstore(0xd,add(2200,mload(0x80)))\n                revert(0xd,0x20)\n            }\n            return(0x80, retSize)\n        }\n    }\n\n    // Call SysTestCall:S()\n    function C() public {\n        bytes24 reqProc = bytes24(\"SysCallTest\");\n        string memory fselector = \"S()\";\n        assembly {\n            // First set up the input data (at memory location 0x0)\n            // The call call is 0x-03\n            mstore(0x0,0x03)\n            // The capability index is 0x-02\n            mstore(0x20,0x02)\n            // The key of the procedure\n            mstore(0x40,reqProc)\n            // The size of the return value we expect (0x20)\n            let retSize := 0x20\n            mstore(0x60,retSize)\n            // The data from 0x80 onwards is the data we want to send to\n            // this procedure\n            // First we store the function selector in the 0x20 bytes from 0x60\n            mstore(0x80,keccak256(add(fselector,0x20),mload(fselector)))\n            // mstore(0x60,mload(add(fselector,0x20)))\n            // we only want the first 4 bytes of this\n            // \"in_offset\" is at 31, because we only want the last byte of type\n            // \"in_size\" is 69 because it is 1+32+32+32+4\n            // we will store the result at 0x80 and it will be 32 bytes\n            if iszero(delegatecall(gas, caller, 31, 101, 0x80, retSize)) {\n                mstore(0xd,add(2200,mload(0x80)))\n                revert(0xd,0x20)\n            }\n            // Return nothing in success\n            return(0,0)\n        }\n    }\n\n    // Call Adder:add(3,5), store, return nothing\n    function D() public {\n        bytes24 reqProc = bytes24(\"Adder\");\n        string memory fselector = \"add(uint256,uint256)\";\n        assembly {\n            // First set up the input data (at memory location 0x0)\n            // The call call is 0x-03\n            mstore(0x0,0x03)\n            // The capability index is 0x-02\n            mstore(0x20,0x02)\n            // The key of the procedure\n            mstore(0x40,reqProc)\n            // The size of the return value we expect (0x20)\n            let retSize := 0x20\n            mstore(0x60,retSize)\n            // The data from 0x60 onwards is the data we want to send to\n            // this procedure\n            // First we store the function selector in the 0x20 bytes from 0x60\n            mstore(0x80,keccak256(add(fselector,0x20),mload(fselector)))\n            // Then we write the arguments to memory. This will overwrite all\n            // but the first 4 bytes of the function selector, which is what we\n            // want.\n            // first argument\n            mstore(0x84,3)\n            // second argument\n            mstore(0xa4,5)\n            // we only want the first 4 bytes of this\n            // \"in_offset\" is at 31, because we only want the last byte of type\n            // \"in_size\" is 69 because it is 1+32+32+32+4+32+32\n            // we will store the result at 0x80 and it will be 32 bytes\n            if iszero(delegatecall(gas, caller, 31, 165, 0x80, retSize)) {\n                mstore(0xd,add(2200,mload(0x80)))\n                revert(0xd,0x20)\n            }\n            // Store the value in the test location\n            sstore(0x8000,mload(0x80))\n            // return nothing in success\n            return(0, 0)\n        }\n    }\n\n    // Call Adder:add(3,5), return result\n    function E() public {\n        bytes24 reqProc = bytes24(\"Adder\");\n        string memory fselector = \"add(uint256,uint256)\";\n        assembly {\n            // First set up the input data (at memory location 0x0)\n            // The call call is 0x-03\n            mstore(0x0,0x03)\n            // The capability index is 0x-02\n            mstore(0x20,0x02)\n            // The key of the procedure\n            mstore(0x40,reqProc)\n            // The size of the return value we expect (0x20)\n            let retSize := 0x20\n            mstore(0x60,retSize)\n            // The data from 0x60 onwards is the data we want to send to\n            // this procedure\n            // First we store the function selector in the 0x20 bytes from 0x60\n            mstore(0x80,keccak256(add(fselector,0x20),mload(fselector)))\n            mstore(0x84,3)\n            mstore(0xa4,5)\n            // we only want the first 4 bytes of this\n            // \"in_offset\" is at 31, because we only want the last byte of type\n            // \"in_size\" is 69 because it is 1+32+32+32+4+32+32\n            // we will store the result at 0x80 and it will be 32 bytes\n            if iszero(delegatecall(gas, caller, 31, 165, 0x80, retSize)) {\n                mstore(0xd,add(2200,mload(0x80)))\n                revert(0xd,0x20)\n            }\n            return(0x80,retSize)\n        }\n    }\n}",
  "sourcePath": "/mnt/c/Users/Raketa/Documents/Repos/beakeros/contracts/test/valid/SysCallTestCall.sol",
  "compiler": {
    "name": "solc",
    "version": "0.4.24+commit.e67f0147.Emscripten.clang"
  },
  "schemaVersion": "2.0.1",
  "updatedAt": "2018-09-17T13:43:44.384Z"
}