{
  "contractName": "SysCallTestLog",
  "abi": [
    {
      "constant": false,
      "inputs": [],
      "name": "A",
      "outputs": [],
      "payable": false,
      "stateMutability": "nonpayable",
      "type": "function"
    },
    {
      "constant": false,
      "inputs": [],
      "name": "B",
      "outputs": [],
      "payable": false,
      "stateMutability": "nonpayable",
      "type": "function"
    },
    {
      "constant": false,
      "inputs": [],
      "name": "C",
      "outputs": [],
      "payable": false,
      "stateMutability": "nonpayable",
      "type": "function"
    },
    {
      "constant": false,
      "inputs": [],
      "name": "D",
      "outputs": [],
      "payable": false,
      "stateMutability": "nonpayable",
      "type": "function"
    },
    {
      "constant": false,
      "inputs": [],
      "name": "E",
      "outputs": [],
      "payable": false,
      "stateMutability": "nonpayable",
      "type": "function"
    }
  ],
  "bytecode": "0x608060405234801561001057600080fd5b50610283806100206000396000f30060806040526004361061006d576000357c0100000000000000000000000000000000000000000000000000000000900463ffffffff1680630f529ba21461007257806332e7c5bf1461008957806383dfe5fd146100a057806392bbf6e8146100b7578063f446c1d0146100ce575b600080fd5b34801561007e57600080fd5b506100876100e5565b005b34801561009557600080fd5b5061009e610135565b005b3480156100ac57600080fd5b506100b5610179565b005b3480156100c357600080fd5b506100cc6101c3565b005b3480156100da57600080fd5b506100e3610219565b005b60096000526001602052600360405261abcd60605261beef60805261cafe60a05264123456789060c0526020608060c1601f335af415156101305760805161089801600d526020600dfd5b600080f35b60096000526001602052600160405261abcd606052641234567890608052602060806081601f335af415156101745760805161089801600d526020600dfd5b600080f35b60096000526001602052600260405261abcd60605261beef60805264123456789060a0526020608060a1601f335af415156101be5760805161089801600d526020600dfd5b600080f35b60096000526001602052600460405261abcd60605261beef60805261cafe60a05261454560c05264123456789060e0526020608060e1601f335af415156102145760805161089801600d526020600dfd5b600080f35b600960005260016020526000604052641234567890606052602060806061601f335af415156102525760805161089801600d526020600dfd5b600080f300a165627a7a723058200bb0281354030c9836a0c7c581e890ab5d06c561fb8704e5303e03c8b6c138a50029",
  "source": "pragma solidity ^0.4.17;\n\ncontract SysCallTestLog {\n    // Log to no topics\n    function A() public {\n        assembly {\n            // First set up the input data (at memory location 0x0)\n            // The log call is 0x-07\n            mstore(0x0,0x09)\n            // The capability index is 0x-01\n            mstore(0x20,0x01)\n            // The number of topics we will use\n            mstore(0x40,0x0)\n            // The value we want to log\n            mstore(0x60,0x1234567890)\n            // \"in_offset\" is at 31, because we only want the last byte of type\n            // \"in_size\" is 97 because it is 1+32+32+32\n            // we will store the result at 0x80 and it will be 32 bytes\n            if iszero(delegatecall(gas, caller, 31, 97, 0x80, 0x20)) {\n                mstore(0xd,add(2200,mload(0x80)))\n                revert(0xd,0x20)\n            }\n            // We don't need to return anything in success\n            return(0,0)\n        }\n    }\n\n    // Log to a single topic\n    function B() public {\n        assembly {\n            // First set up the input data (at memory location 0x0)\n            // The log call is 0x-09\n            mstore(0x0,0x09)\n            // The capability index is 0x-01\n            mstore(0x20,0x01)\n            // The number of topics we will use\n            mstore(0x40,0x1)\n            // The first topic\n            mstore(0x60,0xabcd)\n            // The value we want to log\n            mstore(0x80,0x1234567890)\n            // \"in_offset\" is at 31, because we only want the last byte of type\n            // \"in_size\" is 129 because it is 1+32+32+32+32\n            // we will store the result at 0x80 and it will be 32 bytes\n            if iszero(delegatecall(gas, caller, 31, 129, 0x80, 0x20)) {\n                mstore(0xd,add(2200,mload(0x80)))\n                revert(0xd,0x20)\n            }\n            // We don't need to return anything in success\n            return(0,0)\n        }\n    }\n\n    // Log to two topics\n    function C() public {\n        assembly {\n            // First set up the input data (at memory location 0x0)\n            // The log call is 0x-09\n            mstore(0x0,0x09)\n            // The capability index is 0x-01\n            mstore(0x20,0x01)\n            // The number of topics we will use\n            mstore(0x40,0x2)\n            // The first topic\n            mstore(0x60,0xabcd)\n            // The second topic\n            mstore(0x80,0xbeef)\n            // The value we want to log\n            mstore(0xa0,0x1234567890)\n            // \"in_offset\" is at 31, because we only want the last byte of type\n            // \"in_size\" is 129 because it is 1+32+32+32+32+32\n            // we will store the result at 0x80 and it will be 32 bytes\n            if iszero(delegatecall(gas, caller, 31, 161, 0x80, 0x20)) {\n                mstore(0xd,add(2200,mload(0x80)))\n                revert(0xd,0x20)\n            }\n            // We don't need to return anything in success\n            return(0,0)\n        }\n    }\n\n    // Log to three topics\n    function D() public {\n        assembly {\n            // First set up the input data (at memory location 0x0)\n            // The log call is 0x-09\n            mstore(0x0,0x09)\n            // The capability index is 0x-01\n            mstore(0x20,0x01)\n            // The number of topics we will use\n            mstore(0x40,0x3)\n            // The first topic\n            mstore(0x60,0xabcd)\n            // The second topic\n            mstore(0x80,0xbeef)\n            // The third topic\n            mstore(0xa0,0xcafe)\n            // The value we want to log\n            mstore(0xc0,0x1234567890)\n            // \"in_offset\" is at 31, because we only want the last byte of type\n            // \"in_size\" is 129 because it is 1+32+32+32+32+32\n            // we will store the result at 0x80 and it will be 32 bytes\n            if iszero(delegatecall(gas, caller, 31, 193, 0x80, 0x20)) {\n                mstore(0xd,add(2200,mload(0x80)))\n                revert(0xd,0x20)\n            }\n            // We don't need to return anything in success\n            return(0,0)\n        }\n    }\n\n    // Log to four topics\n    function E() public {\n        assembly {\n            // First set up the input data (at memory location 0x0)\n            // The log call is 0x-09\n            mstore(0x0,0x09)\n            // The capability index is 0x-01\n            mstore(0x20,0x01)\n            // The number of topics we will use\n            mstore(0x40,0x4)\n            // The first topic\n            mstore(0x60,0xabcd)\n            // The second topic\n            mstore(0x80,0xbeef)\n            // The third topic\n            mstore(0xa0,0xcafe)\n            // The fourth topic\n            mstore(0xc0,0x4545)\n            // The value we want to log\n            mstore(0xe0,0x1234567890)\n            // \"in_offset\" is at 31, because we only want the last byte of type\n            // \"in_size\" is 129 because it is 1+32+32+32+32+32\n            // we will store the result at 0x80 and it will be 32 bytes\n            if iszero(delegatecall(gas, caller, 31, 225, 0x80, 0x20)) {\n                mstore(0xd,add(2200,mload(0x80)))\n                revert(0xd,0x20)\n            }\n            // We don't need to return anything in success\n            return(0,0)\n        }\n    }\n}",
  "sourcePath": "/mnt/c/Users/Raketa/Documents/Repos/beakeros/contracts/test/valid/SysCallTestLog.sol",
  "compiler": {
    "name": "solc",
    "version": "0.4.24+commit.e67f0147.Emscripten.clang"
  },
  "schemaVersion": "2.0.1",
  "updatedAt": "2018-10-16T14:59:29.636Z"
}