{
  "contractName": "ThirdNestedCall",
  "abi": [
    {
      "constant": false,
      "inputs": [],
      "name": "G",
      "outputs": [],
      "payable": false,
      "stateMutability": "nonpayable",
      "type": "function"
    }
  ],
  "bytecode": "0x608060405234801561001057600080fd5b506101fe806100206000396000f300608060405260043610610041576000357c0100000000000000000000000000000000000000000000000000000000900463ffffffff1680636fecb62314610046575b600080fd5b34801561005257600080fd5b5061005b61005d565b005b60006060610082565b6000602082066020038201604051915080820160405250919050565b6100e3565b60006100936080610066565b6007600082015282602082015283604082015284606082015260206100b781610066565b925080836061601f8501335af415156100da5760805161089801600d526020600dfd5b50509392505050565b6100f2604d6180036001610087565b507f466f757274684e657374656443616c6c0000000000000000000000000000000091506040805190810160405280600381526020017f4728290000000000000000000000000000000000000000000000000000000000815250905061016f565b6000602082066020038201604051915080820160405250919050565b6101796080610153565b6003600082015260026020820152826040820152602061019881610153565b81606084015283516020850120608084015281816065601f8601335af415156101cb5760805161089801600d526020600dfd5b50505050505600a165627a7a72305820a6a90bcecc0505718185322fd545ce36144374625ee4cf4e9d3160c5409c960e0029",
  "source": "pragma solidity ^0.4.17;\n\ncontract ThirdNestedCall {\n\n\n     // FirstNestedCall - store at 0x8001\n     //   SecondNestedCall - store at 0x8002\n     //     ThirdNestedCall - store at 0x8003\n     //       FourthNestedCall - store at 0x8004\n     //     FifthNestedCall - store at 0x8005\n     //   SixthNestedCall - store at 0x8006\n     // End\n    function G() public {\n        // First we do the store for FirstNestedCall\n        assembly {\n            function malloc(size) -> result {\n                // align to 32-byte words\n                let rsize := add(size,sub(32,mod(size,32)))\n                // get the current free mem location\n                result :=  mload(0x40)\n                // Bump the value of 0x40 so that it holds the next\n                // available memory location.\n                mstore(0x40,add(result,rsize))\n            }\n            function storeCall(capIndex, storeLoc, storeVal) -> retLoc {\n                let ins := malloc(128)\n                // First set up the input data (at memory location 0x0)\n                // The write call is 0x-07\n                mstore(add(ins,0x0),0x07)\n                // The capability index is 0x-01\n                mstore(add(ins,0x20),capIndex)\n                // The storage location we want is storeLoc\n                mstore(add(ins,0x40),storeLoc)\n                // The value we want to store\n                mstore(add(ins,0x60),storeVal)\n                let retSize := 0x20\n                retLoc := malloc(retSize)\n                // \"in_offset\" is at 31, because we only want the last byte of type\n                // \"in_size\" is 97 because it is 1+32+32+32\n                // we will store the result at 0x80 and it will be 32 bytes\n                if iszero(delegatecall(gas, caller, add(ins,31), 97, retLoc, retSize)) {\n                    mstore(0xd,add(2200,mload(0x80)))\n                    revert(0xd,0x20)\n                }\n            }\n            storeCall(1, 0x8003, 77)\n            pop\n        }\n        // End of write call\n        // Being our call to FourthNestedCall\n        bytes24 reqProc = bytes24(\"FourthNestedCall\");\n        string memory fselector = \"G()\";\n        assembly {\n            function malloc(size) -> result {\n                // align to 32-byte words\n                let rsize := add(size,sub(32,mod(size,32)))\n                // get the current free mem location\n                result :=  mload(0x40)\n                // Bump the value of 0x40 so that it holds the next\n                // available memory location.\n                mstore(0x40,add(result,rsize))\n            }\n            let ins := malloc(128)\n            // First set up the input data (at memory location 0x0)\n            // The call call is 0x-03\n            mstore(add(ins,0x0),0x03)\n            // The capability index is 0x-02\n            mstore(add(ins,0x20),0x02)\n            // The key of the procedure\n            mstore(add(ins,0x40),reqProc)\n            // The size of the return value we expect (0x20)\n            let retSize := 0x20\n            let retLoc := malloc(retSize)\n            mstore(add(ins,0x60),retSize)\n            mstore(add(ins,0x80),keccak256(add(fselector,0x20),mload(fselector)))\n            // \"in_offset\" is at 31, because we only want the last byte of type\n            // \"in_size\" is 65 because it is 1+32+32+32+4\n            // we will store the result at 0x80 and it will be 32 bytes\n            if iszero(delegatecall(gas, caller, add(ins,31), 101, retLoc, retSize)) {\n                mstore(0xd,add(2200,mload(0x80)))\n                revert(0xd,0x20)\n            }\n        }\n        // End procedure call\n        // TODO: perform some checks and return\n    }\n}",
  "sourcePath": "/mnt/c/Users/Raketa/Documents/Repos/beakeros/contracts/test/valid/NestedCalls/ThirdNestedCall.sol",
  "compiler": {
    "name": "solc",
    "version": "0.4.24+commit.e67f0147.Emscripten.clang"
  },
  "schemaVersion": "2.0.1",
  "updatedAt": "2018-10-17T15:36:37.280Z"
}