{
  "contractName": "WhatIsMyAddress",
  "abi": [
    {
      "constant": true,
      "inputs": [],
      "name": "get",
      "outputs": [
        {
          "name": "",
          "type": "address"
        }
      ],
      "payable": false,
      "stateMutability": "view",
      "type": "function"
    }
  ],
  "bytecode": "0x60d761002f600b82828239805160001a6073146000811461001f57610021565bfe5b5030600052607381538281f30073000000000000000000000000000000000000000030146080604052600436106056576000357c0100000000000000000000000000000000000000000000000000000000900463ffffffff1680636d4ce63c14605b575b600080fd5b606160a3565b604051808273ffffffffffffffffffffffffffffffffffffffff1673ffffffffffffffffffffffffffffffffffffffff16815260200191505060405180910390f35b6000339050905600a165627a7a723058202556588f97db63fbc899fda79472bacb4062896da4d5a44953863117942f1f4b0029",
  "source": "pragma solidity ^0.4.17;\n\nimport \"./Factory.sol\";\nimport \"./ProcedureTable.sol\";\n\nlibrary WhatIsMyAddress {\n    function get() public view returns (address) {\n        return msg.sender;\n    }\n}\n\ncontract Kernel is Factory {\n    event KernelLog(string message);\n    using ProcedureTable for ProcedureTable.Self;\n    ProcedureTable.Self procedures;\n    address kernelAddress;\n    bytes24 currentProcedure;\n\n    struct Process {\n        // Equal to the index of the key of this item in keys, plus 1.\n        uint8 keyIndex;\n        address location;\n    }\n\n    function Kernel() public {\n        // kernelAddress = WhatIsMyAddress.get();\n        // This is an example kernel global variable for testing.\n        assembly {\n            sstore(0x8000,3)\n        }\n    }\n\n    function testGetter() public view returns(uint256) {\n        assembly {\n            mstore(0,sload(0x8000))\n            return(0,0x20)\n        }\n    }\n\n    function testSetter(uint256 value) public {\n        assembly {\n            sstore(0x8000,value)\n        }\n    }\n\n    function parse32ByteValue(uint256 startOffset) pure internal returns (uint256) {\n        uint256 value = 0;\n        for (uint256 i = 0; i < 32; i++) {\n            value = value << 8;\n            value = value | uint256(msg.data[startOffset+i]);\n        }\n        return value;\n    }\n\n    // Check if a transaction is external.\n    function isExternal() internal view returns (bool) {\n        // If the current transaction is from the procedure we are executing,\n        // then it is a systemcall. Otherwise it is an external transaction.\n        // We have in storage a value (currentProcedure) which states which\n        // procedure the kernel is currently executing. If we have this value\n        // then something is running, so it must be an internal transaction.\n        // If it is empty, it means we are not executing anything, and it is an\n        // external transaction.\n\n        // While the kernel is executing a procedure, nothing else can run\n        // across the whole blockchain, therefore we must be receiving a\n        // transaction from the procedure set in \"currentProcedure\"\n\n\n        // TODO: we will need to reserve a value for \"not executing anything\"\n        // If the transaction is from this procedure...\n        return (currentProcedure == 0);\n\n    }\n\n    // This is what we execute when we receive an external transaction.\n    function callGuardProcedure(address sender, bytes data) internal {\n        // revert(\"external call\");\n        // TODO: this is not currerntly in any code path because we just use\n        // \"executeProcedure\"\n        // here we need to use callcode. delegatecall would leave the CALLER as\n        // the account which started the transaction\n        // The address here needs to be updated to call Procedure1\n        // everytime Procedure1 is deployed\n        //\n        // TODO: Determine the address of the procedure at index 0 of\n        // the procedure table.\n        // This (from last parameters to first):\n        // 1. Allocates an area in memory of size 0x40 (64 bytes)\n        // 2.    At memory location 0x80\n        // 3. Set the input size to 67 bytes\n        // 4.    At memory location 29\n        // 5. Send 0 wei\n        // 6. The contract address we are calling to\n        // 7. The gas we are budgeting\n        //\n        assembly {\n            //        7                       6                       5   4   3   2      1\n            callcode(gas, 0x8885584aa73fccf0f4572a770d1a0d6bd0b4360a, 0, 29, 67, 0x80, 0x40)\n            // store the return code in memory location 0x60 (1 byte)\n            0x60\n            mstore\n            // return both delegatecall return values and the system call\n            // return value\n            return(0x60,0x60)\n        }\n    }\n\n    // This is the fallback function which is used to handle system calls. This\n    // is only called if the other functions fail.\n    function() public {\n        bool cap;\n        uint256 capIndex;\n        // This is the entry point for the kernel\n        // TODO: we aren't currently using this, as we can't invoke a cap that\n        // calls other procedures.\n        Process[] memory processTable = new Process[](256);\n        // Before we do anything, let's set up some information about this call.\n        // Where is this call coming from? If it is an external account we can\n        // just use the caller value.\n        // TODO: we will implement this when we stop using \"executeProcedure\"\n\n\n        // If it is an external account, we forward it straight to the init\n        // procedure. We currently shouldn't reach this point, as we usually use\n        // \"executeProcedure\"\n        if (isExternal()) {\n            callGuardProcedure(msg.sender, msg.data);\n        }\n\n        // Parse the system call\n        // SystemCall memory syscall = parseSystemCall();\n        uint8 sysCallCapType = uint8(msg.data[0]);\n\n        // 0x00 - not a syscall\n        // 0x01 - read syscall\n        // 0x03 - exec syscall\n        // 0x07 - write syscall\n        // 0x09 - log syscall\n\n        // TODO: this was used to track some things but conflicts with some\n        // tests\n        // log1(bytes32(currentProcedure), bytes32(\"current-procedure\"));\n\n        // Here we decode the system call (if there is one)\n        if (sysCallCapType == 0) {\n            // non-syscall case\n        } else if (sysCallCapType == 0x03) {\n            // This is a call system call\n            // parse a 32-byte value at offset 1 (offset 0 is the capType byte)\n            capIndex = parse32ByteValue(1);\n            // parse a 32-byte value at offset 1 (offset 0 is the capType byte,\n            // offset 1 is the capIndex (32 bytes)\n            // We also perform a shift as this is 24 byte value, not a 32 byte\n            // value\n            bytes24 procedureKey = bytes24(parse32ByteValue(1+32)/0x10000000000000000);\n            uint256 returnLength = uint256(parse32ByteValue(1+32*2));\n            uint256 dataLength;\n            // log1(bytes32(msg.data.length), bytes32(\"msg.data.length\"));\n            if (msg.data.length > (1+3*32)) {\n                dataLength = msg.data.length - (1+3*32);\n            } else {\n                dataLength = 0;\n            }\n            cap = procedures.checkCallCapability(uint192(currentProcedure), procedureKey, capIndex);\n            address procedureAddress = procedures.get(procedureKey);\n            // Set a new current procedure\n            // bytes24 previousProcedure = currentProcedure;\n            currentProcedure = procedureKey;\n            if (cap) {\n                assembly {\n                    // Retrieve the address of new available memory from address 0x40\n                    // we will use this as the start of the input (ins)\n                    let ins\n                    let inl\n                    if dataLength {\n                        // If there is any data associated with this procedure\n                        // call (this inlcudes the data such as a function\n                        // selector) we need to set that as the input data to\n                        // the delegatecall.\n                        // First we must allocate some memory.\n                        ins :=  mload(0x40) // get the allocated location\n                        // Bump the value of 0x40 so that it holds the next\n                        // available memory location.\n                        // TODO: align this bump to 32-byte boundaries\n                        mstore(0x40,add(ins,dataLength))\n\n                        // Then we store that data at this allocated memory\n                        // location\n                        calldatacopy(ins, 97, dataLength)\n                        inl := dataLength\n                        // log0(ins,inl)\n                    }\n                    if iszero(dataLength) {\n                        // If there is not data to be sent we just set the\n                        // location and length of the input data to zero. The\n                        // location doesn't actually matter as long the length\n                        // is zero.\n                        ins := 0\n                        inl := 0\n                    }\n                    // Take the keccak256 hash of that string, store at location n\n                    // mstore\n                    // Argument #1: The address (n) calculated above, to store the\n                    //    hash.\n                    // Argument #2: The hash, calculted as follows:\n                    //   keccack256\n                    //   Argument #1: The location of the fselector string (which\n                    //     is simply the name of the variable) with an added offset\n                    //     of 0x20, as the first 0x20 is reserved for the length of\n                    //     the string.\n                    //   Argument #2: The length of the string, which is loaded from\n                    //     the first 0x20 of the string.\n                    // mstore(n,keccak256(add(fselector,0x20),mload(fselector)))\n\n                    // The input starts at where we stored the hash (n)\n                    // let ins := n\n\n                    let status := callcode(\n                        // The gas we are budgeting, which is always all the\n                        // available gas\n                        gas,\n                        // The address for the chosen procedure which we\n                        // obtained earlier\n                        procedureAddress,\n                        // The value we are sending, we never want to do this\n                        0,\n                        // The starting memory offset of the innput data\n                        ins,\n                        // The length of the input data\n                        inl,\n                        // TODO: Allocate a new area of memory into which to\n                        // write the return data. This will depend on the size\n                        // of the return type.\n                        // The starting memory offset to place the output data\n                        0x60,\n                        // The length of the output data\n                        returnLength)\n                    // Store the procedure we are currently running\n                    sstore(currentProcedure_slot,procedureAddress)\n                    if eq(status,0) {\n                        // error\n                        mstore(0x0,add(22,mload(0x60)))\n                        // mstore(0x40,235)\n                        // TODO: switch to revert\n                        return(0x0,0x20)\n                    }\n                    if eq(status,1) {\n                        return(0x60,returnLength)\n                    }\n                }\n            } else {\n                assembly {\n                    // 33 means the capability was rejected\n                    mstore(0,33)\n                    revert(0,0x20)\n                }\n            }\n        } else if (sysCallCapType == 0x07) {\n            // This is a store system call\n            // Here we have established that we are processing a write call and\n            // we must destructure the necessary values.\n            capIndex = parse32ByteValue(1);\n            uint256 writeAddress = parse32ByteValue(1+32*1);\n            uint256 writeValue = parse32ByteValue(1+32*2);\n            cap = procedures.checkWriteCapability(uint192(currentProcedure), writeAddress, capIndex);\n            if (cap) {\n                assembly {\n                    sstore(writeAddress, writeValue)\n                    // We don't need to return anything\n                    return(0,0)\n                }\n            } else {\n                assembly {\n                    mstore(0,22)\n                    return(0,0x20)\n                }\n            }\n        } else if (sysCallCapType == 0x09) {\n            // This is a log system call\n            // Here we have established that we are processing a write call and\n            // we must destructure the necessary values.\n            capIndex = parse32ByteValue(1);\n            uint256 nTopics = parse32ByteValue(1+32*1);\n            bytes32[] memory topicVals = new bytes32[](nTopics);\n            for (uint256 i = 0; i < nTopics; i++) {\n                topicVals[i] = bytes32(parse32ByteValue(1+32*(2+i)));\n            }\n            bytes32 logValue = bytes32(parse32ByteValue(1+32*(2+nTopics)));\n            cap = procedures.checkLogCapability(uint192(currentProcedure), topicVals, capIndex);\n            if (cap) {\n                if (nTopics == 0) {\n                    log0(logValue);\n                    assembly {\n                        // We don't need to return anything\n                        return(0,0)\n                    }\n                } else if (nTopics == 1) {\n                    log1(logValue, topicVals[0]);\n                    assembly {\n                        // We don't need to return anything\n                        return(0,0)\n                    }\n                } else if (nTopics == 2) {\n                    log2(logValue, topicVals[0], topicVals[1]);\n                    assembly {\n                        // We don't need to return anything\n                        return(0,0)\n                    }\n                } else if (nTopics == 3) {\n                    log3(logValue, topicVals[0], topicVals[1], topicVals[2]);\n                    assembly {\n                        // We don't need to return anything\n                        return(0,0)\n                    }\n                } else if (nTopics == 4) {\n                    log4(logValue, topicVals[0], topicVals[1], topicVals[2], topicVals[3]);\n                    assembly {\n                        // We don't need to return anything\n                        return(0,0)\n                    }\n                } else {\n                    assembly {\n                        // Revert with an error code\n                        mstore(0,44)\n                        revert(0,0x20)\n                    }\n                }\n            } else {\n                assembly {\n                    mstore(0,33)\n                    revert(0,0x20)\n                }\n            }\n            assembly{\n                mstore(0xd,152)\n                return(0xd,0x20)\n            }\n        } else if (sysCallCapType == 0x03) {\n            // This is the exec system call\n            //\n            // First we need to check if we have the capability to\n            // execute this procedure. The first argument is simply an index\n            // of the procedure we want to call (in the procedure table).\n            // How do we determine if we have the capability? Perhaps this\n            // is not an address, but simply an index into the CList of the\n            // process that called this syscall. How do we access that\n            // CList? What if it is an account? If it is an account we know\n            // the sender. But if it is a procedure the sender is the\n            // the kernel and we don't know who is doing the sending.\n\n            // What process is calling this and what capabilities does it\n            // have?\n\n            // TODO: implement, this is issue #58.\n        } else {\n            // default; fallthrough action\n            assembly {\n                mstore8(0xb0,5)\n                log0(0xb0, 1)\n            }\n        }\n    }\n\n    function createProcedure(bytes24 name, bytes oCode, uint256[] caps) public returns (uint8 err, address procedureAddress) {\n        // Check whether the first byte is null and set err to 1 if so\n        if (name == 0) {\n            err = 1;\n            return;\n        }\n\n        // Check whether the address exists\n        bool exist = procedures.contains(name);\n        if (exist) {\n            err = 3;\n            return;\n        }\n\n        procedureAddress = create(oCode);\n        procedures.insert(name, procedureAddress, caps);\n    }\n\n    function deleteProcedure(bytes24 name) public returns (uint8 err, address procedureAddress) {\n        // Check whether the first byte is null and set err to 1 if so\n        if (name[0] == 0) {\n            err = 1;\n            return;\n        }\n\n        procedureAddress = procedures.get(name);\n        bool success = procedures.remove(name);\n\n        // Check whether the address exists\n        if (!success) {err = 2;}\n    }\n\n    function listProcedures() public view returns (bytes24[] memory) {\n        return procedures.getKeys();\n    }\n\n    function returnRawProcedureTable() public view returns (uint256[]) {\n        return procedures.returnRawProcedureTable();\n    }\n\n    function returnProcedureTable() public view returns (uint256[]) {\n        return procedures.returnProcedureTable();\n    }\n\n    // function nProcedures() public view returns (uint256) {\n    //     return procedures.size();\n    // }\n\n\n    function getProcedure(bytes24 name) public returns (address) {\n        return procedures.get(name);\n    }\n\n    function executeProcedure(bytes24 name, string fselector, bytes payload) public returns (uint256 retVal) {\n        // // Check whether the first byte is null and set err to 1 if so\n        if (name[0] == 0) {\n            retVal = 1;\n            return;\n        }\n        // Check whether the address exists\n        bool exist = procedures.contains(name);\n        if (!exist) {\n            retVal = 3;\n            return;\n        }\n        // TODO: I believe this should use the keyindex\n        // assembly {\n        //     sstore(currentProcedure_slot,div(name,exp(0x100,8)))\n        // }\n        currentProcedure = name;\n        address procedureAddress = procedures.get(name);\n        bool status = false;\n        assembly {\n            // Retrieve the address of new available memory from address 0x40\n            let n :=  mload(0x40)\n            // Replace the value of 0x40 with the next new available memory,\n            // after the 4 bytes we will use to store the keccak hash.\n            mstore(0x40,add(n,32))\n            // Take the keccak256 hash of that string, store at location n\n            // mstore\n            // Argument #1: The address (n) calculated above, to store the\n            //    hash.\n            // Argument #2: The hash, calculted as follows:\n            //   keccack256\n            //   Argument #1: The location of the fselector string (which\n            //     is simply the name of the variable) with an added offset\n            //     of 0x20, as the first 0x20 is reserved for the length of\n            //     the string.\n            //   Argument #2: The length of the string, which is loaded from\n            //     the first 0x20 of the string.\n            mstore(n,keccak256(add(fselector,0x20),mload(fselector)))\n\n            // The input starts at where we stored the hash (n)\n            let ins := n\n            // Currently that is only the function selector hash, which is 4\n            // bytes long.\n            let inl := 0x4\n            // TODO: Allocate a new area of memory into which to write the\n            // return data. This will depend on the size of the return type.\n            let outs := 0x60\n            // There is no return value, therefore it's length is 0 bytes long\n            // REVISION: lets assume a 32 byte return value for now\n            let outl := 0x20\n\n            status := callcode(gas,procedureAddress,0,ins,inl,outs,outl)\n            sstore(currentProcedure_slot,0)\n            if eq(status,0) {\n                // error\n                mstore(0x0,add(220000,mload(outs)))\n                // mstore(0x40,235)\n                // TODO: switch to revert\n                return(0x0,0x20)\n            }\n            if eq(status,1) {\n                return(outs,outl)\n            }\n        }\n        if (!status) {\n            retVal = 85;\n        }\n    }\n}",
  "sourcePath": "/mnt/c/Users/Raketa/Documents/Repos/beakeros/contracts/Kernel.sol",
  "compiler": {
    "name": "solc",
    "version": "0.4.24+commit.e67f0147.Emscripten.clang"
  },
  "schemaVersion": "2.0.1",
  "updatedAt": "2018-09-17T13:43:44.370Z"
}