{
  "contractName": "Kernel",
  "abi": [
    {
      "constant": true,
      "inputs": [
        {
          "name": "",
          "type": "bytes1"
        }
      ],
      "name": "opCodes",
      "outputs": [
        {
          "name": "",
          "type": "uint8"
        }
      ],
      "payable": false,
      "stateMutability": "view",
      "type": "function"
    },
    {
      "constant": true,
      "inputs": [
        {
          "name": "oCode",
          "type": "bytes"
        }
      ],
      "name": "codeLength",
      "outputs": [
        {
          "name": "len",
          "type": "uint256"
        }
      ],
      "payable": false,
      "stateMutability": "pure",
      "type": "function"
    },
    {
      "constant": true,
      "inputs": [
        {
          "name": "oCode",
          "type": "bytes"
        }
      ],
      "name": "validate",
      "outputs": [
        {
          "name": "err",
          "type": "uint8"
        }
      ],
      "payable": false,
      "stateMutability": "view",
      "type": "function"
    },
    {
      "constant": false,
      "inputs": [
        {
          "name": "oCode",
          "type": "bytes"
        }
      ],
      "name": "create",
      "outputs": [
        {
          "name": "d",
          "type": "address"
        }
      ],
      "payable": false,
      "stateMutability": "nonpayable",
      "type": "function"
    },
    {
      "constant": true,
      "inputs": [
        {
          "name": "oCode",
          "type": "bytes"
        }
      ],
      "name": "codePosition",
      "outputs": [
        {
          "name": "code",
          "type": "uint256"
        }
      ],
      "payable": false,
      "stateMutability": "pure",
      "type": "function"
    },
    {
      "payable": true,
      "stateMutability": "payable",
      "type": "fallback"
    },
    {
      "anonymous": false,
      "inputs": [
        {
          "indexed": false,
          "name": "message",
          "type": "string"
        }
      ],
      "name": "KernelLog",
      "type": "event"
    },
    {
      "anonymous": false,
      "inputs": [
        {
          "indexed": false,
          "name": "sender",
          "type": "address"
        },
        {
          "indexed": false,
          "name": "amount",
          "type": "uint256"
        }
      ],
      "name": "LogFundsReceived",
      "type": "event"
    },
    {
      "anonymous": false,
      "inputs": [
        {
          "indexed": false,
          "name": "receiver",
          "type": "address"
        },
        {
          "indexed": false,
          "name": "amount",
          "type": "uint256"
        }
      ],
      "name": "LogFundsSent",
      "type": "event"
    },
    {
      "constant": false,
      "inputs": [
        {
          "name": "name",
          "type": "bytes24"
        },
        {
          "name": "oCode",
          "type": "bytes"
        }
      ],
      "name": "createProcedure",
      "outputs": [
        {
          "name": "err",
          "type": "uint8"
        },
        {
          "name": "procedureAddress",
          "type": "address"
        }
      ],
      "payable": false,
      "stateMutability": "nonpayable",
      "type": "function"
    },
    {
      "constant": false,
      "inputs": [
        {
          "name": "name",
          "type": "bytes24"
        }
      ],
      "name": "deleteProcedure",
      "outputs": [
        {
          "name": "err",
          "type": "uint8"
        },
        {
          "name": "procedureAddress",
          "type": "address"
        }
      ],
      "payable": false,
      "stateMutability": "nonpayable",
      "type": "function"
    },
    {
      "constant": true,
      "inputs": [],
      "name": "listProcedures",
      "outputs": [
        {
          "name": "",
          "type": "bytes24[]"
        }
      ],
      "payable": false,
      "stateMutability": "view",
      "type": "function"
    },
    {
      "constant": true,
      "inputs": [
        {
          "name": "name",
          "type": "bytes24"
        }
      ],
      "name": "getProcedure",
      "outputs": [
        {
          "name": "",
          "type": "address"
        }
      ],
      "payable": false,
      "stateMutability": "view",
      "type": "function"
    },
    {
      "constant": false,
      "inputs": [
        {
          "name": "name",
          "type": "bytes24"
        },
        {
          "name": "fselector",
          "type": "string"
        },
        {
          "name": "payload",
          "type": "bytes"
        }
      ],
      "name": "executeProcedure",
      "outputs": [
        {
          "name": "err",
          "type": "uint8"
        },
        {
          "name": "retVal",
          "type": "uint256"
        }
      ],
      "payable": false,
      "stateMutability": "nonpayable",
      "type": "function"
    }
  ],
  "bytecode": "0x6060604052341561000f57600080fd5b61127e8061001e6000396000f3006060604052600436106100a4576000357c0100000000000000000000000000000000000000000000000000000000900463ffffffff1680630866a87d14610111578063087536ec146101705780630ce535e8146101e157806320fc0a951461024f5780637e7e8841146102ca5780639738849b14610334578063b00aa1f214610409578063c16e50ef146104c7578063cf5ba53f1461053e578063dfe43992146105db575b7fafc7c22656214f820dd5d5d53d4e1a42b878f2fe22f8523d33e095602edff9223334604051808373ffffffffffffffffffffffffffffffffffffffff1673ffffffffffffffffffffffffffffffffffffffff1681526020018281526020019250505060405180910390a1005b341561011c57600080fd5b61015460048080357effffffffffffffffffffffffffffffffffffffffffffffffffffffffffffff191690602001909190505061064c565b604051808260ff1660ff16815260200191505060405180910390f35b341561017b57600080fd5b6101cb600480803590602001908201803590602001908080601f0160208091040260200160405190810160405280939291908181526020018383808284378201915050505050509190505061066c565b6040518082815260200191505060405180910390f35b34156101ec57600080fd5b61020d600480803567ffffffffffffffff1916906020019091905050610677565b604051808273ffffffffffffffffffffffffffffffffffffffff1673ffffffffffffffffffffffffffffffffffffffff16815260200191505060405180910390f35b341561025a57600080fd5b61027b600480803567ffffffffffffffff1916906020019091905050610694565b604051808360ff1660ff1681526020018273ffffffffffffffffffffffffffffffffffffffff1673ffffffffffffffffffffffffffffffffffffffff1681526020019250505060405180910390f35b34156102d557600080fd5b6102dd61075e565b6040518080602001828103825283818151815260200191508051906020019060200280838360005b83811015610320578082015181840152602081019050610305565b505050509050019250505060405180910390f35b341561033f57600080fd5b6103e6600480803567ffffffffffffffff191690602001909190803590602001908201803590602001908080601f0160208091040260200160405190810160405280939291908181526020018383808284378201915050505050509190803590602001908201803590602001908080601f01602080910402602001604051908101604052809392919081815260200183838082843782019150505050505091905050610775565b604051808360ff1660ff1681526020018281526020019250505060405180910390f35b341561041457600080fd5b610478600480803567ffffffffffffffff191690602001909190803590602001908201803590602001908080601f01602080910402602001604051908101604052809392919081815260200183838082843782019150505050505091905050610887565b604051808360ff1660ff1681526020018273ffffffffffffffffffffffffffffffffffffffff1673ffffffffffffffffffffffffffffffffffffffff1681526020019250505060405180910390f35b34156104d257600080fd5b610522600480803590602001908201803590602001908080601f01602080910402602001604051908101604052809392919081815260200183838082843782019150505050505091905050610903565b604051808260ff1660ff16815260200191505060405180910390f35b341561054957600080fd5b610599600480803590602001908201803590602001908080601f01602080910402602001604051908101604052809392919081815260200183838082843782019150505050505091905050610a3e565b604051808273ffffffffffffffffffffffffffffffffffffffff1673ffffffffffffffffffffffffffffffffffffffff16815260200191505060405180910390f35b34156105e657600080fd5b610636600480803590602001908201803590602001908080601f01602080910402602001604051908101604052809392919081815260200183838082843782019150505050505091905050610a56565b6040518082815260200191505060405180910390f35b60006020528060005260406000206000915054906101000a900460ff1681565b600081519050919050565b600061068d826001610a6690919063ffffffff16565b9050919050565b6000806000807f0100000000000000000000000000000000000000000000000000000000000000028460006018811015156106cb57fe5b1a7f0100000000000000000000000000000000000000000000000000000000000000027effffffffffffffffffffffffffffffffffffffffffffffffffffffffffffff1916141561071f5760019250610758565b610733846001610a6690919063ffffffff16565b9150610749846001610ab390919063ffffffff16565b905080151561075757600292505b5b50915091565b61076661120b565b6107706001610c23565b905090565b6000806000806000807f0100000000000000000000000000000000000000000000000000000000000000028860006018811015156107af57fe5b1a7f0100000000000000000000000000000000000000000000000000000000000000027effffffffffffffffffffffffffffffffffffffffffffffffffffffffffffff19161415610803576001945061087c565b610817886001610d5b90919063ffffffff16565b9250821515610829576003945061087c565b61083d886001610a6690919063ffffffff16565b9150600090506040516020810160405287516020890120815280600460606000808284868a6113885a03f49550505050505080151561087b57600494505b5b505050935093915050565b60008060008068010000000000000000028567ffffffffffffffff191614156108b357600192506108fb565b6108c7856001610d5b90919063ffffffff16565b905080156108d857600392506108fb565b6108e184610a3e565b91506108f985836001610da79092919063ffffffff16565b505b509250929050565b60008060008091505b8351821015610a3257838281518110151561092357fe5b9060200101517f010000000000000000000000000000000000000000000000000000000000000090047f0100000000000000000000000000000000000000000000000000000000000000027f01000000000000000000000000000000000000000000000000000000000000009004905060f08160ff1614156109a85760019250610a37565b60f18160ff1614156109bd5760029250610a37565b60f28160ff1614156109d25760039250610a37565b60f48160ff1614156109e75760049250610a37565b60ff8160ff1614156109fc5760059250610a37565b60608160ff1610158015610a145750607f8160ff1611155b15610a2557605f810360ff16820191505b818060010192505061090c565b600092505b5050919050565b6000815160208301818101816000f092505050919050565b6000815160008301915050919050565b6000610aab60006001610a8485680100000000000000009004610e9d565b017effffffffffffffffffffffffffffffffffffffffffffffffffffffffffffff16610f29565b905092915050565b6000610abd61121f565b6000806000806000806000610add8a680100000000000000009004610f43565b97506000886000015160ff161415610af85760009850610c15565b610b00611001565b9650610b2e6000887effffffffffffffffffffffffffffffffffffffffffffffffffffffffffffff16610f29565b955085886000015160ff16111515610c1457610b558a680100000000000000009004610e9d565b9450610b648860000151611087565b9350610b7260018703611087565b9250610ba06000847effffffffffffffffffffffffffffffffffffffffffffffffffffffffffffff16610f29565b9150610bab82610e9d565b9050610bc06000828a6000015160ff16611117565b610be66000858477ffffffffffffffffffffffffffffffffffffffffffffffff16611117565b610bf36000846000611117565b610bfc8561114f565b610c0b60008860018903611117565b60019850610c15565b5b505050505050505092915050565b610c2b61120b565b6000806000610c38611001565b9250610c666000847effffffffffffffffffffffffffffffffffffffffffffffffffffffffffffff16610f29565b915081604051805910610c765750595b90808252806020026020018201604052509350600090505b81817effffffffffffffffffffffffffffffffffffffffffffffffffffffffffffff161015610d5357610ce860006002838601017effffffffffffffffffffffffffffffffffffffffffffffffffffffffffffff16610f29565b680100000000000000000284827effffffffffffffffffffffffffffffffffffffffffffffffffffffffffffff16815181101515610d2257fe5b9060200190602002019067ffffffffffffffff1916908167ffffffffffffffff191681525050600181019050610c8e565b505050919050565b600080610d9e6000610d7885680100000000000000009004610e9d565b7effffffffffffffffffffffffffffffffffffffffffffffffffffffffffffff16610f29565b11905092915050565b6000610db161121f565b600080610dc986680100000000000000009004610f43565b925084836020019073ffffffffffffffffffffffffffffffffffffffff16908173ffffffffffffffffffffffffffffffffffffffff16815250506000836000015160ff161115610e1c5760019350610e93565b610e24611001565b9150610e526000837effffffffffffffffffffffffffffffffffffffffffffffffffffffffffffff16610f29565b905060018101836000019060ff16908160ff1681525050610e7860008360018401611117565b610e8e838768010000000000000000900461116f565b600093505b5050509392505050565b60008060405180807f70726f636564757265506f696e746572000000000000000000000000000000008152506010019050604051809103902090508277ffffffffffffffffffffffffffffffffffffffffffffffff1660f082600190047effffffffffffffffffffffffffffffffffffffffffffffffffffffffffffff169060020a0217915050919050565b600080610f3684846111f4565b9050805491505092915050565b610f4b61121f565b6000610f5683610e9d565b9050610f846000827effffffffffffffffffffffffffffffffffffffffffffffffffffffffffffff16610f29565b826000019060ff16908160ff1681525050610fc46000600183017effffffffffffffffffffffffffffffffffffffffffffffffffffffffffffff16610f29565b826020019073ffffffffffffffffffffffffffffffffffffffff16908173ffffffffffffffffffffffffffffffffffffffff168152505050919050565b60008060405180807f6b6579506f696e74657200000000000000000000000000000000000000000000815250600a0190506040518091039020905060f081780100000000000000000000000000000000000000000000000090047effffffffffffffffffffffffffffffffffffffffffffffffffffffffffffff169060020a0291505090565b60008060405180807f6b6579506f696e74657200000000000000000000000000000000000000000000815250600a019050604051809103902090508260ff16600160f083780100000000000000000000000000000000000000000000000090047effffffffffffffffffffffffffffffffffffffffffffffffffffffffffffff169060020a020101915050919050565b600061114484847effffffffffffffffffffffffffffffffffffffffffffffffffffffffffffff166111f4565b905081815550505050565b61115c6000826000611117565b61116c6000600183016000611117565b50565b60008061117f8460000151611087565b91506111a76000838577ffffffffffffffffffffffffffffffffffffffffffffffff16611117565b6111b083610e9d565b90506111c5600082866000015160ff16611117565b6111ee600060018301866020015173ffffffffffffffffffffffffffffffffffffffff16611117565b50505050565b600060f88360ff169060020a028217905092915050565b602060405190810160405280600081525090565b6040805190810160405280600060ff168152602001600073ffffffffffffffffffffffffffffffffffffffff16815250905600a165627a7a72305820bae0b3c08e9aa38711c30aa8486a19b310082455303b0d4a3077b5c6517def180029",
  "source": "pragma solidity ^0.4.17;\r\n\r\nimport \"./Factory.sol\";\r\nimport \"./ProcedureTable.sol\";\r\n\r\ncontract Kernel is Factory {\r\n    event KernelLog(string message);\r\n    using ProcedureTable for ProcedureTable.Self;\r\n    ProcedureTable.Self procedures;\r\n\r\n    function createProcedure(bytes24 name, bytes oCode) public returns (uint8 err, address procedureAddress) {\r\n        // Check whether the first byte is null and set err to 1 if so\r\n        if (name == 0) {\r\n            err = 1;\r\n            return;\r\n        }\r\n\r\n        // Check whether the address exists\r\n        bool exist = procedures.contains(name);\r\n        if (exist) {\r\n            err = 3;\r\n            return;\r\n        }\r\n\r\n        procedureAddress = create(oCode);\r\n        procedures.insert(name, procedureAddress);\r\n    }\r\n\r\n    function deleteProcedure(bytes24 name) public returns (uint8 err, address procedureAddress) {\r\n        // Check whether the first byte is null and set err to 1 if so\r\n        if (name[0] == 0) {\r\n            err = 1;\r\n            return;\r\n        }\r\n\r\n        procedureAddress = procedures.get(name);\r\n        bool success = procedures.remove(name);\r\n\r\n        // Check whether the address exists\r\n        if (!success) {err = 2;}\r\n    }\r\n\r\n    function listProcedures() public view returns (bytes24[] memory) {\r\n        return procedures.getKeys();\r\n    }\r\n\r\n    // function nProcedures() public view returns (uint256) {\r\n    //     return procedures.size();\r\n    // }\r\n\r\n\r\n    function getProcedure(bytes24 name) public view returns (address) {\r\n        return procedures.get(name);\r\n    }\r\n\r\n    function executeProcedure(bytes24 name, string fselector, bytes payload) public returns (uint8 err, uint256 retVal) {\r\n        // Check whether the first byte is null and set err to 1 if so\r\n        if (name[0] == 0) {\r\n            err = 1;\r\n            return;\r\n        }\r\n        // Check whether the address exists\r\n        bool exist = procedures.contains(name);\r\n        if (!exist) {\r\n            err = 3;\r\n            return;\r\n        }\r\n\r\n        address procedureAddress = procedures.get(name);\r\n        bool status = false;\r\n        assembly {\r\n            // Retrieve the address of new available memory from address 0x40\r\n            let n :=  mload(0x40)\r\n            // Replace the value of 0x40 with the next new available memory,\r\n            // after the 4 bytes we will use to store the keccak hash.\r\n            mstore(0x40,add(n,32))\r\n            // Take the keccak256 hash of that string, store at location n\r\n            // mstore\r\n            // Argument #1: The address (n) calculated above, to store the\r\n            //    hash.\r\n            // Argument #2: The hash, calculted as follows:\r\n            //   keccack256\r\n            //   Argument #1: The location of the fselector string (which\r\n            //     is simply the name of the variable) with an added offset\r\n            //     of 0x20, as the first 0x20 is reserved for the length of\r\n            //     the string.\r\n            //   Argument #2: The length of the string, which is loaded from\r\n            //     the first 0x20 of the string.\r\n            mstore(n,keccak256(add(fselector,0x20),mload(fselector)))\r\n\r\n            // The input starts at where we stored the hash (n)\r\n            let ins := n\r\n            // Currently that is only the function selector hash, which is 4\r\n            // bytes long.\r\n            let inl := 0x4\r\n            // TODO: Allocate a new area of memory into which to write the\r\n            // return data. This will depend on the size of the return type.\r\n            let outs := 0x60\r\n            // There is no return value, therefore it's length is 0 bytes long\r\n            let outl := 0\r\n\r\n            status := delegatecall(sub(gas,5000),procedureAddress,ins,inl,outs,outl)\r\n\r\n        }\r\n        if (!status) {\r\n            err = 4;\r\n        }\r\n    }\r\n}",
  "sourcePath": "/mnt/c/Users/Raketa/Documents/Repos/lab/contracts/Kernel.sol",
  "compiler": {
    "name": "solc",
    "version": "0.4.19+commit.c4cbbb05.Emscripten.clang"
  },
  "schemaVersion": "1.0.1",
  "updatedAt": "2018-05-05T18:34:53.885Z"
}