{
  "contractName": "Kernel",
  "abi": [
    {
      "constant": false,
      "inputs": [],
      "name": "callGuardProcedure",
      "outputs": [],
      "payable": false,
      "stateMutability": "nonpayable",
      "type": "function"
    },
    {
      "constant": true,
      "inputs": [
        {
          "name": "",
          "type": "bytes1"
        }
      ],
      "name": "opCodes",
      "outputs": [
        {
          "name": "",
          "type": "uint8"
        }
      ],
      "payable": false,
      "stateMutability": "view",
      "type": "function"
    },
    {
      "constant": true,
      "inputs": [
        {
          "name": "oCode",
          "type": "bytes"
        }
      ],
      "name": "codeLength",
      "outputs": [
        {
          "name": "len",
          "type": "uint256"
        }
      ],
      "payable": false,
      "stateMutability": "pure",
      "type": "function"
    },
    {
      "constant": false,
      "inputs": [
        {
          "name": "name",
          "type": "bytes24"
        }
      ],
      "name": "getProcedure",
      "outputs": [
        {
          "name": "",
          "type": "address"
        }
      ],
      "payable": false,
      "stateMutability": "nonpayable",
      "type": "function"
    },
    {
      "constant": false,
      "inputs": [
        {
          "name": "name",
          "type": "bytes24"
        }
      ],
      "name": "deleteProcedure",
      "outputs": [
        {
          "name": "err",
          "type": "uint8"
        },
        {
          "name": "procedureAddress",
          "type": "address"
        }
      ],
      "payable": false,
      "stateMutability": "nonpayable",
      "type": "function"
    },
    {
      "constant": false,
      "inputs": [
        {
          "name": "name",
          "type": "bytes24"
        },
        {
          "name": "oCode",
          "type": "bytes"
        },
        {
          "name": "caps",
          "type": "uint256[]"
        }
      ],
      "name": "createProcedure",
      "outputs": [
        {
          "name": "err",
          "type": "uint8"
        },
        {
          "name": "procedureAddress",
          "type": "address"
        }
      ],
      "payable": false,
      "stateMutability": "nonpayable",
      "type": "function"
    },
    {
      "constant": true,
      "inputs": [],
      "name": "returnProcedureTable",
      "outputs": [
        {
          "name": "",
          "type": "uint256[]"
        }
      ],
      "payable": false,
      "stateMutability": "view",
      "type": "function"
    },
    {
      "constant": true,
      "inputs": [],
      "name": "listProcedures",
      "outputs": [
        {
          "name": "",
          "type": "bytes24[]"
        }
      ],
      "payable": false,
      "stateMutability": "view",
      "type": "function"
    },
    {
      "constant": false,
      "inputs": [
        {
          "name": "name",
          "type": "bytes24"
        },
        {
          "name": "fselector",
          "type": "string"
        },
        {
          "name": "payload",
          "type": "bytes"
        }
      ],
      "name": "executeProcedure",
      "outputs": [
        {
          "name": "err",
          "type": "uint8"
        },
        {
          "name": "retVal",
          "type": "uint256"
        }
      ],
      "payable": false,
      "stateMutability": "nonpayable",
      "type": "function"
    },
    {
      "constant": true,
      "inputs": [
        {
          "name": "oCode",
          "type": "bytes"
        }
      ],
      "name": "validate",
      "outputs": [
        {
          "name": "err",
          "type": "uint8"
        }
      ],
      "payable": false,
      "stateMutability": "view",
      "type": "function"
    },
    {
      "constant": false,
      "inputs": [
        {
          "name": "oCode",
          "type": "bytes"
        }
      ],
      "name": "create",
      "outputs": [
        {
          "name": "d",
          "type": "address"
        }
      ],
      "payable": false,
      "stateMutability": "nonpayable",
      "type": "function"
    },
    {
      "constant": true,
      "inputs": [
        {
          "name": "oCode",
          "type": "bytes"
        }
      ],
      "name": "codePosition",
      "outputs": [
        {
          "name": "code",
          "type": "uint256"
        }
      ],
      "payable": false,
      "stateMutability": "pure",
      "type": "function"
    },
    {
      "inputs": [],
      "payable": false,
      "stateMutability": "nonpayable",
      "type": "constructor"
    },
    {
      "payable": false,
      "stateMutability": "nonpayable",
      "type": "fallback"
    },
    {
      "anonymous": false,
      "inputs": [
        {
          "indexed": false,
          "name": "message",
          "type": "string"
        }
      ],
      "name": "KernelLog",
      "type": "event"
    }
  ],
  "bytecode": "0x6060604052341561000f57600080fd5b600361800055611e99806100246000396000f3006060604052600436106100ba576000357c0100000000000000000000000000000000000000000000000000000000900463ffffffff16806301cb57d8146104d35780630866a87d146104e8578063087536ec146105475780630ce535e8146105b857806320fc0a951461062657806354b3f3cb146106a15780636178db0f1461079f5780637e7e8841146108095780639738849b14610873578063c16e50ef14610948578063cf5ba53f146109bf578063dfe4399214610a5c575b34156100c557600080fd5b600080600080600080600080600036600081811015156100e157fe5b90509001357f010000000000000000000000000000000000000000000000000000000000000090047f0100000000000000000000000000000000000000000000000000000000000000027effffffffffffffffffffffffffffffffffffffffffffffffffffffffffffff19167f010000000000000000000000000000000000000000000000000000000000000090049750600096506000955060009450600093505b6020841015610248576008879060020a0296506000366001860181811015156101a857fe5b90509001357f010000000000000000000000000000000000000000000000000000000000000090047f0100000000000000000000000000000000000000000000000000000000000000027effffffffffffffffffffffffffffffffffffffffffffffffffffffffffffff19167f01000000000000000000000000000000000000000000000000000000000000009004871796508380600101945050610183565b600092505b6020831015610315576008869060020a02955060003660206001860101818110151561027557fe5b90509001357f010000000000000000000000000000000000000000000000000000000000000090047f0100000000000000000000000000000000000000000000000000000000000000027effffffffffffffffffffffffffffffffffffffffffffffffffffffffffffff19167f0100000000000000000000000000000000000000000000000000000000000000900486179550828060010193505061024d565b600091505b60208210156103e4576008859060020a029450600036602080600186010101818110151561034457fe5b90509001357f010000000000000000000000000000000000000000000000000000000000000090047f0100000000000000000000000000000000000000000000000000000000000000027effffffffffffffffffffffffffffffffffffffffffffffffffffffffffffff19167f0100000000000000000000000000000000000000000000000000000000000000900485179450818060010192505061031a565b61041f600360009054906101000a9004680100000000000000000268010000000000000000900487896001610acd909392919063ffffffff16565b905060078814151561043657600c60005260206000fd5b876000811461045e576007811461048757600381146104af57600560b053600160b0a06104c8565b604060806043601d6000738885584aa73fccf0f4572a770d1a0d6bd0b4360a5af2606052606080f35b81151561049957600b60005260206000fd5b8686808255600360b053600160b0a050506104c8565b600335602060030135808255600360b053600160b0a050505b505050505050505050005b34156104de57600080fd5b6104e6610c5e565b005b34156104f357600080fd5b61052b60048080357effffffffffffffffffffffffffffffffffffffffffffffffffffffffffffff1916906020019091905050610c60565b604051808260ff1660ff16815260200191505060405180910390f35b341561055257600080fd5b6105a2600480803590602001908201803590602001908080601f01602080910402602001604051908101604052809392919081815260200183838082843782019150505050505091905050610c80565b6040518082815260200191505060405180910390f35b34156105c357600080fd5b6105e4600480803567ffffffffffffffff1916906020019091905050610c8b565b604051808273ffffffffffffffffffffffffffffffffffffffff1673ffffffffffffffffffffffffffffffffffffffff16815260200191505060405180910390f35b341561063157600080fd5b610652600480803567ffffffffffffffff1916906020019091905050610ca8565b604051808360ff1660ff1681526020018273ffffffffffffffffffffffffffffffffffffffff1673ffffffffffffffffffffffffffffffffffffffff1681526020019250505060405180910390f35b34156106ac57600080fd5b610750600480803567ffffffffffffffff191690602001909190803590602001908201803590602001908080601f0160208091040260200160405190810160405280939291908181526020018383808284378201915050505050509190803590602001908201803590602001908080602002602001604051908101604052809392919081815260200183836020028082843782019150505050505091905050610d72565b604051808360ff1660ff1681526020018273ffffffffffffffffffffffffffffffffffffffff1673ffffffffffffffffffffffffffffffffffffffff1681526020019250505060405180910390f35b34156107aa57600080fd5b6107b2610df1565b6040518080602001828103825283818151815260200191508051906020019060200280838360005b838110156107f55780820151818401526020810190506107da565b505050509050019250505060405180910390f35b341561081457600080fd5b61081c610e08565b6040518080602001828103825283818151815260200191508051906020019060200280838360005b8381101561085f578082015181840152602081019050610844565b505050509050019250505060405180910390f35b341561087e57600080fd5b610925600480803567ffffffffffffffff191690602001909190803590602001908201803590602001908080601f0160208091040260200160405190810160405280939291908181526020018383808284378201915050505050509190803590602001908201803590602001908080601f01602080910402602001604051908101604052809392919081815260200183838082843782019150505050505091905050610e1f565b604051808360ff1660ff1681526020018281526020019250505060405180910390f35b341561095357600080fd5b6109a3600480803590602001908201803590602001908080601f01602080910402602001604051908101604052809392919081815260200183838082843782019150505050505091905050610f90565b604051808260ff1660ff16815260200191505060405180910390f35b34156109ca57600080fd5b610a1a600480803590602001908201803590602001908080601f016020809104026020016040519081016040528093929190818152602001838380828437820191505050505050919050506110cb565b604051808273ffffffffffffffffffffffffffffffffffffffff1673ffffffffffffffffffffffffffffffffffffffff16815260200191505060405180910390f35b3415610a6757600080fd5b610ab7600480803590602001908201803590602001908080601f016020809104026020016040519081016040528093929190818152602001838380828437820191505050505050919050506110e3565b6040518082815260200191505060405180910390f35b6000806000806000806000806000806000809a50610aea8e6110f3565b9950610af760008b6111c6565b8960000160006101000a81548160ff021916908360ff160217905550610b21600060018c016111c6565b8960000160016101000a81548173ffffffffffffffffffffffffffffffffffffffff021916908373ffffffffffffffffffffffffffffffffffffffff16021790555060028a019750610b746000896111c6565b965060009550600094506000935060009250600191505b610100827effffffffffffffffffffffffffffffffffffffffffffffffffffffffffffff161015610c2457610bc5600080848b01016111c6565b90508b861415610c0a57610bdf60006001848b01016111c6565b9450610bf160006002848b01016111c6565b9350610c0360006003848b01016111c6565b9250610c24565b808201915085806001019650508180600101925050610b8b565b600785148015610c345750838d10155b8015610c4257508284018d11155b15610c4c5760019a505b50505050505050505050949350505050565b565b60006020528060005260406000206000915054906101000a900460ff1681565b600081519050919050565b6000610ca18260016111e090919063ffffffff16565b9050919050565b6000806000807f010000000000000000000000000000000000000000000000000000000000000002846000601881101515610cdf57fe5b1a7f0100000000000000000000000000000000000000000000000000000000000000027effffffffffffffffffffffffffffffffffffffffffffffffffffffffffffff19161415610d335760019250610d6c565b610d478460016111e090919063ffffffff16565b9150610d5d84600161120c90919063ffffffff16565b9050801515610d6b57600292505b5b50915091565b60008060008068010000000000000000028667ffffffffffffffff19161415610d9e5760019250610de8565b610db286600161133a90919063ffffffff16565b90508015610dc35760039250610de8565b610dcc856110cb565b9150610de68683866001611365909392919063ffffffff16565b505b50935093915050565b610df9611e0a565b610e0360016115db565b905090565b610e10611e1e565b610e1a6001611a8e565b905090565b6000806000806000807f010000000000000000000000000000000000000000000000000000000000000002886000601881101515610e5957fe5b1a7f0100000000000000000000000000000000000000000000000000000000000000027effffffffffffffffffffffffffffffffffffffffffffffffffffffffffffff19161415610ead5760019450610f85565b610ec188600161133a90919063ffffffff16565b9250821515610ed35760039450610f85565b87600360006101000a81548177ffffffffffffffffffffffffffffffffffffffffffffffff02191690836801000000000000000090040217905550610f228860016111e090919063ffffffff16565b91506000905060405160208101604052875160208901208152806004606060208082848660008b5af295506000861415610f60576004604052604080f35b6001861415610f73576000604052604080f35b5050505050801515610f8457605594505b5b505050935093915050565b60008060008091505b83518210156110bf578382815181101515610fb057fe5b9060200101517f010000000000000000000000000000000000000000000000000000000000000090047f0100000000000000000000000000000000000000000000000000000000000000027f01000000000000000000000000000000000000000000000000000000000000009004905060f08160ff16141561103557600192506110c4565b60f18160ff16141561104a57600292506110c4565b60f28160ff16141561105f57600392506110c4565b60f48160ff16141561107457600492506110c4565b60ff8160ff16141561108957600592506110c4565b60608160ff16101580156110a15750607f8160ff1611155b156110b257605f810360ff16820191505b8180600101925050610f99565b600092505b5050919050565b6000815160208301818101816000f092505050919050565b6000815160008301915050919050565b60008060405180807f70726f636564757265506f696e7465720000000000000000000000000000000081525060100190506040518091039020905060088377ffffffffffffffffffffffffffffffffffffffffffffffff1660c083600190047dffffffffffffffffffffffffffffffffffffffffffffffffffffffffffff169060020a02177dffffffffffffffffffffffffffffffffffffffffffffffffffffffffffff167effffffffffffffffffffffffffffffffffffffffffffffffffffffffffffff169060020a02915050919050565b6000806111d38484611b84565b9050805491505092915050565b6000611204600060016111fe856801000000000000000090046110f3565b016111c6565b905092915050565b6000611216611e32565b60008060008060008060006112368a680100000000000000009004611bbc565b97506000886000015160ff161415611251576000985061132c565b611259611c38565b96506112666000886111c6565b955085886000015160ff1611151561132b5761128d8a6801000000000000000090046110f3565b945061129c8860000151611cbe565b93506112aa60018703611cbe565b92506112b76000846111c6565b91506112c2826110f3565b90506112d76000828a6000015160ff16611d4e565b6112fd6000858477ffffffffffffffffffffffffffffffffffffffffffffffff16611d4e565b61130a6000846000611d4e565b61131385611d65565b61132260008860018903611d4e565b6001985061132c565b5b505050505050505092915050565b60008061135c6000611357856801000000000000000090046110f3565b6111c6565b11905092915050565b600061136f611e32565b6000806000806000806000806113908d680100000000000000009004611bbc565b98506113a78d6801000000000000000090046110f3565b97506002880196508b896020019073ffffffffffffffffffffffffffffffffffffffff16908173ffffffffffffffffffffffffffffffffffffffff168152505060808b5111156113f657600080fd5b6114036000888d51611d4e565b600095505b8a51867effffffffffffffffffffffffffffffffffffffffffffffffffffffffffffff16101561155b5785600188010194508a867effffffffffffffffffffffffffffffffffffffffffffffffffffffffffffff1681518110151561146957fe5b9060200190602002015193506114a46000808701867effffffffffffffffffffffffffffffffffffffffffffffffffffffffffffff16611d4e565b600192505b837effffffffffffffffffffffffffffffffffffffffffffffffffffffffffffff16837effffffffffffffffffffffffffffffffffffffffffffffffffffffffffffff161115156115495761153c60008487018d868a017effffffffffffffffffffffffffffffffffffffffffffffffffffffffffffff1681518110151561152d57fe5b90602001906020020151611d4e565b82806001019350506114a9565b83860195508580600101965050611408565b6000896000015160ff16111561157457600199506115ca565b61157c611c38565b91506115896000836111c6565b905060018101896000019060ff16908160ff16815250506115af60008360018401611d4e565b6115c5898e680100000000000000009004611d85565b600099505b505050505050505050949350505050565b6115e3611e0a565b6115eb611e1e565b60006115f5611e0a565b6000806000806000806116078b611a8e565b985088519750610100880260405180591061161f5750595b90808252806020026020018201604052509650600095505b6001867effffffffffffffffffffffffffffffffffffffffffffffffffffffffffffff161015611a7d5788867effffffffffffffffffffffffffffffffffffffffffffffffffffffffffffff1681518110151561169057fe5b9060200190602002015168010000000000000000900494506116b1856110f3565b93508477ffffffffffffffffffffffffffffffffffffffffffffffff1687600088017effffffffffffffffffffffffffffffffffffffffffffffffffffffffffffff1681518110151561170057fe5b906020019060200201818152505061171b60008086016111c6565b92508287600188017effffffffffffffffffffffffffffffffffffffffffffffffffffffffffffff1681518110151561175057fe5b906020019060200201818152505061176c6000600186016111c6565b91508187600288017effffffffffffffffffffffffffffffffffffffffffffffffffffffffffffff168151811015156117a157fe5b90602001906020020181815250506117bd6000600286016111c6565b90508087600388017effffffffffffffffffffffffffffffffffffffffffffffffffffffffffffff168151811015156117f257fe5b906020019060200201818152505061180e6000600386016111c6565b87600488017effffffffffffffffffffffffffffffffffffffffffffffffffffffffffffff1681518110151561184057fe5b906020019060200201818152505061185c6000600486016111c6565b87600588017effffffffffffffffffffffffffffffffffffffffffffffffffffffffffffff1681518110151561188e57fe5b90602001906020020181815250506118aa6000600586016111c6565b87600688017effffffffffffffffffffffffffffffffffffffffffffffffffffffffffffff168151811015156118dc57fe5b90602001906020020181815250506118f86000600686016111c6565b87600788017effffffffffffffffffffffffffffffffffffffffffffffffffffffffffffff1681518110151561192a57fe5b90602001906020020181815250506119466000600786016111c6565b87600888017effffffffffffffffffffffffffffffffffffffffffffffffffffffffffffff1681518110151561197857fe5b90602001906020020181815250506119946000600886016111c6565b87600988017effffffffffffffffffffffffffffffffffffffffffffffffffffffffffffff168151811015156119c657fe5b90602001906020020181815250506119e26000600986016111c6565b87600a88017effffffffffffffffffffffffffffffffffffffffffffffffffffffffffffff16815181101515611a1457fe5b9060200190602002018181525050611a306000600a86016111c6565b87600b88017effffffffffffffffffffffffffffffffffffffffffffffffffffffffffffff16815181101515611a6257fe5b90602001906020020181815250508580600101965050611637565b869950505050505050505050919050565b611a96611e1e565b6000806000611aa3611c38565b9250611ab06000846111c6565b915081604051805910611ac05750595b90808252806020026020018201604052509350600090505b81817effffffffffffffffffffffffffffffffffffffffffffffffffffffffffffff161015611b7c57611b1160006002838601016111c6565b680100000000000000000284827effffffffffffffffffffffffffffffffffffffffffffffffffffffffffffff16815181101515611b4b57fe5b9060200190602002019067ffffffffffffffff1916908167ffffffffffffffff191681525050600181019050611ad8565b505050919050565b600060f88360ff169060020a02827effffffffffffffffffffffffffffffffffffffffffffffffffffffffffffff1617905092915050565b611bc4611e32565b6000611bcf836110f3565b9050611bdc6000826111c6565b826000019060ff16908160ff1681525050611bfb6000600183016111c6565b826020019073ffffffffffffffffffffffffffffffffffffffff16908173ffffffffffffffffffffffffffffffffffffffff168152505050919050565b60008060405180807f6b6579506f696e74657200000000000000000000000000000000000000000000815250600a0190506040518091039020905060f081780100000000000000000000000000000000000000000000000090047effffffffffffffffffffffffffffffffffffffffffffffffffffffffffffff169060020a0291505090565b60008060405180807f6b6579506f696e74657200000000000000000000000000000000000000000000815250600a019050604051809103902090508260ff16600160f083780100000000000000000000000000000000000000000000000090047effffffffffffffffffffffffffffffffffffffffffffffffffffffffffffff169060020a020101915050919050565b6000611d5a8484611b84565b905081815550505050565b611d726000826000611d4e565b611d826000600183016000611d4e565b50565b600080611d958460000151611cbe565b9150611dbd6000838577ffffffffffffffffffffffffffffffffffffffffffffffff16611d4e565b611dc6836110f3565b9050611ddb600082866000015160ff16611d4e565b611e04600060018301866020015173ffffffffffffffffffffffffffffffffffffffff16611d4e565b50505050565b602060405190810160405280600081525090565b602060405190810160405280600081525090565b606060405190810160405280600060ff168152602001600073ffffffffffffffffffffffffffffffffffffffff1681526020016000815250905600a165627a7a7230582040183ecd20877119b7c51dd23830dec724660573306b7884ab6fbc0e80bc9cea0029",
  "source": "pragma solidity ^0.4.17;\n\nimport \"./Factory.sol\";\nimport \"./ProcedureTable.sol\";\n\nlibrary WhatIsMyAddress {\n    function get() public view returns (address) {\n        return msg.sender;\n    }\n}\n\ncontract Kernel is Factory {\n    event KernelLog(string message);\n    using ProcedureTable for ProcedureTable.Self;\n    ProcedureTable.Self procedures;\n    address kernelAddress;\n    bytes24 currentProcedure;\n\n    struct Process {\n        // Equal to the index of the key of this item in keys, plus 1.\n        uint8 keyIndex;\n        address location;\n    }\n\n\n    function Kernel() {\n        // kernelAddress = WhatIsMyAddress.get();\n        // This is an example kernel global variable for testing.\n        assembly {\n            sstore(0x8000,3)\n        }\n        // The kernel is inaccessible if there is not init procedure, so we must\n        // deploy one.\n\n        // We also need a createProcedure procedure which must be deployed\n        // early\n    }\n\n    function callGuardProcedure() {\n\n    }\n\n    // This is the fallback function which is used to handle system calls. This\n    // is only called if the other functions fail.\n    function() public {\n        // This is the entry point for the kernel\n        // Before we do anything, let's set up some information about this call.\n        // Where is this call coming from? If it is an external account we can\n        // just use the caller value.\n\n        // If it is an external account, we forward it straight to the init\n        // procedure.\n        // if (isExternal) {\n        //     callGuardProcedure(msg.sender, msg.data);\n        // }\n\n        // TODO: we somehow need to execute this function\n        // Let's see if we can decode the system call message at a higher level\n        uint8 capType = uint8(msg.data[0]);\n        uint256 capIndex = 0;\n        uint256 writeAddress = 0;\n        uint256 writeValue = 0;\n\n        for (uint256 i = 0; i < 32; i++) {\n            capIndex = capIndex << 8;\n            capIndex = capIndex | uint256(msg.data[i+1]);\n        }\n\n        for (uint256 j = 0; j < 32; j++) {\n            writeAddress = writeAddress << 8;\n            writeAddress = writeAddress | uint256(msg.data[j+1+32]);\n        }\n\n        for (uint256 k = 0; k < 32; k++) {\n            writeValue = writeValue << 8;\n            writeValue = writeValue | uint256(msg.data[k+1+32+32]);\n        }\n\n        bool cap = procedures.checkWriteCapability(uint192(currentProcedure), writeAddress, capIndex);\n\n        // 0x00 - not a syscall\n        // 0x01 - read syscall\n        // 0x02 - write syscall\n        // 0x03 - exec syscall\n        assembly {\n            // TODO: this is a temporary error to throw when we are doing\n            // something other than a WRITE\n            if iszero(eq(capType,0x7)) {\n                mstore(0,12)\n                revert(0,0x20)\n            }\n            // Here we decode the system call (if there is one)\n            switch capType\n            case 0 {\n                // non-syscall case\n                // here we need to use callcode. delegatecall would leave the CALLER as\n                // the account which started the transaction\n                // The address here needs to be updated to call Procedure1\n                // everytime Procedure1 is deployed\n                //\n                // TODO: Determine the address of the procedure at index 0 of\n                // the procedure table.\n                //\n                // This (from last parameters to first):\n                // 1. Allocates an area in memory of size 0x40 (64 bytes)\n                // 2.    At memory location 0x80\n                // 3. Set the input size to 67 bytes\n                // 4.    At memory location 29\n                // 5. Send 0 wei\n                // 6. The contract address we are calling to\n                // 7. The gas we are budgeting\n                //\n                //        7                       6                       5   4   3   2      1\n                callcode(gas, 0x8885584aa73fccf0f4572a770d1a0d6bd0b4360a, 0, 29, 67, 0x80, 0x40)\n                // store the return code in memory location 0x60 (1 byte)\n                0x60\n                mstore\n                // return both delegatecall return values and the system call\n                // retun value\n                return(0x60,0x60)\n            }\n            // This is a store system call\n            case 0x07 {\n                if iszero(cap) {\n                    // return 11\n                    mstore(0,11)\n                    revert(0,0x20)\n                }\n\n                // let location := calldataload(3)\n                // let value := calldataload(add(3,32))\n                let location := writeAddress\n                let value := writeValue\n                sstore(location, value)\n                mstore8(0xb0,3)\n                log0(0xb0, 1)\n            }\n            // This is the exec system call\n            case 0x03 {\n                // First we need to check if we have the capability to\n                // execute this procedure. The first argument is simply an index\n                // of the procedure we want to call (in the procedure table).\n                // How do we determine if we have the capability? Perhaps this\n                // is not an address, but simply an index into the CList of the\n                // process that called this syscall. How do we access that\n                // CList? What if it is an account? If it is an account we know\n                // the sender. But if it is a procedure the sender is the\n                // the kernel and we don't know who is doing the sending.\n\n                // What process is calling this and what capabilities does it\n                // have?\n\n\n                let location := calldataload(3)\n                let value := calldataload(add(3,32))\n                sstore(location, value)\n                mstore8(0xb0,3)\n                log0(0xb0, 1)\n                // sstore(0, div(x, 2))\n            }\n            default {\n                mstore8(0xb0,5)\n                log0(0xb0, 1)\n            }\n\n        }\n    }\n\n    function createProcedure(bytes24 name, bytes oCode, uint256[] caps) public returns (uint8 err, address procedureAddress) {\n        // Check whether the first byte is null and set err to 1 if so\n        if (name == 0) {\n            err = 1;\n            return;\n        }\n\n        // Check whether the address exists\n        bool exist = procedures.contains(name);\n        if (exist) {\n            err = 3;\n            return;\n        }\n\n        procedureAddress = create(oCode);\n        procedures.insert(name, procedureAddress, caps);\n    }\n\n    function deleteProcedure(bytes24 name) public returns (uint8 err, address procedureAddress) {\n        // Check whether the first byte is null and set err to 1 if so\n        if (name[0] == 0) {\n            err = 1;\n            return;\n        }\n\n        procedureAddress = procedures.get(name);\n        bool success = procedures.remove(name);\n\n        // Check whether the address exists\n        if (!success) {err = 2;}\n    }\n\n    function listProcedures() public view returns (bytes24[] memory) {\n        return procedures.getKeys();\n    }\n\n    function returnProcedureTable() public view returns (uint256[]) {\n        return procedures.returnProcedureTable();\n    }\n\n    // function nProcedures() public view returns (uint256) {\n    //     return procedures.size();\n    // }\n\n\n    function getProcedure(bytes24 name) public returns (address) {\n        return procedures.get(name);\n    }\n\n    function executeProcedure(bytes24 name, string fselector, bytes payload) public returns (uint8 err, uint256 retVal) {\n        // Check whether the first byte is null and set err to 1 if so\n        if (name[0] == 0) {\n            err = 1;\n            return;\n        }\n        // Check whether the address exists\n        bool exist = procedures.contains(name);\n        if (!exist) {\n            err = 3;\n            return;\n        }\n\n        currentProcedure = name;\n        address procedureAddress = procedures.get(name);\n        bool status = false;\n        assembly {\n            // Retrieve the address of new available memory from address 0x40\n            let n :=  mload(0x40)\n            // Replace the value of 0x40 with the next new available memory,\n            // after the 4 bytes we will use to store the keccak hash.\n            mstore(0x40,add(n,32))\n            // Take the keccak256 hash of that string, store at location n\n            // mstore\n            // Argument #1: The address (n) calculated above, to store the\n            //    hash.\n            // Argument #2: The hash, calculted as follows:\n            //   keccack256\n            //   Argument #1: The location of the fselector string (which\n            //     is simply the name of the variable) with an added offset\n            //     of 0x20, as the first 0x20 is reserved for the length of\n            //     the string.\n            //   Argument #2: The length of the string, which is loaded from\n            //     the first 0x20 of the string.\n            mstore(n,keccak256(add(fselector,0x20),mload(fselector)))\n\n            // The input starts at where we stored the hash (n)\n            let ins := n\n            // Currently that is only the function selector hash, which is 4\n            // bytes long.\n            let inl := 0x4\n            // TODO: Allocate a new area of memory into which to write the\n            // return data. This will depend on the size of the return type.\n            let outs := 0x60\n            // There is no return value, therefore it's length is 0 bytes long\n            // REVISION: lets assume a 32 byte return value for now\n            let outl := 0x20\n\n            status := callcode(gas,procedureAddress,0,ins,inl,outs,outl)\n            if eq(status,0) {\n                // error\n                mstore(0x40,4)\n                // TODO: switch to revert\n                return(0x40,0x40)\n            }\n            if eq(status,1) {\n                mstore(0x40,0)\n                return(0x40,0x40)\n            }\n        }\n        if (!status) {\n            err = 85;\n        }\n    }\n}",
  "sourcePath": "/mnt/c/Users/Raketa/Documents/Repos/beakeros/contracts/Kernel.sol",
  "compiler": {
    "name": "solc",
    "version": "0.4.19+commit.c4cbbb05.Emscripten.clang"
  },
  "schemaVersion": "1.0.1",
  "updatedAt": "2018-08-31T13:46:28.755Z"
}